:020000040800F2
:100000000050002095250008CD230008D3230008C8
:10001000DB230008E1230008E723000800000000BC
:10002000000000000000000000000000ED230008B8
:10003000F92300080000000005240008112400082E
:10004000DD250008DD250008DD250008DD25000888
:10005000DD250008DD250008DD250008DD25000878
:10006000DD250008DD250008DD250008DD25000868
:10007000DD250008DD250008DD250008DD25000858
:10008000DD250008DD250008DD250008DD25000848
:10009000DD250008DD250008DD250008DD25000838
:1000A000DD250008DD250008DD250008DD25000828
:1000B000DD250008DD250008DD250008DD25000818
:1000C000DD250008DD250008DD250008DD25000808
:1000D000DD2500081D240008DD250008DD250008B9
:1000E000DD250008DD250008DD25000800000000F2
:1000F0000000000000000000000000000000000000
:0C01000000000000000000005FF808F1A3
:10010C0010B5054C237833B9044B13B10448AFF345
:10011C0000800123237010BD3C0100200000000072
:10012C006C59000808B5034B1BB103490348AFF3E6
:10013C00008008BD00000000400100206C59000840
:10014C00034613F8012B002AFBD1181A013870470B
:10015C0080B582B000AF03460A46FB711346BB71F3
:10016C0000F0E4FC3C49012000F03EFDFA79BB793B
:10017C001146184600F0F0FC012000F05EFD3749F6
:10018C00022000F031FDBB790133DBB2FA79114664
:10019C00184600F0E1FC022000F04FFD304903202E
:1001AC0000F022FDBB790233DBB2FA791146184616
:1001BC0000F0D2FC032000F040FD2A49042000F09E
:1001CC0013FDBB790333DBB2FA791146184600F004
:1001DC00C3FC042000F031FD2349052000F004FD90
:1001EC00BB790533DBB2FA791146184600F0B4FC42
:1001FC00052000F022FDBB790633DBB2FA791146FB
:10020C00184600F0A9FC032000F017FD1749062042
:10021C0000F0EAFCBB790733DBB2FA7911461846D9
:10022C0000F09AFC062000F008FDBB790833DBB225
:10023C00FA791146184600F08FFC0D4800F00AFDC3
:10024C000121062000F088FC0A4800F003FD00BFE5
:10025C000837BD4680BD00BF60000020680000204C
:10026C0020000020180000207000002078000020E2
:10027C00845900088859000880B582B000AF034645
:10028C000A46FB711346BB7100F050FC4E4901202D
:10029C0000F0AAFCFA79BB791146184600F05CFC18
:1002AC00012000F0CAFC4949022000F09DFCBB79FA
:1002BC000133DBB2FA791146184600F04DFC0220EE
:1002CC0000F0BBFC4249032000F08EFCBB790233EA
:1002DC00DBB2FA791146184600F03EFC032000F020
:1002EC00ACFC3C49042000F07FFCBB790333DBB24F
:1002FC00FA791146184600F02FFC042000F09DFC02
:10030C003549052000F070FCBB790533DBB2FA7976
:10031C001146184600F020FC052000F08EFCBB793D
:10032C000633DBB2FA791146184600F015FC0420AE
:10033C0000F083FC2949062000F056FCBB790733FA
:10034C00DBB2FA791146184600F006FC062000F0E4
:10035C0074FCBB790833DBB2FA791146184600F00D
:10036C00FBFB042000F069FC1D49072000F03CFC5D
:10037C00BB790933DBB2FA791146184600F0ECFB75
:10038C00072000F05AFC1749082000F02DFCBB791F
:10039C000A33DBB2FA791146184600F0DDFB08206F
:1003AC0000F04BFCBB790B33DBB2FA7911461846E3
:1003BC0000F0D2FB042000F040FC0B4800F04AFC9B
:1003CC0000BF0837BD4680BD08000020100000208B
:1003DC007000002020000020300000207800002059
:1003EC0058000020380000208459000880B582B0E5
:1003FC0000AF03460A46FB711346BB7100F096FB37
:10040C004849012000F0F0FBFA79BB7911461846F7
:10041C0000F0A2FB012000F010FC4349022000F088
:10042C00E3FBBB790133DBB2FA791146184600F0D5
:10043C0093FB022000F001FC3C49032000F0D4FBAC
:10044C00BB790233DBB2FA791146184600F084FB13
:10045C00032000F0F2FBBB790333DBB2FA791146CF
:10046C00184600F079FB022000F0E7FB304904202D
:10047C0000F0BAFBBB790433DBB2FA7911461846AB
:10048C0000F06AFB042000F0D8FB2A49052000F09C
:10049C00ABFBBB790533DBB2FA791146184600F099
:1004AC005BFB052000F0C9FB2349062000F09CFBF8
:1004BC00BB790633DBB2FA791146184600F04CFBD7
:1004CC00062000F0BAFBBB790833DBB2FA7911468F
:1004DC00184600F041FB022000F0AFFB1749072043
:1004EC0000F082FBBB790933DBB2FA79114618466E
:1004FC0000F032FB072000F0A0FBBB790A33DBB223
:10050C00FA791146184600F027FB022000F095FB03
:10051C00022000F092FB0A4800F09CFB00BF083759
:10052C00BD4680BD3000002020000020400000208F
:10053C000000002008000020380000207800002077
:10054C008459000880B582B000AF03460A46FB719F
:10055C001346BB7100F0EAFA5949012000F044FB44
:10056C00FA79BB791146184600F0F6FA012000F032
:10057C0064FB5449022000F037FBBB790133DBB23A
:10058C00FA791146184600F0E7FA022000F055FB04
:10059C004D49032000F028FBBB790233DBB2FA791A
:1005AC001146184600F0D8FA032000F046FB4749E4
:1005BC00042000F019FBBB790333DBB2FA79114646
:1005CC00184600F0C9FA042000F037FB404905201A
:1005DC0000F00AFBBB790433DBB2FA7911461846FA
:1005EC0000F0BAFA052000F028FB3A49062000F08A
:1005FC00FBFABB790533DBB2FA791146184600F0E9
:10060C00ABFA062000F019FB3349072000F0ECFA96
:10061C00BB790733DBB2FA791146184600F09CFA25
:10062C00072000F00AFBBB790833DBB2FA791146DC
:10063C00184600F091FA032000F0FFFA2749082031
:10064C0000F0D2FABB790933DBB2FA7911461846BD
:10065C0000F082FA082000F0F0FABB790A33DBB222
:10066C00FA791146184600F077FA032000F0E5FA03
:10067C00BB790B33DBB2FA791146184600F06CFAF1
:10068C00062000F0DAFABB790C33DBB2FA791146AA
:10069C00184600F061FA022000F0CFFABB79023361
:1006AC00DAB2FB790133DBB21946104600F054FA8A
:1006BC000B4800F0CFFA00BF0837BD4680BD00BF25
:1006CC0060000020380000202000002018000020CE
:1006DC00800000205800002030000020780000200E
:1006EC008C59000880B582B000AF03460A46FB71F6
:1006FC001346BB7100F01AFA3A49012000F074FA63
:10070C00FA79BB791146184600F026FA012000F060
:10071C0094FA3549022000F067FABB790133DBB259
:10072C00FA791146184600F017FA022000F085FA03
:10073C002E49032000F058FABB790233DBB2FA7968
:10074C001146184600F008FA032000F076FA284902
:10075C00042000F049FABB790333DBB2FA79114675
:10076C00184600F0F9F9042000F067FA2149052039
:10077C0000F03AFABB790433DBB2FA791146184629
:10078C0000F0EAF9052000F058FA1B49062000F0A9
:10079C002BFABB790533DBB2FA791146184600F017
:1007AC00DBF9062000F049FA1449072000F01CFA86
:1007BC00BB790633DBB2FA791146184600F0CCF956
:1007CC00072000F03AFABB790733DBB2FA7911460D
:1007DC00184600F0C1F90A4800F03CFA00BF08378F
:1007EC00BD4680BD2800002080000020480000206D
:1007FC001800002050000020600000202000002085
:10080C008459000880B582B000AF03460A46FB71DC
:10081C001346BB7100F08AF93A49012000F0E4F963
:10082C00FA79BB791146184600F096F9012000F0D0
:10083C0004FA3549022000F0D7F9BB790133DBB259
:10084C00FA791146184600F087F9022000F0F5F904
:10085C002E49032000F0C8F9BB790233DBB2FA79D8
:10086C001146184600F078F9032000F0E6F9284903
:10087C00042000F0B9F9BB790333DBB2FA791146E5
:10088C00184600F069F9042000F0D7F9BB7904335D
:10089C00DBB2FA791146184600F05EF9022000F03E
:1008AC00CCF9BB790533DBB2FA791146184600F066
:1008BC0053F9012000F0C1F91649052000F094F914
:1008CC00BB790633DBB2FA791146184600F044F9CD
:1008DC00052000F0B2F91049062000F085F9BB792B
:1008EC000733DBB2FA791146184600F035F90620C9
:1008FC0000F0A3F9094800F0ADF900BF0837BD4678
:10090C0080BD00BF1800002020000020380000200F
:10091C004800002080000020580000208459000866
:10092C0080B582B000AF03460A46FB711346BB711B
:10093C0000F0FCF83449012000F056F9FA79BB7943
:10094C001146184600F008F9012000F076F92F49FD
:10095C00022000F049F9BB790133DBB2FA79114678
:10096C00184600F0F9F8022000F067F92849032036
:10097C0000F03AF9BB790233DBB2FA79114618462A
:10098C0000F0EAF8032000F058F9022000F055F9C5
:10099C00BB790333DBB2FA791146184600F0DCF868
:1009AC001C49052000F020F9BB790433DBB2FA793D
:1009BC001146184600F0D0F8052000F03EF9164913
:1009CC00062000F011F9BB790533DBB2FA79114638
:1009DC00184600F0C1F8062000F02FF90F49072047
:1009EC0000F002F9BB790633DBB2FA7911461846EE
:1009FC0000F0B2F8072000F020F9094800F02AF9BD
:100A0C0000BF0837BD4680BD30000020200000200C
:100A1C0040000020000000200800002038000020CA
:100A2C009859000880B582B000AF0346FB71384A74
:100A3C00FB791370374B08221A70374B00221A704F
:100A4C00334B1B78012B07D9334B1B7843F008032E
:100A5C00DAB2314B1A7006E02F4B1B7843F00403CB
:100A6C00DAB22D4B1A7000F093F9322001F014FE1B
:100A7C00284B1B78184600F051F94FF47A7001F0AE
:100A8C000BFE302000F038F941F2941000F0A8F978
:100A9C00302000F031F941F2941000F0A1F930202F
:100AAC0000F02AF941F2941000F09AF9202000F09D
:100ABC0023F9642000F094F9174B1B7843F02003C2
:100ACC00DBB2184600F0DBF8144B04221A7000F06D
:100ADC0075F800F02BF8124B02221A70104B1B7891
:100AEC0043F00403DBB2184600F0C9F841F294104D
:100AFC0000F076F90B49002000F076F80A49012045
:100B0C0000F072F800F01DF800BF0837BD4680BD3C
:100B1C005B0100205C0100205801002059010020DD
:100B2C005A010020880000209000002080B500AF02
:100B3C00012000F0A4F84FF4FA6000F051F900BF66
:100B4C0080BD80B500AF022000F099F84FF4FA6038
:100B5C0000F046F900BF80BD90B587B000AF0346EA
:100B6C000A46FB711346BB71124B07F108040FCBFD
:100B7C0084E80F00104B1B78BA799A4203D30E4BC2
:100B8C001B78013BBB71BB799B0018333B4453F87A
:100B9C00103CDAB2FB791344DBB25BB263F07F0337
:100BAC005BB2DBB2184600F06AF800BF1C37BD46DA
:100BBC0090BD00BF9C5900085B01002080B500AFC0
:100BCC00084B1B7843F00403DAB2064B1A70054B42
:100BDC001B7843F00803DBB2184600F050F800BF56
:100BEC0080BD00BF5901002080B584B000AF034622
:100BFC003960FB71FB7903F00703FB71FB79DB00B8
:100C0C005BB243F040035BB2DBB2184600F037F83E
:100C1C000023FB6009E0FB683A6813441B78184614
:100C2C0000F03BF8FB680133FB60FB68072BF2DD3F
:100C3C0000BF00BF1037BD4680BD80B582B000AF8D
:100C4C000346FB71FB79184600F027F800BF083704
:100C5C00BD4680BD80B582B000AF786006E07B6891
:100C6C005A1C7A601B78184600F017F87B681B78C2
:100C7C00002BF4D100BF00BF0837BD4680BD80B546
:100C8C0082B000AF0346FB71FB790021184600F0DF
:100C9C0012F800BF0837BD4680BD80B582B000AFEA
:100CAC000346FB71FB790121184600F004F800BFE4
:100CBC000837BD4680BD80B584B000AF03460A46F8
:100CCC00FB711346BB71FB7923F00F03FB73FB79AC
:100CDC001B01BB73FA7BBB791343DBB2184600F0E4
:100CEC000BF8BA7BBB791343DBB2184600F004F85F
:100CFC0000BF1037BD4680BD80B582B000AF034643
:100D0C00FB71FB79184600F009F8FB79184600F0E6
:100D1C0021F800BF0837BD4680BD000080B586B005
:100D2C0002AF0346FB71094B1A78FB791343DBB214
:100D3C00FB7307F10F020A23009301234E21044891
:100D4C0002F0A0F900BF1037BD4680BD5C01002049
:100D5C005803002080B582B000AF0346FB71FB79CD
:100D6C0043F00403DBB21846FFF7D8FF142000F061
:100D7C0037F8FB7923F00403DBB21846FFF7CEFFFC
:100D8C00142000F02DF800BF0837BD4680BD0000D0
:100D9C0080B400AF104BDB680F4A23F08073D36034
:100DAC000D4BDB680C4A43F08073D3600B4B1B6814
:100DBC000A4A23F001031360084B1B68074A43F0EF
:100DCC0001031360054B00225A6000BF00BF00BF37
:100DDC0000BFBD4680BC7047F0ED00E0001000E0A5
:100DEC0080B487B000AF78600D4B1B680D4AA2FB36
:100DFC0003239A0C7B6802FB03F37B610A4B5B6851
:100E0C003B61094B5A683B69D31AFB60FB687A69F2
:100E1C009A42F6D800BF00BF1C37BD4680BC704755
:100E2C00CC00002083DE1B43001000E080B582B0B4
:100E3C0000AF7860114B1B687B2B02DD0F4B00223F
:100E4C001A600E4B1B680E4AD35C212B0ED00B4B39
:100E5C001B680133094A1360084B1B68084A13448A
:100E6C0001221946074803F0D8FB02E0064B012289
:100E7C001A7000BF0837BD4680BD00BF5403002068
:100E8C0070020020040400206C01002080B586B0A4
:100E9C0000AF7860396005237B6108E07B697A6874
:100EAC0013441B783C2B07D07B6901337B617A6937
:100EBC003B689A42F2DB00E000BF7B6901337A6841
:100ECC0013441B783B737B6902337A6813441B7899
:100EDC007B737B6903337A6813441B78BB7307F10C
:100EEC000C03184603F0F2FF38613B6918461837BB
:100EFC00BD4680BD80B588B000AFF860B9607A603F
:100F0C000523FB6108E0FB69FA6813441B783C2B52
:100F1C0007D0FB690133FB61FA69BB689A42F2DBCB
:100F2C0000E000BFFB69BB6108E0BB69FA681344D1
:100F3C001B782C2B07D0BB690133BB61BA69BB682A
:100F4C009A42F2DB00E000BFBB697B6108E07B6981
:100F5C00FA6813441B78212B07D07B6901337B6122
:100F6C007A69BB689A42F2DB00E000BFBB690133CF
:100F7C00FA68D1187A69BB69D31A013B1A467868AA
:100F8C0004F008F800BF2037BD4680BD80B594B092
:100F9C0000AF01F01FFB00F045FA00F041FB00F040
:100FAC0087FA00F0B3FA00F0E7FA00F00FFB02202A
:100FBC00FFF738FD03210020FFF7CAF801210020BC
:100FCC00FFF7CAFD00F0CDFE012001F075F80120FD
:100FDC0001F072F8012001F06FF8002387F84F3010
:100FEC00B04B1B68FB63FA6BAF49B04803F0B2FF20
:100FFC00AF4B1B68AF4A134401221946AE4803F0AD
:10100C000CFB01F03FFB0346AC4A136002210020AD
:10101C00FFF798FA97F84F30012B17D101F032FBFC
:10102C000246BB6CD31A44F61F6293420ED90421BC
:10103C000020FFF757FB40F6B83001F02DFB0221E2
:10104C000020FFF77FFA002387F84F3001F01AFBDE
:10105C0002469A4B1B68D31A42F20F72934225D95F
:10106C0097F84F30002B21D1954B1A68954B1B6884
:10107C009A4201DB01F04BFC8C48FFF761F8034608
:10108C00184600F055FB8948FFF75AF803469AB208
:10109C0032238649884803F02EFA01F0F3FA03460E
:1010AC00864A1360874B1B68854A1360864B1B78F6
:1010BC00002B00F03D817E4B1B6819467D48FFF7E5
:1010CC00E5FEB863BB6BB3F5967F80F2FF80BB6B1C
:1010DC00B3F5917F06DCBB6BC82B1FD0BB6BC92B48
:1010EC0026D0F3E0BB6BA3F22313082B00F2EE80A7
:1010FC0001A252F823F000BFB9110008D912000860
:10110C007B110008D9120008D9120008F711000849
:10111C0035120008D91200087312000800210020B3
:10112C00FFF7AAF8674B1B680133664A1360E5E0CA
:10113C0001F078F95E4B1B683A1D19465D48FFF7C4
:10114C00D9FE00210020FFF7EBFB3B1D1846FFF7F3
:10115C0081FD01F097F94FF4FA6001F09DFA02213C
:10116C000020FFF7EFF9002387F84F30C6E0504B13
:10117C001B683A1D19464F48FFF7BCFEFFF7D6FC1B
:10118C0000210020FFF7E8FC00210020FFF774F895
:10119C0001F08AF94FF47A7001F07EFA02210020F6
:1011AC00FFF7D0F9002387F84F30A7E0404B1B68BE
:1011BC003A1D19463F48FFF79DFEFFF7B7FC00218B
:1011CC000020FFF7C9FC00210020FFF70FF901F008
:1011DC006BF94FF47A7001F05FFA02210020FFF7EF
:1011EC00B1F9002387F84F3088E0314B1B683A1D6A
:1011FC0019463048FFF77EFEFFF798FC00210020CF
:10120C00FFF7AAFC3B1D1846FFF724FD01F04CF933
:10121C0040F6B83001F040FA02210020FFF792F9B5
:10122C00002387F84F3069E0214B1B683A1D1946A3
:10123C002048FFF75FFEFFF779FC00210020FFF745
:10124C008BFC3B1D1846FFF705FD01F02DF940F610
:10125C00B83001F021FA02210020FFF773F90023C6
:10126C0087F84F304AE0124B1B683A1D194611485B
:10127C00FFF740FEFFF75AFC00210020FFF76CFC43
:10128C003B1D1846FFF7E6FC01F00EF940F6B830AE
:10129C0001F002FA02210020FFF754F9002387F82D
:1012AC004F302BE0F0BF0008E4590008F00200209A
:1012BC005403002070020020040400206001002070
:1012CC0064010020980000206C0100208022002185
:1012DC004E4803F037FE3B1D32220021184603F026
:1012EC0031FE4B4B00221A704A4B00221A6002212D
:1012FC000020FFF727F9002387F84F3080220021C8
:10130C00424803F01FFE3B1D32220021184603F019
:10131C0019FE3F4B00221A703E4B00221A603D4BC7
:10132C001B683A4A1344012219463B4803F075F9ED
:10133C003A4800F057FD034687F8373097F83730B6
:10134C00012B7FF467AE97F84F30002B7FF462AE21
:10135C00002387F84730002387F846302F48FEF7E4
:10136C00EFFE03461A462E4B1A6000233B6413E033
:10137C002A4A3B6C13441B787B2B05D0274A3B6CC9
:10138C0013441B787D2B04D197F84730013387F831
:10139C0047303B6C01333B64214B1B6804333A6C84
:1013AC009A42E5DD97F84730042B07D0012387F8E4
:1013BC004630FF220021194803F0C4FD97F846304F
:1013CC00002B7FF427AE01F091F803210020FFF7EA
:1013DC0019FA134B1B68184600F0AAF9322001F0D9
:1013EC005BF90F4B1B689AB264230C490A4803F053
:1013FC0082F8FF220021094803F0A4FD012387F89D
:10140C004F3001F03FF90346BB6403E67002002045
:10141C006C01002054030020040400207001002003
:10142C006801002080B590B000AF07F118032822A6
:10143C000021184603F086FD3B1D00221A605A60FD
:10144C009A60DA601A610123BB614FF48033FB614F
:10145C0000233B620123BB6202237B634FF4803386
:10146C00BB634FF4E013FB6307F11803184602F05B
:10147C000FF90346002B01D000F054F90F237B60C9
:10148C000223BB600023FB604FF480633B610023AD
:10149C007B613B1D0221184602F07CFB0346002BAE
:1014AC0001D000F03FF900BF4037BD4680BD0000C1
:1014BC0080B500AF124B134A1A60114B124A5A6096
:1014CC000F4B00229A600E4B0022DA600C4B4FF44B
:1014DC0080421A610A4B00225A61094B00229A6120
:1014EC00074B0022DA61064B00221A62044801F015
:1014FC0085FC0346002B01D000F014F900BF80BD21
:10150C005803002000540040A086010080B500AFB5
:10151C00174B184A1A60164B4FF482725A60144BD0
:10152C0000229A60124B0022DA60114B00221A61E1
:10153C000F4B00225A610E4B4FF400729A610C4B08
:10154C001822DA610A4B00221A62094B00225A62F5
:10155C00074B00229A62064B0A22DA62044802F018
:10156C00B1FC0346002B01D000F0DCF800BF80BDBD
:10157C00AC0300200030014080B500AF114B124A83
:10158C001A60104B4FF4E1325A600E4B00229A60F5
:10159C000C4B0022DA600B4B00221A61094B0C2217
:1015AC005A61084B00229A61064B0022DA61054809
:1015BC0002F054FF0346002B01D000F0B3F800BF3B
:1015CC0080BD00BF040400200038014080B500AF8E
:1015DC00114B124A1A60104B4FF4E1325A600E4B09
:1015EC0000229A600C4B0022DA600B4B00221A612D
:1015FC00094B0C225A61084B00229A61064B0022BF
:10160C00DA61054802F02AFF0346002B01D000F0F6
:10161C0089F800BF80BD00BF480400200044004092
:10162C0080B588B000AF07F1100300221A605A6031
:10163C009A60DA60374B9B69364A43F0100393612A
:10164C00344B9B6903F01003FB60FB68314B9B69C7
:10165C00304A43F0200393612E4B9B6903F0200327
:10166C00BB60BB682B4B9B692A4A43F00403936114
:10167C00284B9B6903F004037B607B68254B9B69BB
:10168C00244A43F008039361224B9B6903F008033F
:10169C003B603B6800224FF400511F4801F07CFB7B
:1016AC00002210211D4801F077FB002203211C4869
:1016BC0001F072FB4FF400533B6101237B6100236B
:1016CC00BB610223FB6107F110031946124801F0BC
:1016DC00DFF910233B6101237B610023BB610223F3
:1016EC00FB6107F1100319460C4801F0D1F90323F3
:1016FC003B6101237B610023BB610223FB6107F18A
:10170C0010031946064801F0C3F900BF2037BD4647
:10171C0080BD00BF001002400010014000080140D5
:10172C00000C014080B400AF72B600BFFEE70000B1
:10173C0080B582B000AF78607A680849084803F039
:10174C0009FC64232E220649064802F0D4FE1E2012
:10175C0000F0A2FF00BF0837BD4680BD945A0008B8
:10176C009C0000200404002080B586B002AF034624
:10177C00FB71FB793B7307F1080207F10C010A239B
:10178C0000930123034802F021FC3B7A18461037E2
:10179C00BD4680BDAC03002080B582B000AF0346CF
:1017AC000A46FB711346BB7100221021094801F057
:1017BC00F3FAFB791846FFF7D7FFBB791846FFF70A
:1017CC00D3FF01221021034801F0E6FA00BF0837CD
:1017DC00BD4680BD0008014080B584B000AF034613
:1017EC00FB71002210210B4801F0D6FAFB79184648
:1017FC00FFF7BAFF0020FFF7B7FF0346FB73012288
:10180C001021044801F0C8FAFB7B18461037BD467E
:10181C0080BD00BF0008014080B582B000AF034618
:10182C000A46FB711346BB71FB795B00DBB203F01C
:10183C007E03FB71BA79FB7911461846FFF7ACFFB2
:10184C0000BF0837BD4680BD80B584B000AF0346ED
:10185C00FB71FB795B005BB203F07E035BB263F060
:10186C007F035BB2FB71FB791846FFF7B5FF0346AC
:10187C00FB73FB7B18461037BD4680BD80B582B02C
:10188C0000AF03460A46FB711346BB71FB79184641
:10189C00FFF7DAFF03461A46BB791343DAB2FB793A
:1018AC0011461846FFF7B8FF00BF0837BD4680BD8C
:1018BC0080B582B000AF03460A46FB711346BB717C
:1018CC00FB791846FFF7C0FF03465AB297F906306A
:1018DC00DB435BB213405BB2DAB2FB7911461846BC
:1018EC00FFF79AFF00BF0837BD4680BD80B586B0B4
:1018FC0002AF03463960FB7107210D20FFF78CFF07
:10190C003B68FA791A7007F10C0300933B680122CB
:10191C0039680C2000F00FF80346FB73FB7B002B9F
:10192C0002D1BB89102B01D00223FB73FB7B184621
:10193C001037BD4680BD90B587B000AFB9607B60F5
:10194C000346FB731346BB730223FB750023BB7565
:10195C0000237B75FB7B0C2B06D00E2B09D112239D
:10196C00BB7510237B7505E07723BB7530237B7526
:10197C0000E000BFBB7D63F07F03DBB219460220A1
:10198C00FFF74AFF80210420FFF792FF80210A20F5
:10199C00FFF774FF00210120FFF73EFF00237B823D
:1019AC000AE07B8ABA6813441B7819460920FFF7B2
:1019BC0033FF7B8A01337B82BB7B9BB27A8A9A4250
:1019CC00EFD3FB7B19460120FFF726FFFB7B0C2B8B
:1019DC0003D180210D20FFF751FF4FF4FA637B8276
:1019EC000420FFF731FF03463B757B8A013B7B826A
:1019FC007B8A002B0AD03B7D03F00103002B05D121
:101A0C003A7D7B7D1340DBB2002BE9D080210D2089
:101A1C00FFF74EFF7B8A002B57D00620FFF714FFF1
:101A2C00034603F01B03002B4DD10023FB753A7DBD
:101A3C00BB7D1340DBB203F00103002B01D001236B
:101A4C00FB75FB7B0C2B40D10A20FFF7FDFE0346F8
:101A5C003B750C20FFF7F8FE034603F007037B747D
:101A6C007B7C002B0BD03B7D013B9BB2DB009AB205
:101A7C007B7C9BB213449AB2BB6A1A8005E03B7D17
:101A8C009BB2DB009AB2BB6A1A803B7D002B01D162
:101A9C0001233B753B7D102B01D910233B75002393
:101AAC007B820AE07B8A7A68D4180920FFF7CCFE87
:101ABC00034623707B8A01337B823B7D9BB27A8AFF
:101ACC009A42EFD301E00223FB75FB7D18461C37CD
:101ADC00BD4690BD80B586B002AF786000237B73A5
:101AEC0000210D20FFF798FE7B6893221A707B680B
:101AFC00013320221A7007F10A0300937B6802223B
:101B0C0079680C20FFF717FF0346FB73FB7B002B58
:101B1C0018D10023BB7309E0BB7B7A6813441A7895
:101B2C007B7B53407B73BB7B0133BB73BB7B032B36
:101B3C00F2D9BB7B7A6813441B787A7B9A4201D02A
:101B4C000223FB73FB7B18461037BD4680BD90B556
:101B5C0087B000AFF8600B467A60FB720421052059
:101B6C00FFF7A6FE80210A20FFF788FE0023FB75F5
:101B7C000AE0FB7DFA6813441B7819460920FFF72D
:101B8C004BFEFB7D0133FB75FA7DFB7A9A42F0D359
:101B9C0003210120FFF740FEFF23FB750520FFF713
:101BAC0053FE0346BB75FB7D013BFB75FB7D002B98
:101BBC0004D0BB7D03F00403002BEFD02220FFF7F1
:101BCC0043FE03461A467B681A707B685C1C212016
:101BDC00FFF73AFE0346237000BF1C37BD4690BD8D
:101BEC0080B588B002AF786093233B7270237B7210
:101BFC000023FB750CE0FB7D7A681A44FB7D0233F5
:101C0C00127818333B4403F8102CFB7D0133FB7521
:101C1C00FB7D042BEFD907F10803DA1D07F108034C
:101C2C0007211846FFF793FF07F1080207F1080197
:101C3C0007F112030093134609220C20FFF77BFED9
:101C4C0003467B757B7D002B05D17B8A182B02D13B
:101C5C003B7ABB7501E00023BB75BB7D184618377A
:101C6C00BD4680BD80B58AB002AFBA607B600346CA
:101C7C00FB730B46BB73FB7B3B74BB7B7B740023FE
:101C8C00BB770CE0BB7FBA681A44BB7F0233127877
:101C9C0020333B4403F8102CBB7F0133BB77BB7F55
:101CAC00052BEFD90023BB770CE0BB7F7A681A4475
:101CBC00BB7F0833127820333B4403F8102CBB7FD6
:101CCC000133BB77BB7F032BEFD907F1100207F170
:101CDC00100107F11C03009313460C220E20FFF792
:101CEC002AFE0346FB77FB7F002B07D10820FFF76A
:101CFC00ABFD034603F00803002B01D10223FB7755
:101D0C00FB7F18462037BD4680BD80B586B002AF3C
:101D1C0003463960FB713B6830221A703B68013313
:101D2C00FA791A703B6802331A4602213868FFF7B9
:101D3C000EFF07F10C0300933B68042239680C205A
:101D4C00FFF7F9FD0346FB73FB7B002B02D1BB892C
:101D5C00902B01D00223FB73FB7B18461037BD463A
:101D6C0080BD80B500AF00F020F88D212A20FFF750
:101D7C0053FD3E212B20FFF74FFD1E212D20FFF799
:101D8C004BFD00212C20FFF747FD70212620FFF78B
:101D9C0043FD40211520FFF73FFD3D211120FFF7AA
:101DAC003BFD00F00AF800BF80BD80B500AF0F21ED
:101DBC000120FFF731FD00BF80BD80B582B000AFC0
:101DCC001420FFF741FD0346FB71FB7903F003037D
:101DDC00002B03D103211420FFF750FD00BF08375F
:101DEC00BD4680BDF0B5F1B00EAF07F5C473A3F5D9
:101DFC00B2731860AD4A07F5BE7392E80300186021
:101E0C0004331980002387F88531002387F8843147
:101E1C0097F88531002B3BD1FFF7A3FF07F5B6737D
:101E2C0019462620FFF762FD0346002B30D107F53B
:101E3C00B6731846FFF74EFE0346002B28D197F8D1
:101E4C006C31194697F86D311C4697F86E3197F83E
:101E5C006F2107F16C000192009323460A469449C6
:101E6C0003F078F807F16C031846FEF769F903469E
:101E7C0087F8863197F8862107F16C0107F5C47352
:101E8C00A3F5B273186803F04FF8012387F8853176
:101E9C00142000F001FCFFF764FF97F88531012B4B
:101EAC0040F0ED8097F88431002B40F0E880FFF78C
:101EBC0058FF07F5B67319462620FFF717FD0346A2
:101ECC0087F8873197F88731002B40F0CE8007F5E3
:101EDC00B6731846FFF7FEFD034687F8873197F86F
:101EEC008731002B40F0B78007F5B6731846FFF723
:101EFC0077FE034687F8873197F88731002B00F07F
:101F0C00A08007F5B67307F5BE7202216120FFF7BA
:101F1C00A9FE034687F8873197F88731002B40F0EC
:101F2C00868007F1EC0319460220FFF7EEFE03460C
:101F3C0087F8873197F88731002B6ED197F8EC3002
:101F4C009C4697F8ED309E4697F8EE301C4697F875
:101F5C00EF301D4697F8F0301E4697F8F1303B6293
:101F6C0097F8F230FB6197F8F330BB6197F8F430D7
:101F7C007B6197F8F5303B6197F8F630FB6097F88A
:101F8C00F730BB6097F8F8307B6097F8F93019465A
:101F9C0097F8FA301A4697F8FB3007F12C000D939E
:101FAC000C920B917A680A92BA680992FA680892B4
:101FBC003A6907927A690692BA690592FA690492AB
:101FCC003B6A039302960195009473466246394925
:101FDC0002F0C0FF97F8863107F5C472A2F5B27211
:101FEC001268D41807F12C031846FEF7A9F802461C
:101FFC0007F12C031946204602F096FF07F12C033B
:10200C001846FEF79DF80346DAB297F8863113446A
:10201C0087F88631012387F8843197F88731022BB2
:10202C0005D1052000F048F8002387F8853197F892
:10203C008731002B05D0042000F03EF8002387F8F0
:10204C00853197F88731002B05D0032000F034F848
:10205C00002387F8853197F88731002B05D00220B3
:10206C0000F02AF8002387F8853197F88731002B88
:10207C0005D0012000F020F8002387F8853197F86F
:10208C008531012B0BD197F88431012B07D100231B
:10209C0087F88531002387F88431012300E0002381
:1020AC00184607F5C677BD46F0BD00BF605B00085B
:1020BC00D45A0008305B000880B584B000AF0346EA
:1020CC00FB710023FB7314E000224FF400510D4808
:1020DC0000F062FE642000F0DFFA01224FF40051A0
:1020EC00084800F059FE642000F0D6FAFB7B01335F
:1020FC00FB73FA7BFB799A42E6D300BF00BF103723
:10210C00BD4680BD0010014080B485B000AF154BBA
:10211C009B69144A43F001039361124B9B6903F0D2
:10212C000103BB60BB680F4BDB690E4A43F0805365
:10213C00D3610C4BDB6903F080537B607B680A4BEB
:10214C005B68FB60FB6823F0E063FB60FB6843F0BB
:10215C000073FB60044AFB68536000BF1437BD4634
:10216C0080BC7047001002400000014080B588B070
:10217C0000AF786007F1100300221A605A609A6071
:10218C00DA607B681B68154A934223D1144B9B6918
:10219C00134A43F008039361114B9B6903F0080346
:1021AC00FB60FB68C0233B6112237B610323FB6153
:1021BC0007F1100319460B4800F06AFC084BDB6969
:1021CC00074A43F40013D361054BDB6903F4001396
:1021DC00BB60BB6800BF2037BD4680BD00540040CB
:1021EC0000100240000C014080B588B000AF786050
:1021FC0007F1100300221A605A609A60DA607B685B
:10220C001B681B4A93422FD11A4B9B69194A43F402
:10221C0080539361174B9B6903F48053FB60FB68FD
:10222C00144B9B69134A43F004039361114B9B6954
:10223C0003F00403BB60BB68A0233B6102237B61FA
:10224C000323FB6107F1100319460B4800F020FC37
:10225C0040233B6100237B610023BB6107F110032A
:10226C001946054800F014FC00BF2037BD4680BD60
:10227C0000300140001002400008014080B58AB0D7
:10228C0000AF786007F1180300221A605A609A6058
:10229C00DA607B681B683B4A93423AD13A4B9B69A4
:1022AC00394A43F480439361374B9B6903F4804371
:1022BC007B617B69344B9B69334A43F00403936124
:1022CC00314B9B6903F004033B613B694FF4007392
:1022DC00BB610223FB6103237B6207F118031946E0
:1022EC002A4800F0D5FB4FF48063BB610023FB61EF
:1022FC0000233B6207F118031946244800F0C8FB81
:10230C0000220021252000F0D8FA252000F0F1FA57
:10231C0034E07B681B681E4A93422FD11A4BDB6951
:10232C00194A43F40033D361174BDB6903F40033D0
:10233C00FB60FB68144B9B69134A43F004039361E5
:10234C00114B9B6903F00403BB60BB680423BB61A6
:10235C000223FB6103237B6207F1180319460B4828
:10236C0000F096FB0823BB610023FB6100233B625A
:10237C0007F118031946054800F08AFB00BF2837FF
:10238C00BD4680BD003801400010024000080140ED
:10239C000044004080B400AFBFF34F8F00BF064B2A
:1023AC00DB6803F4E0620449044B1343CB60BFF3D6
:1023BC004F8F00BF00BFFDE700ED00E00400FA0501
:1023CC0080B400AFFEE780B500AFFFF7E3FF80B449
:1023DC0000AFFEE780B400AFFEE780B400AFFEE7CD
:1023EC0080B400AF00BFBD4680BC704780B400AF66
:1023FC0000BFBD4680BC704780B400AF00BFBD4677
:10240C0080BC704780B500AF00F02AF900BF80BDDA
:10241C0080B500AF024802F031F900BF80BD00BFAB
:10242C000404002080B500AF0121154800F0CCFC5D
:10243C00502000F031F90121114800F0C5FC50206A
:10244C0000F02AF901210E4800F0BEFC502000F0EB
:10245C0023F901210A4800F0B7FC502000F01CF9C8
:10246C000121074800F0B0FC502000F015F90121C3
:10247C00034800F0A9FC502000F00EF900BF80BD0D
:10248C00000C014080B500AF0221064800F09CFC16
:10249C004FF47A7000F000F90221024800F094FC2D
:1024AC0000BF80BD000C014080B500AF01210E487B
:1024BC0000F08AFC4FF47A7000F0EEF801210A4823
:1024CC0000F082FC4FF4FA7000F0E6F801210648A7
:1024DC0000F07AFC4FF47A7000F0DEF8012102482B
:1024EC0000F072FC00BF80BD000C014080B500AF55
:1024FC000121064800F068FC322000F0CDF80121E3
:10250C00024800F061FC00BF80BD00BF000C014020
:10251C0080B586B000AF7860144A154BD31A7B6136
:10252C007B693B61134B1B68002B02D1114B124A88
:10253C001A60104B1A687B6813443A699A4207D2A6
:10254C0002F0C8FC03460C221A604FF0FF3309E07E
:10255C00084B1B68FB60074B1A687B681344054AE1
:10256C001360FB6818461837BD4680BD005000202C
:10257C00000400008C040020A804002080B400AFEC
:10258C0000BFBD4680BC70470C480D490D4A002366
:10259C0002E0D458C4500433C4188C42F9D30A4A0C
:1025AC000A4C002301E013600432A242FBD3FFF774
:1025BC00E5FF02F095FCFEF7E9FC704700000020F7
:1025CC003C010020845D00083C010020A404002094
:1025DC00FEE7000080B500AF084B1B68074A43F0CC
:1025EC0010031360032000F05DF90F2000F008F8D1
:1025FC00FFF78AFD0023184680BD00BF0020024073
:10260C0080B582B000AF7860124B1A68124B1B7801
:10261C0019464FF47A73B3FBF1F3B2FBF3F318469C
:10262C0000F079F90346002B01D001230EE07B6802
:10263C000F2B0AD8002279684FF0FF3000F03DF9DB
:10264C00064A7B681360002300E001231846083714
:10265C00BD4680BDCC000020D4000020D00000205E
:10266C0080B400AF054B1B781A46054B1B6813440E
:10267C00034A136000BFBD4680BC7047D4000020E5
:10268C009004002080B400AF024B1B681846BD4676
:10269C0080BC70479004002080B584B000AF786097
:1026AC00FFF7F0FFB8607B68FB60FB68B3F1FF3F9E
:1026BC0005D00A4B1B781A46FB681344FB6000BF1D
:1026CC00FFF7E0FF0246BB68D31AFA689A42F7D8C4
:1026DC0000BF00BF1037BD4680BD00BFD400002036
:1026EC0080B485B000AF78607B6803F00703FB60B3
:1026FC000C4BDB68BB60BA684FF6FF031340BB6042
:10270C00FB681A02BB68134343F0BF6343F4003306
:10271C00BB60044ABB68D36000BF1437BD4680BCA5
:10272C00704700BF00ED00E080B400AF044BDB68E5
:10273C001B0A03F007031846BD4680BC704700BF58
:10274C0000ED00E080B483B000AF0346FB7197F955
:10275C000730002B0BDBFB7903F01F02064997F9BE
:10276C0007305B09012000FA02F241F8232000BF78
:10277C000C37BD4680BC704700E100E080B483B0EC
:10278C0000AF03463960FB7197F90730002B0ADB69
:10279C003B68DAB20C4997F907301201D2B20B44FC
:1027AC0083F800230AE03B68DAB20849FB7903F0AE
:1027BC000F03043B1201D2B20B441A7600BF0C3744
:1027CC00BD4680BC704700BF00E100E000ED00E0BA
:1027DC0080B489B000AFF860B9607A60FB6803F030
:1027EC000703FB61FB69C3F10703042B28BF042318
:1027FC00BB61FB690433062B02D9FB69033B00E088
:10280C0000237B614FF0FF32BB6902FA03F3DA431A
:10281C00BB681A407B699A404FF0FF317B6901FA23
:10282C0003F3D9437B680B40134318462437BD464A
:10283C0080BC704780B400AFBFF34F8F00BF064B16
:10284C00DB6803F4E0620449044B1343CB60BFF331
:10285C004F8F00BF00BFFDE700ED00E00400FA055C
:10286C0080B582B000AF78607B68013BB3F1807FAC
:10287C0001D301230FE00A4A7B68013B53600F210F
:10288C004FF0FF30FFF77AFF054B00229A60044BA4
:10289C0007221A60002318460837BD4680BD00BFCA
:1028AC0010E000E080B582B000AF78607868FFF788
:1028BC0017FF00BF0837BD4680BD80B586B000AF9E
:1028CC000346B9607A60FB7300237B61FFF72CFF32
:1028DC0078617A68B9687869FFF77AFF024697F9E8
:1028EC000F3011461846FFF749FF00BF1837BD4699
:1028FC0080BD80B582B000AF0346FB7197F90730FD
:10290C001846FFF71FFF00BF0837BD4680BD80B5D6
:10291C0000AFFFF78FFF80B582B000AF78607868AA
:10292C00FFF79EFF034618460837BD4680BD80B4AE
:10293C0085B000AF78600023FB737B6893F821307F
:10294C00022B08D07B6804229A637B68002283F8F0
:10295C002020012320E07B681B681A687B681B68B9
:10296C0022F00E021A607B681B681A687B681B6871
:10297C0022F001021A607B681A6C7B68DB6B012108
:10298C0001FA02F25A607B68012283F821207B68ED
:10299C00002283F82020FB7B18461437BD4680BCF0
:1029AC007047000080B584B000AF78600023FB73E3
:1029BC007B6893F82130022B05D07B6804229A6344
:1029CC000123FB7351E07B681B681A687B681B68EA
:1029DC0022F00E021A607B681B681A687B681B6801
:1029EC0022F001021A607B681B68224A934229D0AC
:1029FC007B681B68204A934222D07B681B681F4A65
:102A0C0093421AD07B681B681D4A934212D07B6894
:102A1C001B681C4A93420AD07B681B681A4A934273
:102A2C0002D14FF480130EE04FF080730BE04FF4A3
:102A3C00803308E04FF4805305E04FF4807302E0DC
:102A4C00102300E00123114A53607B68012283F8B4
:102A5C0021207B68002283F820207B685B6B002B95
:102A6C0003D07B685B6B78689847FB7B1846103704
:102A7C00BD4680BD080002401C00024030000240F0
:102A8C0044000240580002406C000240000002402A
:102A9C0080B48BB000AF7860396000237B62002378
:102AAC003B6269E101227B6A02FA03F3FB613B683A
:102ABC001B68FA691340BB61BA69FB699A4240F022
:102ACC0058813B685B689A4A93425ED0984A93421D
:102ADC0075D8984A934258D0964A93426FD8964AE2
:102AEC00934252D0944A934269D8944A93424CD020
:102AFC00924A934263D8924A934246D0904A934268
:102B0C005DD8122B2AD8122B59D801A252F823F0D7
:102B1C00972B0008712B0008832B0008C52B00088D
:102B2C00CB2B0008CB2B0008CB2B0008CB2B0008A1
:102B3C00CB2B0008CB2B0008CB2B0008CB2B000891
:102B4C00CB2B0008CB2B0008CB2B0008CB2B000881
:102B5C00CB2B0008792B00088D2B0008794A934267
:102B6C0013D02CE03B68DB683B6229E03B68DB68F8
:102B7C0004333B6224E03B68DB6808333B621FE0B4
:102B8C003B68DB680C333B621AE03B689B68002BAC
:102B9C0002D104233B6213E03B689B68012B05D1F7
:102BAC0008233B627B68FA691A6109E008233B62DF
:102BBC007B68FA695A6103E000233B6200E000BFC6
:102BCC00BB69FF2B01D87B6801E07B6804337B6118
:102BDC00BB69FF2B02D87B6A9B0002E07B6A083B37
:102BEC009B003B617B691A680F213B6901FA03F377
:102BFC00DB431A40396A3B6901FA03F31A437B69D8
:102C0C001A603B685B6803F08053002B00F0B180C6
:102C1C004D4B9B694C4A43F0010393614A4B9B69B2
:102C2C0003F00103BB60BB68484A7B6A9B08023314
:102C3C0052F82330FB607B6A03F003039B000F22E6
:102C4C0002FA03F3DB43FA681340FB607B68404AEB
:102C5C00934213D07B683F4A93420DD07B683E4A27
:102C6C00934207D07B683D4A934201D1032306E08F
:102C7C00042304E0022302E0012300E000237A6A2B
:102C8C0002F0030292009340FA681343FB602F4951
:102C9C007B6A9B080233FA6841F823203B685B6827
:102CAC0003F48033002B06D02D4B1A682C49BB69DA
:102CBC0013430B6006E02A4B1A68BB69DB432849B7
:102CCC0013400B603B685B6803F40033002B06D0A9
:102CDC00234B5A682249BB6913434B6006E0204BD7
:102CEC005A68BB69DB431E4913404B603B685B6809
:102CFC0003F48013002B06D0194B9A681849BB6952
:102D0C0013438B6006E0164B9A68BB69DB4314498E
:102D1C0013408B603B685B6803F40013002B21D0DD
:102D2C000F4BDA680E49BB691343CB6021E000BF3F
:102D3C0000003210000031100000221000002110A1
:102D4C0000001210000011100010024000000140A1
:102D5C0000080140000C014000100140001401402B
:102D6C00000401400B4BDA68BB69DB430949134093
:102D7C00CB607B6A01337B623B681A687B6A22FA00
:102D8C0003F3002B7FF48EAE00BF00BF2C37BD4683
:102D9C0080BC70470004014080B483B000AF786001
:102DAC000B467B8013467B707B78002B03D07A8894
:102DBC007B681A6103E07B881A047B681A6100BF88
:102DCC000C37BD4680BC704780B485B000AF7860CE
:102DDC000B467B807B68DB68FB607A88FB68134062
:102DEC001A04FB68D9437B880B401A437B681A6131
:102DFC0000BF1437BD4680BC7047000080B584B05E
:102E0C0000AF78607B68002B01D101232BE17B683C
:102E1C0093F83D30DBB2002B06D17B68002283F89F
:102E2C003C207868FFF7A2F97B68242283F83D20C8
:102E3C007B681B681A687B681B6822F001021A60A9
:102E4C007B681B681A687B681B6842F400421A6036
:102E5C007B681B681A687B681B6822F400421A6046
:102E6C0000F0EAFFF8607B685B68814A934207D800
:102E7C00FB68804A934294BF01230023DBB206E037
:102E8C00FB687D4A934294BF01230023DBB2002BE5
:102E9C0001D00123E7E0FB68784AA2FB03239B0CDB
:102EAC00BB607B681B685B6823F03F017B681B6819
:102EBC00BA680A435A607B681B681B6A23F03F019F
:102ECC007B685B686A4A934202D8BB68013309E0AD
:102EDC00BB684FF4967202FB03F3694AA2FB03230F
:102EEC009B0901337A6812680B4313627B681B6879
:102EFC00DB6923F44F4222F0FF027B685B685C497C
:102F0C008B4219D8FB68591E7B685B685B00B1FB70
:102F1C00F3F3591C40F6FC730B40002B0AD0FB68F2
:102F2C00591E7B685B685B00B1FBF3F30133C3F3A1
:102F3C000B0351E004234FE07B689B68002B11D1FD
:102F4C00FB68581E7B6859680B465B000B44B0FB52
:102F5C00F3F30133C3F30B03002B0CBF012300234A
:102F6C00DBB212E0FB68581E7B6859680B469B006D
:102F7C000B4499000B44B0FBF3F30133C3F30B0385
:102F8C00002B0CBF01230023DBB2002B01D001234B
:102F9C0022E07B689B68002B0ED1FB68581E7B6877
:102FAC0059680B465B000B44B0FBF3F30133C3F3DE
:102FBC000B0343F400430FE0FB68581E7B68596811
:102FCC000B469B000B4499000B44B0FBF3F301330D
:102FDC00C3F30B0343F44043796809681343CB6193
:102FEC007B681B681B6823F0C0017B68DA697B680F
:102FFC001B6A1A437B681B680A431A607B681B6850
:10300C009B6823F4034323F0FF037A6811697A6801
:10301C00D26811437A6812680B4393607B681B6813
:10302C00DB6823F0FF017B685A697B689B691A4354
:10303C007B681B680A43DA607B681B681A687B68CC
:10304C001B6842F001021A607B6800221A647B68DC
:10305C00202283F83D207B6800221A637B680022C3
:10306C0083F83E20002318461037BD4680BD00BFB4
:10307C00A08601007F841E00FF083D0083DE1B43F9
:10308C00D34D621080B588B002AFF8607A601A46F2
:10309C000B467B8113463B81FFF7F4FA7861FB68A2
:1030AC0093F83D30DBB2202B40F0E0807B6900933D
:1030BC00192301227049F86800F064F90346002BCB
:1030CC0001D00223D3E0FB6893F83C30012B01D1F3
:1030DC000223CCE0FB68012283F83C20FB681B68D0
:1030EC001B6803F00103012B07D0FB681B681A68EF
:1030FC00FB681B6842F001021A60FB681B681A68C7
:10310C00FB681B6822F400621A60FB68212283F8BA
:10311C003D20FB68102283F83E20FB6800221A64D5
:10312C00FB687A685A62FB683A895A85FB685B8D42
:10313C009AB2FB681A85FB68504ADA6279897B6916
:10314C003A6AF86800F09CF80346002B01D0012382
:10315C008DE000233B61FB681B685B693B61FB688E
:10316C001B689B693B613B6966E07A69396AF86860
:10317C0000F0DEF90346002B0DD0FB681B6C042B12
:10318C0007D1FB681B681A68FB681B6842F4007265
:10319C001A6001236BE0FB685B6A1A78FB681B689A
:1031AC001A61FB685B6A5A1CFB685A62FB685B8D90
:1031BC009BB2013B9AB2FB685A85FB681B8D013BA5
:1031CC009AB2FB681A85FB681B685B6903F0040301
:1031DC00042B1BD1FB681B8D002B17D0FB685B6A83
:1031EC001A78FB681B681A61FB685B6A5A1CFB68DF
:1031FC005A62FB685B8D9BB2013B9AB2FB685A85A5
:10320C00FB681B8D013B9AB2FB681A857A69396A97
:10321C00F86800F0CEF90346002B0DD0FB681B6C50
:10322C00042B07D1FB681B681A68FB681B6842F407
:10323C0000721A6001231AE0FB681B8D002B94D1DD
:10324C00FB681B681A68FB681B6842F400721A6002
:10325C00FB68202283F83D20FB68002283F83E2087
:10326C00FB68002283F83C20002300E00223184670
:10327C001837BD4680BD00BF020010000000FFFFE4
:10328C0080B588B002AFF8607A603B600B467B81FA
:10329C00FB68DB6A7B617B69082B06D07B69012BA1
:1032AC0003D07B6913F5803F08D1FB681B681A6853
:1032BC00FB681B6842F480721A600BE0FB681B6BA6
:1032CC00122B07D1FB681B681A68FB681B6842F459
:1032DC0080721A603B6800937B6800224FF00111EA
:1032EC00F86800F04FF80346002B0DD0FB681B6804
:1032FC001B6803F48073B3F5807F03D1FB684FF434
:10330C0000721A64032335E0FB681B69B3F5804F28
:10331C0008D17B89DBB21A46FB681B6802F0FE02FF
:10332C001A611BE07B89DB11DBB203F00603DBB215
:10333C0063F00F03DAB2FB681B681A613B687A68AA
:10334C000E49F86800F075F80346002B01D00123F4
:10335C0010E07B89DAB2FB681B681A613B687A68FB
:10336C000749F86800F065F80346002B01D00123EB
:10337C0000E0002318461837BD4680BD0800010048
:10338C000200010080B584B000AFF860B9603B600A
:10339C001346FB7125E03B68B3F1FF3F21D0FFF7EB
:1033AC0071F90246BB69D31A3A689A4202D33B6858
:1033BC00002B16D1FB6800221A63FB68202283F8CD
:1033CC003D20FB68002283F83E20FB681B6C43F019
:1033DC002002FB681A64FB68002283F83C2001235E
:1033EC0023E0BB681B0CDBB2012B0DD1FB681B6807
:1033FC005B69DA43BB6813409BB2002B0CBF012303
:10340C000023DBB21A460CE0FB681B689B69DA43AD
:10341C00BB6813409BB2002B0CBF01230023DBB213
:10342C001A46FB799A42B6D0002318461037BD468F
:10343C0080BD80B584B000AFF860B9607A603B6045
:10344C0051E0FB681B685B6903F48063B3F5806F24
:10345C0023D1FB681B681A68FB681B6842F4007276
:10346C001A60FB681B686FF480625A61FB6800226B
:10347C001A63FB68202283F83D20FB68002283F846
:10348C003E20FB681B6C43F00402FB681A64FB686B
:10349C00002283F83C20012346E07B68B3F1FF3F18
:1034AC0021D0FFF7EFF802463B68D31A7A689A42AC
:1034BC0002D37B68002B16D1FB6800221A63FB68D1
:1034CC00202283F83D20FB68002283F83E20FB6815
:1034DC001B6C43F02002FB681A64FB68002283F823
:1034EC003C20012320E0BB681B0CDBB2012B0CD170
:1034FC00FB681B685B69DA43BB6813409BB2002B0B
:10350C0014BF01230023DBB20BE0FB681B689B6933
:10351C00DA43BB6813409BB2002B14BF012300237A
:10352C00DBB2002B8DD1002318461037BD4680BD71
:10353C0080B584B000AFF860B9607A602DE0F868AF
:10354C0000F078F80346002B01D001232DE0BB6876
:10355C00B3F1FF3F21D0FFF795F802467B68D31AF1
:10356C00BA689A4202D3BB68002B16D1FB680022C2
:10357C001A63FB68202283F83D20FB68002283F845
:10358C003E20FB681B6C43F02002FB681A64FB684E
:10359C00002283F83C20012307E0FB681B685B6971
:1035AC0003F08003802BCAD1002318461037BD4688
:1035BC0080BD80B584B000AFF860B9607A602DE052
:1035CC00F86800F037F80346002B01D001232DE0FA
:1035DC00BB68B3F1FF3F21D0FFF754F802467B687C
:1035EC00D31ABA689A4202D3BB68002B16D1FB6877
:1035FC0000221A63FB68202283F83D20FB6800221E
:10360C0083F83E20FB681B6C43F02002FB681A64B5
:10361C00FB68002283F83C20012307E0FB681B6851
:10362C005B6903F00403042BCAD10023184610373E
:10363C00BD4680BD80B483B000AF78607B681B68EA
:10364C005B6903F48063B3F5806F1BD17B681B68E7
:10365C006FF480625A617B6800221A637B682022B7
:10366C0083F83D207B68002283F83E207B681B6C2E
:10367C0043F004027B681A647B68002283F83C20C8
:10368C00012300E0002318460C37BD4680BC704770
:10369C0080B586B000AF78607B68002B01D1012328
:1036AC0072E27B681B6803F00103002B00F087803B
:1036BC00924B5B6803F00C03042B0CD08F4B5B68B4
:1036CC0003F00C03082B12D18C4B5B6803F4803392
:1036DC00B3F5803F0BD1894B1B6803F40033002BEF
:1036EC006CD07B685B68002B68D101234CE27B6853
:1036FC005B68B3F5803F06D1804B1B687F4A43F46F
:10370C00803313602EE07B685B68002B0CD17B4B05
:10371C001B687A4A23F480331360784B1B68774A12
:10372C0023F4802313601DE07B685B68B3F5A02F46
:10373C000CD1724B1B68714A43F4802313606F4B9E
:10374C001B686E4A43F4803313600BE06B4B1B68B1
:10375C006A4A23F480331360684B1B68674A23F46E
:10376C00802313607B685B68002B13D0FEF78AFF05
:10377C00386108E0FEF786FF02463B69D31A642BDA
:10378C0001D9032300E25D4B1B6803F40033002BCB
:10379C00F0D014E0FEF776FF386108E0FEF772FF18
:1037AC0002463B69D31A642B01D90323ECE1534B3A
:1037BC001B6803F40033002BF0D100E000BF7B68E2
:1037CC001B6803F00203002B63D04C4B5B6803F0C7
:1037DC000C03002B0BD0494B5B6803F00C03082B3C
:1037EC001CD1464B5B6803F48033002B16D1434B42
:1037FC001B6803F00203002B05D07B681B69012BAF
:10380C0001D00123C0E13D4B1B6823F0F8027B681B
:10381C005B69DB00394913430B603AE07B681B6939
:10382C00002B20D0364B01221A60FEF72BFF38619B
:10383C0008E0FEF727FF02463B69D31A022B01D999
:10384C000323A1E12D4B1B6803F00203002BF0D0E6
:10385C002A4B1B6823F0F8027B685B69DB00274965
:10386C0013430B6015E0264B00221A60FEF70AFF8B
:10387C00386108E0FEF706FF02463B69D31A022BBB
:10388C0001D9032380E11D4B1B6803F00203002BBD
:10389C00F0D17B681B6803F00803002B3AD07B68DF
:1038AC009B69002B19D0174B01221A60FEF7EAFE18
:1038BC00386108E0FEF7E6FE02463B69D31A022B9C
:1038CC0001D9032360E10D4B5B6A03F00203002B6B
:1038DC00F0D0012000F0D8FA1CE00A4B00221A604C
:1038EC00FEF7D0FE38610FE0FEF7CCFE02463B69D6
:1038FC00D31A022B08D9032346E100BF0010024063
:10390C000000424280044242924B5B6A03F0020385
:10391C00002BE9D17B681B6803F00403002B00F03B
:10392C00A6800023FB758B4BDB6903F08053002BC7
:10393C000DD1884BDB69874A43F08053D361854BAB
:10394C00DB6903F08053BB60BB680123FB75824BC2
:10395C001B6803F48073002B18D17F4B1B687E4AC5
:10396C0043F480731360FEF78DFE386108E0FEF7B8
:10397C0089FE02463B69D31A642B01D9032303E168
:10398C00754B1B6803F48073002BF0D07B68DB68ED
:10399C00012B06D16F4B1B6A6E4A43F00103136275
:1039AC002DE07B68DB68002B0CD16A4B1B6A694AE3
:1039BC0023F001031362674B1B6A664A23F004036E
:1039CC0013621CE07B68DB68052B0CD1614B1B6A16
:1039DC00604A43F0040313625E4B1B6A5D4A43F07A
:1039EC00010313620BE05B4B1B6A5A4A23F0010381
:1039FC001362584B1B6A574A23F0040313627B680B
:103A0C00DB68002B15D0FEF73DFE38610AE0FEF7AF
:103A1C0039FE02463B69D31A41F28832934201D9EE
:103A2C000323B1E04B4B1B6A03F00203002BEED0D7
:103A3C0014E0FEF727FE38610AE0FEF723FE02468B
:103A4C003B69D31A41F28832934201D903239BE09C
:103A5C00404B1B6A03F00203002BEED1FB7D012BC4
:103A6C0005D13C4BDB693B4A23F08053D3617B6827
:103A7C00DB69002B00F08780364B5B6803F00C038E
:103A8C00082B61D07B68DB69022B46D1334B0022BB
:103A9C001A60FEF7F7FD386108E0FEF7F3FD024609
:103AAC003B69D31A022B01D903236DE0294B1B6808
:103ABC0003F00073002BF0D17B681B6AB3F5803FD9
:103ACC0008D1244B5B6823F400327B689B68214946
:103ADC0013434B601F4B5B6823F474127B68196AA9
:103AEC007B685B6A0B431B4913434B601B4B0122E6
:103AFC001A60FEF7C7FD386108E0FEF7C3FD024609
:103B0C003B69D31A022B01D903233DE0114B1B68EF
:103B1C0003F00073002BF0D035E0104B00221A603C
:103B2C00FEF7B0FD386108E0FEF7ACFD02463B69DC
:103B3C00D31A022B01D9032326E0064B1B6803F092
:103B4C000073002BF0D11EE07B68DB69012B07D1E1
:103B5C00012319E000100240007000406000424256
:103B6C000B4B5B68FB60FB6803F480327B681B6A61
:103B7C009A4206D1FB6803F470127B685B6A9A4226
:103B8C0001D0012300E0002318461837BD4680BD44
:103B9C000010024080B584B000AF786039607B685B
:103BAC00002B01D10123D0E06A4B1B6803F0070303
:103BBC003A689A4210D9674B1B6823F00702654993
:103BCC003B6813430B60634B1B6803F007033A68B5
:103BDC009A4201D00123B8E07B681B6803F0020312
:103BEC00002B20D07B681B6803F00403002B05D04E
:103BFC00594B5B68584A43F4E06353607B681B681D
:103C0C0003F00803002B05D0534B5B68524A43F476
:103C1C0060535360504B5B6823F0F0027B689B68E9
:103C2C004D4913434B607B681B6803F00103002B69
:103C3C0040D07B685B68012B07D1474B1B6803F4B2
:103C4C000033002B15D101237FE07B685B68022BCE
:103C5C0007D1414B1B6803F00073002B09D10123E2
:103C6C0073E03D4B1B6803F00203002B01D10123D1
:103C7C006BE0394B5B6823F003027B685B68364969
:103C8C0013434B60FEF7FEFCF8600AE0FEF7FAFC0B
:103C9C000246FB68D31A41F28832934201D90323BE
:103CAC0053E02D4B5B6803F00C027B685B689B0058
:103CBC009A42EBD1274B1B6803F007033A689A42F0
:103CCC0010D2244B1B6823F0070222493B68134394
:103CDC000B60204B1B6803F007033A689A4201D033
:103CEC00012332E07B681B6803F00403002B08D02F
:103CFC00194B5B6823F4E0627B68DB68164913435D
:103D0C004B607B681B6803F00803002B09D0124B37
:103D1C005B6823F460527B681B69DB000E4913431C
:103D2C004B6000F021F802460B4B5B681B0903F05B
:103D3C000F030A49CB5C22FA03F3094A1360094BBF
:103D4C001B681846FEF75CFC002318461037BD466E
:103D5C0080BD00BF0020024000100240305C000813
:103D6C00CC000020D000002090B48AB000AF294BCA
:103D7C003C1D0FCB84E80F0040F201233B80002355
:103D8C00FB610023BB6100237B6200237B6100236A
:103D9C003B62214B5B68FB61FB6903F00C03042B5A
:103DAC0002D0082B03D02BE01C4B3B622BE0FB69B1
:103DBC009B0C03F00F0328333B4413F8243C7B612A
:103DCC00FB6903F48033002B12D0134B5B685B0C44
:103DDC0003F0010328333B4413F8283CBB617B6997
:103DEC000E4A03FB02F2BB69B2FBF3F37B6204E005
:103DFC007B690B4A02FB03F37B627B6A3B6202E04A
:103E0C00064B3B6200BF3B6A18462837BD4690BC48
:103E1C00704700BF205C00080010024000127A00BE
:103E2C0000093D0080B400AF024B1B681846BD462C
:103E3C0080BC7047CC00002080B500AFFFF7F2FFCC
:103E4C000246054B5B681B0A03F007030349CB5C76
:103E5C0022FA03F3184680BD00100240405C0008B3
:103E6C0080B500AFFFF7DEFF0246054B5B68DB0A4F
:103E7C0003F007030349CB5C22FA03F3184680BD19
:103E8C0000100240405C000880B485B000AF786040
:103E9C000A4B1B680A4AA2FB03235B0A7A6802FBE3
:103EAC0003F3FB6000BFFB685A1EFA60002BF9D1CC
:103EBC0000BF00BF1437BD4680BC7047CC0000204B
:103ECC00D34D621080B582B000AF78607B68002B58
:103EDC0001D1012376E07B685B6A002B08D17B68FB
:103EEC005B68B3F5827F09D07B680022DA6105E05C
:103EFC007B6800221A617B6800225A617B68002271
:103F0C009A627B6893F85130DBB2002B06D17B6848
:103F1C00002283F850207868FEF766F97B6802224D
:103F2C0083F851207B681B681A687B681B6822F039
:103F3C0040021A607B685B6803F482727B689B6842
:103F4C0003F404431A437B68DB6803F400631A43ED
:103F5C007B681B6903F002031A437B685B6903F0FF
:103F6C0001031A437B689B6903F400731A437B6853
:103F7C00DB6903F038031A437B681B6A03F0800388
:103F8C0042EA03017B689B6A03F400527B681B685E
:103F9C000A431A607B689B691A0C7B681B6802F0E9
:103FAC0004025A607B681B68DA697B681B6822F420
:103FBC000062DA617B6800225A657B68012283F813
:103FCC005120002318460837BD4680BD80B58CB003
:103FDC0000AFF860B9607A607B800123FB6200233C
:103FEC0087F82B30FB6893F85030012B01D102235A
:103FFC008AE1FB68012283F85020FEF743FB7862CC
:10400C00FB6893F8513087F82330FB685B68FB61E1
:10401C007B887B8397F82330012B0FD0FB69B3F59A
:10402C00827F07D1FB689B68002B03D197F8233064
:10403C00042B03D0022387F82B305BE1BB68002BE9
:10404C0005D07B68002B02D07B88002B03D1012389
:10405C0087F82B304EE1FB6893F85130DBB2042B20
:10406C0003D0FB68052283F85120FB6800225A65B7
:10407C00FB687A689A63FB687A88DA87FB687A88C7
:10408C009A87FB68BA681A63FB687A88DA86FB68D9
:10409C007A889A86FB6800221A64FB6800225A64AC
:1040AC00FB681B681B6803F04003402B07D0FB68C0
:1040BC001B681A68FB681B6842F040021A60FB68B8
:1040CC00DB68B3F5006F78D1FB685B68002B02D01E
:1040DC007B8B012B66D1FB681B6B1A88FB681B68FA
:1040EC00DA60FB681B6B9A1CFB681A63FB68DB8E3F
:1040FC009BB2013B9AB2FB68DA8653E0FB681B6803
:10410C009B6803F00203022B1BD1FB68DB8E9BB276
:10411C00002B16D0FB6A012B13D1FB681B6B1A8882
:10412C00FB681B68DA60FB681B6B9A1CFB681A63E4
:10413C00FB68DB8E9BB2013B9AB2FB68DA860023EC
:10414C00FB62FB681B689B6803F00103012B19D110
:10415C00FB68DB8F9BB2002B14D0FB681B68DA6802
:10416C00FB689B6B92B21A80FB689B6B9A1CFB687A
:10417C009A63FB68DB8F9BB2013B9AB2FB68DA87D0
:10418C000123FB62FEF77EFA02467B6AD31ABA6BF6
:10419C009A4207D8BB6BB3F1FF3F03D0032387F8D8
:1041AC002B30A7E0FB68DB8E9BB2002BA6D1FB6803
:1041BC00DB8F9BB2002BA1D17CE0FB685B68002BF2
:1041CC0002D07B8B012B6BD1FB681A6BFB681B68D5
:1041DC000C3312781A70FB681B6B5A1CFB681A6341
:1041EC00FB68DB8E9BB2013B9AB2FB68DA8657E028
:1041FC00FB681B689B6803F00203022B1CD1FB6855
:10420C00DB8E9BB2002B17D0FB6A012B14D1FB6801
:10421C001A6BFB681B680C3312781A70FB681B6BEB
:10422C005A1CFB681A63FB68DB8E9BB2013B9AB28B
:10423C00FB68DA860023FB62FB681B689B6803F053
:10424C000103012B19D1FB68DB8F9BB2002B14D01F
:10425C00FB681B68DA68FB689B6BD2B21A70FB6850
:10426C009B6B5A1CFB689A63FB68DB8F9BB2013B10
:10427C009AB2FB68DA870123FB62FEF703FA024667
:10428C007B6AD31ABA6B9A4203D8BB6BB3F1FF3F6C
:10429C0002D1BB6B002B03D1032387F82B3029E011
:1042AC00FB68DB8E9BB2002BA2D1FB68DB8F9BB231
:1042BC00002B9DD17A6AB96BF86800F0B1F803460F
:1042CC00002B06D0012387F82B30FB6820225A657F
:1042DC0010E0FB689B68002B0BD100237B61FB6813
:1042EC001B68DB687B61FB681B689B687B617B6977
:1042FC0000E000BFFB68012283F85120FB6800221C
:10430C0083F8502097F82B3018463037BD4680BDC7
:10431C0080B588B000AFF860B9603B601346FB71A4
:10432C00FEF7B0F90246BB6A9B1A3A681344FB616C
:10433C00FEF7A8F9B861394B1B685B011B0DFA69D4
:10434C0002FB03F37B6154E03B68B3F1FF3F50D0B9
:10435C00FEF798F90246BB69D31AFA699A4202D958
:10436C00FB69002B3DD1FB681B685A68FB681B6816
:10437C0022F0E0025A60FB685B68B3F5827F11D1D2
:10438C00FB689B68B3F5004F04D0FB689B68B3F5E2
:10439C00806F07D1FB681B681A68FB681B6822F0EA
:1043AC0040021A60FB689B6AB3F5005F0FD1FB6893
:1043BC001B681A68FB681B6822F400521A60FB68C1
:1043CC001B681A68FB681B6842F400521A60FB6891
:1043DC00012283F85120FB68002283F8502003232C
:1043EC0017E07B69002B01D10023FB617B69013B4A
:1043FC007B61FB681B689A68BB681340BA689A4279
:10440C000CBF01230023DBB21A46FB799A429BD1E5
:10441C00002318462037BD4680BD00BFCC000020CD
:10442C0080B586B002AFF860B9607A607B680093A3
:10443C00BB6800228021F868FFF76AFF0346002B57
:10444C0007D0FB685B6D43F02002FB685A650323C1
:10445C0000E0002318461037BD4680BD80B582B001
:10446C0000AF78607B68002B01D101233FE07B68B3
:10447C0093F83D30DBB2002B06D17B68002283F829
:10448C003C207868FDF7FAFE7B68242283F83D20F7
:10449C007B681B68DA687B681B6822F40052DA6060
:1044AC00786800F085FC7B681B681A697B681B6860
:1044BC0022F490421A617B681B685A697B681B68FE
:1044CC0022F02A025A617B681B68DA687B681B68D9
:1044DC0042F40052DA607B6800221A647B68202266
:1044EC0083F83D207B68202283F83E200023184669
:1044FC000837BD4680BD80B58AB002AFF860B960A0
:10450C003B601346FB8000237B61FB6893F83D30D6
:10451C00DBB2202B7CD1BB68002B02D0FB88002B9C
:10452C0001D1012375E0FB6893F83C30012B01D1DC
:10453C0002236EE0FB68012283F83C20FB6800221A
:10454C001A64FB68212283F83D20FEF79BF8786102
:10455C00FB68FA889A84FB68FA88DA84FB689B68A3
:10456C00B3F5805F08D1FB681B69002B04D10023D5
:10457C00FB61BB68BB6103E0BB68FB610023BB61F3
:10458C00FB68002283F83C202AE03B6800937B699F
:10459C0000228021F86800F038FA0346002B01D085
:1045AC00032336E0FB69002B0BD1BB691B881A4631
:1045BC00FB681B68C2F308025A60BB690233BB611B
:1045CC0007E0FB691A78FB681B685A60FB690133CA
:1045DC00FB61FB68DB8C9BB2013B9AB2FB68DA8413
:1045EC00FB68DB8C9BB2002BCFD13B6800937B69C3
:1045FC0000224021F86800F008FA0346002B01D095
:10460C00032306E0FB68202283F83D20002300E012
:10461C00022318462037BD4680BD80B584B000AF5C
:10462C00F860B9601346FB80FB6893F83E30DBB250
:10463C00202B1DD1BB68002B02D0FB88002B01D195
:10464C00012316E0FB6893F83C30012B01D10223C7
:10465C000FE0FB68012283F83C20FB6800221A6300
:10466C00FB881A46B968F86800F019FA034600E0AE
:10467C00022318461037BD4680BD000080B58AB0B5
:10468C0000AF78607B681B681B687B627B681B686B
:10469C00DB683B627B681B685B69FB610023BB6169
:1046AC0000237B617B6A03F00F03BB61BB69002BAA
:1046BC000DD17B6A03F02003002B08D03B6A03F07A
:1046CC002003002B03D0786800F0C9FA7BE1BB69AA
:1046DC00002B00F0B180FB6903F00103002B05D126
:1046EC003B6A03F49073002B00F0A6807B6A03F006
:1046FC000103002B0AD03B6A03F48073002B05D016
:10470C007B681B6C43F001027B681A647B6A03F0C4
:10471C000403002B0AD0FB6903F00103002B05D026
:10472C007B681B6C43F002027B681A647B6A03F0A3
:10473C000203002B0AD0FB6903F00103002B05D008
:10474C007B681B6C43F004027B681A647B6A03F081
:10475C000803002B0FD03B6A03F02003002B04D17D
:10476C00FB6903F00103002B05D07B681B6C43F045
:10477C0008027B681A647B681B6C002B00F01E819E
:10478C007B6A03F02003002B07D03B6A03F0200365
:10479C00002B02D0786800F062FA7B681B685B69BA
:1047AC0003F04003002B14BF01230023DBB27B6119
:1047BC007B681B6C03F00803002B02D17B69002B78
:1047CC0031D0786800F0A4F97B681B685B6903F052
:1047DC004003002B23D07B681B685A697B681B68DD
:1047EC0022F040025A617B689B6B002B13D07B68D4
:1047FC009B6B764A5A637B689B6B1846FEF7D2F824
:10480C000346002B16D07B689B6B5B6B7A68926BB4
:10481C00104698470EE0786800F0E3F80AE07868F4
:10482C0000F0DFF806E0786800F0DBF87B68002227
:10483C001A64C3E000BFC1E07B681B6B012B40F026
:10484C00A1807B6A03F01003002B00F09B803B6A75
:10485C0003F01003002B00F095800023FB607B68B5
:10486C001B681B68FB607B681B685B68FB60FB68F4
:10487C007B681B685B6903F04003002B4ED07B68A0
:10488C009B6B1B685B683B823B8A002B00F098801B
:10489C007B689B8D3A8A9A4280F092807B683A8A38
:1048AC00DA857B689B6B9B69202B2BD07B681B6804
:1048BC00DA687B681B6822F48072DA607B681B689C
:1048CC005A697B681B6822F001025A617B681B687D
:1048DC005A697B681B6822F040025A617B6820226F
:1048EC0083F83E207B6800221A637B681B68DA68B9
:1048FC007B681B6822F01002DA607B689B6B1846A1
:10490C00FEF715F87B689A8D7B68DB8D9BB2D31A0A
:10491C009BB21946786800F06DF851E07B689A8D6F
:10492C007B68DB8D9BB2D31A7B827B68DB8D9BB261
:10493C00002B47D07B8A002B44D07B681B68DA683D
:10494C007B681B6822F49072DA607B681B685A697A
:10495C007B681B6822F001025A617B68202283F875
:10496C003E207B6800221A637B681B68DA687B68D0
:10497C001B6822F01002DA607B8A1946786800F016
:10498C0039F81FE07B6A03F08003002B08D03B6AE8
:10499C0003F08003002B03D0786800F0F9F812E0E4
:1049AC007B6A03F04003002B0DD03B6A03F04003FD
:1049BC00002B08D0786800F03AF904E000BF02E060
:1049CC0000BF00E000BF2837BD4680BD754B000816
:1049DC0080B483B000AF786000BF0C37BD4680BC9C
:1049EC00704780B483B000AF786000BF0C37BD4611
:1049FC0080BC704780B483B000AF78600B467B807E
:104A0C0000BF0C37BD4680BC704780B584B000AF8A
:104A1C00F860B9603B601346FB712CE0BB69B3F1E5
:104A2C00FF3F28D0BB69002B07D0FDF72BFE0246B9
:104A3C003B68D31ABA699A421DD2FB681B68DA68C4
:104A4C00FB681B6822F4D072DA60FB681B685A6939
:104A5C00FB681B6822F001025A61FB68202283F874
:104A6C003D20FB68202283F83E20FB68002283F85F
:104A7C003C2003230FE0FB681B681A68BB681340DB
:104A8C00BA689A420CBF01230023DBB21A46FB79A9
:104A9C009A42C3D0002318461037BD4680BD80B45F
:104AAC0085B000AFF860B9601346FB80FB68BA684C
:104ABC009A62FB68FA889A85FB68FA88DA85FB6843
:104ACC0000221A64FB68222283F83E20FB68002235
:104ADC0083F83C20FB681B68DA68FB681B6842F4AF
:104AEC008072DA60FB681B685A69FB681B6842F0CD
:104AFC0001025A61FB681B68DA68FB681B6842F0AC
:104B0C002002DA60002318461437BD4680BC70477B
:104B1C0080B483B000AF78607B681B68DA687B6810
:104B2C001B6822F49072DA607B681B685A697B6898
:104B3C001B6822F001025A617B681B6B012B07D1A9
:104B4C007B681B68DA687B681B6822F01002DA60ED
:104B5C007B68202283F83E207B6800221A6300BF0A
:104B6C000C37BD4680BC704780B584B000AF786010
:104B7C007B685B6AFB60FB680022DA85FB680022BD
:104B8C00DA84F868FFF72DFF00BF1037BD4680BDF3
:104B9C0080B485B000AF78607B6893F83D30DBB2B1
:104BAC00212B3ED17B689B68B3F5805F14D17B6869
:104BBC001B69002B10D17B681B6AFB60FB681B8890
:104BCC001A467B681B68C2F308025A607B681B6A32
:104BDC009A1C7B681A6208E07B681B6A591C7A680D
:104BEC0011621A787B681B685A607B68DB8C9BB2FD
:104BFC00013B9BB27A681946D184002B0FD17B689C
:104C0C001B68DA687B681B6822F08002DA607B68BC
:104C1C001B68DA687B681B6842F04002DA6000238C
:104C2C0000E0022318461437BD4680BC704780B59F
:104C3C0082B000AF78607B681B68DA687B681B68A1
:104C4C0022F04002DA607B68202283F83D207868ED
:104C5C00FFF7BEFE002318460837BD4680BD80B561
:104C6C0086B000AF78607B6893F83E30DBB2222BC5
:104C7C0040F099807B689B68B3F5805F17D17B68A7
:104C8C001B69002B13D100237B617B689B6A3B6102
:104C9C007B681B685B689BB2C3F308039AB23B69E1
:104CAC001A807B689B6A9A1C7B689A6226E07B68F8
:104CBC009B6A7B6100233B617B689B68B3F5805FDB
:104CCC0007D07B689B68002B0AD17B681B69002B83
:104CDC0006D17B681B685B68DAB27B691A7008E0E6
:104CEC007B681B685B68DBB203F07F03DAB27B691D
:104CFC001A707B689B6A5A1C7B689A627B68DB8D96
:104D0C009BB2013B9BB27A681946D185002B48D1E6
:104D1C007B681B68DA687B681B6822F02002DA600B
:104D2C007B681B68DA687B681B6822F48072DA6027
:104D3C007B681B685A697B681B6822F001025A6108
:104D4C007B68202283F83E207B681B6B012B23D1D0
:104D5C007B6800221A637B681B68DA687B681B68B7
:104D6C0022F01002DA607B681B681B6803F01003EA
:104D7C00102B0AD10023FB607B681B681B68FB604F
:104D8C007B681B685B68FB60FB687B689B8D1946C6
:104D9C007868FFF72FFE02E07868FCF747F80023ED
:104DAC0002E0002300E0022318461837BD4680BD00
:104DBC0080B584B000AF78607B681B681B6923F4F6
:104DCC0040517B68DA687B681B680A431A617B6810
:104DDC009A687B681B691A437B685B691343BB60E9
:104DEC007B681B68DB6823F4B05323F00C037A68F0
:104DFC001268B9680B43D3607B681B685B6923F44A
:104E0C0040717B689A697B681B680A435A617B68AE
:104E1C001B682C4A934203D1FFF722F8F86002E09A
:104E2C00FFF70AF8F860FA6813469B0013449A00DF
:104E3C001A447B685B689B00B2FBF3F3224AA2FB2B
:104E4C0003235B091901FA6813469B0013449A006B
:104E5C001A447B685B689B00B2FBF3F21A4BA3FB12
:104E6C0002035B09642000FB03F3D31A1B013233EA
:104E7C00154AA2FB03235B0903F0F0031944FA68FB
:104E8C0013469B0013449A001A447B685B689B0092
:104E9C00B2FBF3F20C4BA3FB02035B09642000FB97
:104EAC0003F3D31A1B013233074AA2FB03235B091A
:104EBC0003F00F027B681B680A449A6000BF10372E
:104ECC00BD4680BD003801401F85EB510A220021F0
:104EDC0000F0F0B8014B1868704700BFD8000020F4
:104EEC0070B500260C4D0D4C641BA410A64209D1C4
:104EFC0000F036FD00260A4D0A4C641BA410A64295
:104F0C0005D170BD55F8043B98470136EEE755F8CE
:104F1C00043B98470136F2E77C5D00087C5D000895
:104F2C007C5D0008805D00080A44914200F1FF336B
:104F3C0000D1704710B511F8014B914203F8014FA5
:104F4C00F9D110BD03460244934200D1704703F8D7
:104F5C00011BF9E70EB46FF0004100B59CB01DAB1E
:104F6C0002900690079104910848094953F8042BC4
:104F7C000591006802A9019300F002F90022029B3E
:104F8C001A701CB05DF804EB03B07047D800002019
:104F9C000802FFFF034610B5013932B111F8014F79
:104FAC00013A03F8014B002CF7D100211A4493422B
:104FBC0000D110BD03F8011BF9E70000012B2DE90E
:104FCC00F047804601D0242B06D9FFF783FF162328
:104FDC0003600020BDE8F0870D46354F284615F8D4
:104FEC00014BE65D16F00806F8D12D2C2FD10126C9
:104FFC002C78851C002B57D0102B09D1302C07D1C5
:10500C00287800F0DF00582849D110236C7802353D
:10501C00002706F1004E0EF1FF3EBEFBF3F93846B9
:10502C0003FB19EAA4F1300CBCF1090F14D8644647
:10503C00A34222DD002F1DDB81451BD301D1A245EC
:10504C0018DB012700FB034015F8014BEAE72B2C7A
:10505C0004BF2C78851CCDE7A4F1410CBCF1190FD1
:10506C0001D8373CE4E7A4F1610CBCF1190F04D86A
:10507C00573CDDE74FF0FF37E6E7002F07DA222336
:10508C007046C8F80030002AA4D0691E05E006B1AD
:10509C004042002A9ED0002FF7D111609AE73024AD
:1050AC00002BB5D10823B3E7302CA9D00A23AFE7E6
:1050BC00495C000813460A46014602480068FFF79F
:1050CC007DBF00BFD80000202DE9F0478E688246D6
:1050DC009E420C4690461F4638D88A8912F4906F2F
:1050EC0032D0256809690133A5EB010965694B4488
:1050FC0005EB450505EBD5756D109D4238BF1D467A
:10510C00530531D5294600F061FB064650B90C23F6
:10511C004FF0FF30CAF80030A38943F04003A3815D
:10512C00BDE8F0874A462169FFF7FEFEA38923F408
:10513C00906343F08003A38126614E4426603E4673
:10514C006561A5EB0905A560BE4200D93E46324615
:10515C004146206800F0B8FAA36800209B1BA360AE
:10516C00236833442360DBE72A4600F0A3FB0646A2
:10517C000028E1D15046216900F0C0FAC7E70000D1
:10518C002DE9F04F98468B8907461B060D461446B1
:10519C009DB00ED50B6963B9402100F017FB286058
:1051AC00286120B90C233B604FF0FF30D1E0402345
:1051BC006B610023099320238DF8293030234FF0A5
:1051CC000109CDF80C80DFF8A4818DF82A30234634
:1051DC009A4613F8012B0AB1252AF9D1BAEB040B24
:1051EC000BD05B46224629463846FFF76DFF01304F
:1051FC0000F0AA80099A5A4409929AF80030002BC0
:10520C0000F0A28000234FF0FF32CDE905230AF114
:10521C00010A049307938DF853301A9354460522D0
:10522C0014F8011B514800F041FA049AD8B9D00681
:10523C0044BF20238DF85330110744BF2B238DF826
:10524C0053309AF800302A2B15D0544600204FF0DA
:10525C000A0C079A214611F8013B303B092B4ED919
:10526C00B0B1079214E0A0EB080309FA03F313435F
:10527C00A2460493D2E7039B191D1B680391002BD4
:10528C00BBBF5B4242F0020207930793B8BF049284
:10529C0023782E2B0CD163782A2B35D1039B023427
:1052AC001A1D1B680392002BB8BF4FF0FF330593F8
:1052BC00DFF8BCA003225046217800F0F7F940B18A
:1052CC004023A0EB0A0003FA00F0049B01340343D3
:1052DC00049314F8011B062226488DF8281000F0C0
:1052EC00E5F9002838D0244B1BBB039B073323F074
:1052FC00070308330393099B3344099367E70C4670
:10530C0001200CFB0232A5E700234FF00A0C1946D2
:10531C0001340593204610F8012B303A092A03D9A1
:10532C00002BC5D00591C3E7044601230CFB0121DA
:10533C00F0E703AB00932A463846104B04A9AFF3B1
:10534C000080421C0646D6D1AB895B063FF52CAFDC
:10535C0009981DB0BDE8F08F03AB00932A46384680
:10536C00064B04A900F07CF8EBE700BF495D000890
:10537C004F5D0008535D000800000000D550000888
:10538C002DE9F047164699468A680B690746934201
:10539C00B8BF1346336091F843200C46DDF82080EB
:1053AC000AB1013333602368990642BF3368023374
:1053BC003360256815F0060506D104F1190AE36877
:1053CC0032689B1AAB4228DC94F84320131E2268E7
:1053DC0018BF012392062DD44946384604F14302E6
:1053EC00C047013020D02368E56803F00603042B86
:1053FC0018BF002532684FF00006A36808BFAD1A2D
:10540C00226908BF25EAE5759342C4BF9B1AED18C3
:10541C001A34B5421AD1002008E0012352464946FD
:10542C003846C047013003D14FF0FF30BDE8F0875C
:10543C000135C4E73020E11881F843005A1C94F878
:10544C0045102244023382F84310C5E7012322465B
:10545C0049463846C0470130E6D00136D9E700004E
:10546C002DE9FF470F7E9146782F80460C469A46D1
:10547C000C9D01F1430207D8622F0AD8002F00F0CF
:10548C00D980582F00F0A48004F1420584F84270B2
:10549C003AE0A7F16303152BF6D801A151F823F0DC
:1054AC000555000819550008955400089554000836
:1054BC009554000895540008195500089554000897
:1054CC009554000895540008955400082756000878
:1054DC0049550008095600089554000895540008D1
:1054EC004956000895540008495500089554000881
:1054FC0095540008115600082B681A1D1B682A6069
:10550C0004F1420584F842300123A4E020682968A4
:10551C00060601F104030AD50E682B60002E03DA8F
:10552C002D23764284F843300A235E4819E00E6836
:10553C0010F0400F2B6018BF36B2EFE72B682068D5
:10554C00191D2960010601D51E6802E04606FBD52F
:10555C001E886F2F0CBF08230A235248002184F8A1
:10556C0043106568002DA8BF2168A560A4BF21F079
:10557C00040121600EB9002D4DD01546B6FBF3F198
:10558C0003FB1167C75D05F8017D3746BB420E462C
:10559C00F4D9082B0BD12368DE0708D52369616881
:1055AC009942DEBF302305F8013C05F1FF35521B53
:1055BC0022614B4621464046CDF800A003AAFFF7D6
:1055CC00DFFE01304CD14FF0FF3004B0BDE8F08766
:1055DC00344881F845702968236851F8046B2960B8
:1055EC001D0614D5DF0744BF43F0200323601EB90A
:1055FC00236823F0200323601023AFE7236843F0D4
:10560C00200323607823284884F84530E3E75906C3
:10561C0048BFB6B2E6E71546BBE72B682668181DEF
:10562C006169286035061B6801D5196002E07006B7
:10563C00FBD51980002315462361BAE72B6800219E
:10564C001A1D2A601D686268284600F02FF808B100
:10565C00401B606063682361002384F84330A8E733
:10566C002A46494640462369D0470130ABD02368CF
:10567C009B0713D4E068039B9842B8BF1846A4E775
:10568C000123324649464046D04701309BD0013574
:10569C00E36803995B1AAB42F2DCEBE7002504F1FB
:1056AC001906F5E75A5D00086B5D0008034610B556
:1056BC00C9B202449342184601D1002003E0047899
:1056CC0001338C42F6D110BD884210B501EB0204B7
:1056DC0002D98442234607D8431EA14208D011F8B0
:1056EC00012B03F8012FF8E7014602448A4200D14E
:1056FC0010BD13F8014D02F8014DF7E738B505461A
:10570C00002940D051F8043C0C1F002BB8BFE41802
:10571C0000F010F91C4A136833B963601460284612
:10572C00BDE8384000F00CB9A34208D92068211814
:10573C008B4201BF19685B6809182160EDE71A46B6
:10574C005B680BB1A342FAD911685018A0420BD177
:10575C0020680144501883421160E0D118685B68DE
:10576C00014411605360DAE702D90C232B60D6E7B1
:10577C00206821188B4201BF19685B6809182160E9
:10578C0063605460CBE738BD9404002070B50E4EB6
:10579C000C463168054611B900F0BCF83060214662
:1057AC00284600F0B7F8431C0AD0C41C24F00304AC
:1057BC00A04207D0211A284600F0ACF8013001D1E4
:1057CC004FF0FF34204670BD980400202DE9F041C5
:1057DC00CD1C25F0030508350C2D38BF0C25002DEC
:1057EC00074601DBA94205D90C2300263B60304655
:1057FC00BDE8F0812E4E00F09DF833681C4634BB9A
:10580C0029463846FFF7C2FF431C04464DD1346885
:10581C002646002E40D123683146384604EB030857
:10582C0000F078F880453AD1216803356D1A25F0DF
:10583C00030508350C2D38BF0C2538462946FFF7D3
:10584C00A5FF01302BD023682B4423600EE0226887
:10585C00521B1ED40B2A16D96119A342256018BFFE
:10586C005960636808BF316062514B60384604F17F
:10587C000B0600F065F826F00706231DF21AB6D0C9
:10588C009B1BA350B3E76268A3420CBF32605A6003
:10589C00ECE723466468B2E734467668B9E70C2334
:1058AC0038463B6000F04CF8A1E72560DEE700BF0E
:1058BC00940400202DE9F041804614460E4621B98F
:1058CC001146BDE8F041FFF781BF2AB9FFF716FF7B
:1058DC0025462846BDE8F08100F038F8844207469A
:1058EC0002D8B4EB500F12D821464046FFF76EFF9A
:1058FC0005460028EDD0BC422246314628BF3A4628
:10590C00FFF712FB31464046FFF7F8FEE1E735465C
:10591C00DFE7000038B50023054D044608462B6030
:10592C00FCF7F6FD431C02D12B6803B1236038BD94
:10593C009C040020014800F011B800BFA004002016
:10594C00014800F00CB800BFA004002051F8043C42
:10595C00181F002BBCBF0B58C018704770477047FE
:10596C00F8B500BFF8BC08BC9E467047F8B500BF40
:08597C00F8BC08BC9E46704710
:10598400210000002D5F2D00302E31382047454C7A
:10599400000000003A200000000000004000000069
:1059A40014000000540000002020204D5A414420DF
:1059B40056415221000000002020202020202D5F8D
:1059C4002D0000004754584F565420444149434148
:1059D400444F542100000000230000002323000052
:1059E4007B226F7065726174696F6E547970652281
:1059F4003A22636865636B222C22636F6E74656E52
:105A040074223A7B227465726D696E616C4944221A
:105A14003A2231363435323239383232343038334E
:105A240039222C226669726D7761726556657273CC
:105A3400696F6E223A256C787D7D000061742B714C
:105A440068747470706F73743D25642C38302C380E
:105A5400300D0A004F4B00004D4147540000000038
:105A64004552524F520000002B514D544F50454E59
:105A74003A20302C300000002B514D544F50454EED
:105A84003A20302C320000002B514D54000000000D
:105A940041542B514D5450554245583D302C302CD7
:105AA400302C302C226C6966746F7330383736357D
:105AB400353436373839222C25640D0A00000000AD
:105AC4003136352E32322E32352E31390000000077
