:020000040800F2
:10C000000050002039E600088DE4000893E40008A1
:10C01000A1E40008A7E40008ADE400080000000067
:10C02000000000000000000000000000B3E4000871
:10C03000BFE4000800000000CBE40008D7E40008DB
:10C0400081E6000881E6000881E6000881E6000834
:10C0500081E6000881E6000881E6000881E6000824
:10C0600081E6000881E6000881E6000881E6000814
:10C0700081E6000881E6000881E6000881E6000804
:10C0800081E6000881E6000881E6000881E60008F4
:10C0900081E6000881E6000881E6000881E60008E4
:10C0A00081E6000881E6000881E6000881E60008D4
:10C0B00081E6000881E6000881E6000881E60008C4
:10C0C00081E6000881E6000881E6000881E60008B4
:10C0D00081E60008E5E4000881E6000881E6000842
:10C0E00081E6000881E6000881E600080000000003
:10C0F0000000000000000000000000000000000040
:0CC1000000000000000000005FF808F1E3
:10C10C0010B5054C237833B9044B13B10448AFF385
:10C11C0000800123237010BD3C01002000000000B2
:10C12C00901B010808B5034B1BB103490348AFF33F
:10C13C00008008BD0000000040010020901B010899
:10C14C00034613F8012B002AFBD1181A013870474B
:10C15C0080B582B000AF03460A46FB711346BB7133
:10C16C0000F0DEFC4E49012000F038FDFA79BB7975
:10C17C001146184600F0EAFC012000F058FD494930
:10C18C00022000F02BFDBB790133DBB2FA791146AA
:10C19C00184600F0DBFC022000F049FD4249032068
:10C1AC0000F01CFDBB790233DBB2FA79114618465C
:10C1BC0000F0CCFC032000F03AFD3C49042000F0D8
:10C1CC000DFDBB790333DBB2FA791146184600F04A
:10C1DC00BDFC042000F02BFD3549052000F0FEFCD1
:10C1EC00BB790533DBB2FA791146184600F0AEFC88
:10C1FC00052000F01CFDBB790633DBB2FA79114641
:10C20C00184600F0A3FC042000F011FD294906207B
:10C21C0000F0E4FCBB790733DBB2FA79114618461F
:10C22C0000F094FC062000F002FDBB790833DBB271
:10C23C00FA791146184600F089FC042000F0F7FC4E
:10C24C001D49072000F0CAFCBB790933DBB2FA792F
:10C25C001146184600F07AFC072000F0E8FC17495C
:10C26C00082000F0BBFCBB790A33DBB2FA7911462B
:10C27C00184600F06BFC082000F0D9FCBB790B339E
:10C28C00DBB2FA791146184600F060FC042000F08D
:10C29C00CEFC0B4800F0D8FC00BF0837BD4680BD73
:10C2AC000800002010000020680000202000002062
:10C2BC0030000020700000205800002038000020C2
:10C2CC00A81B010880B582B000AF03460A46FB717B
:10C2DC001346BB7100F024FC4849012000F07EFCA1
:10C2EC00FA79BB791146184600F030FC012000F0B9
:10C2FC009EFC4349022000F071FCBB790133DBB298
:10C30C00FA791146184600F021FC022000F08FFC4F
:10C31C003C49032000F062FCBB790233DBB2FA79B2
:10C32C001146184600F012FC032000F080FCBB798B
:10C33C000333DBB2FA791146184600F007FC0220F1
:10C34C0000F075FC3049042000F048FCBB79043344
:10C35C00DBB2FA791146184600F0F8FB042000F025
:10C36C0066FC2A49052000F039FCBB790533DBB2A9
:10C37C00FA791146184600F0E9FB052000F057FC4D
:10C38C002349062000F02AFCBB790633DBB2FA798C
:10C39C001146184600F0DAFB062000F048FCBB7989
:10C3AC000833DBB2FA791146184600F0CFFB0220B5
:10C3BC0000F03DFC1749072000F010FCBB79093355
:10C3CC00DBB2FA791146184600F0C0FB072000F0EA
:10C3DC002EFCBB790A33DBB2FA791146184600F011
:10C3EC00B5FB022000F023FC022000F020FC0A48E0
:10C3FC0000F02AFC00BF0837BD4680BD300000208D
:10C40C002000002040000020000000200800002038
:10C41C003800002070000020A81B010880B582B0F5
:10C42C0000AF03460A46FB711346BB7100F078FB64
:10C43C005949012000F0D2FBFA79BB791146184614
:10C44C0000F084FB012000F0F2FB5449022000F0C4
:10C45C00C5FBBB790133DBB2FA791146184600F003
:10C46C0075FB022000F0E3FB4D49032000F0B6FB06
:10C47C00BB790233DBB2FA791146184600F066FB41
:10C48C00032000F0D4FB4749042000F0A7FBBB7944
:10C49C000333DBB2FA791146184600F057FB04203F
:10C4AC0000F0C5FB4049052000F098FBBB79043334
:10C4BC00DBB2FA791146184600F048FB052000F073
:10C4CC00B6FB3A49062000F089FBBB790533DBB299
:10C4DC00FA791146184600F039FB062000F0A7FB4C
:10C4EC003349072000F07AFBBB790733DBB2FA79CA
:10C4FC001146184600F02AFB072000F098FBBB7988
:10C50C000833DBB2FA791146184600F01FFB032002
:10C51C0000F08DFB2749082000F060FBBB79093344
:10C52C00DBB2FA791146184600F010FB082000F037
:10C53C007EFBBB790A33DBB2FA791146184600F060
:10C54C0005FB032000F073FBBB790B33DBB2FA79EC
:10C55C001146184600F0FAFA062000F068FBBB7989
:10C56C000C33DBB2FA791146184600F0EFFA0220D0
:10C57C0000F05DFBBB790233DAB2FB790133DBB23D
:10C58C001946104600F0E2FA0B4800F05DFB00BFC4
:10C59C000837BD4680BD00BF600000203800002079
:10C5AC0020000020180000207800002058000020F7
:10C5BC003000002070000020B01B010880B582B054
:10C5CC0000AF03460A46FB711346BB7100F0A8FA94
:10C5DC003949012000F002FBFA79BB791146184663
:10C5EC0000F0B4FA012000F022FB3449022000F0E4
:10C5FC00F5FABB790133DBB2FA791146184600F033
:10C60C00A5FA022000F013FB2D49032000F0E6FAF6
:10C61C00BB790233DBB2FA791146184600F096FA70
:10C62C00032000F004FB2749042000F0D7FABB7963
:10C63C000333DBB2FA791146184600F087FA04206E
:10C64C0000F0F5FA022000F0F2FA1F49052000F084
:10C65C00C5FABB790533DBB2FA791146184600F0FE
:10C66C0075FA052000F0E3FA1849062000F0B6FA36
:10C67C00BB790633DBB2FA791146184600F066FA3C
:10C68C00062000F0D4FA1249072000F0A7FABB7973
:10C69C000733DBB2FA791146184600F057FA072037
:10C6AC0000F0C5FA022000F0C2FA0A4800F0CCFAF9
:10C6BC0000BF0837BD4680BD800000202000002050
:10C6CC00700000206000002058000020780000203E
:10C6DC0030000020A81B010880B582B000AF0346D3
:10C6EC000A46FB711346BB7100F01AFA3A49012055
:10C6FC0000F074FAFA79BB791146184600F026FA64
:10C70C00012000F094FA3549022000F067FABB7959
:10C71C000133DBB2FA791146184600F017FA022001
:10C72C0000F085FA2E49032000F058FABB79023349
:10C73C00DBB2FA791146184600F008FA032000F033
:10C74C0076FA2849042000F049FABB790333DBB2AE
:10C75C00FA791146184600F0F9F9042000F067FA4E
:10C76C002149052000F03AFABB790433DBB2FA799F
:10C77C001146184600F0EAF9052000F058FA1B495A
:10C78C00062000F02BFABB790533DBB2FA7911469F
:10C79C00184600F0DBF9062000F049FA144907208E
:10C7AC0000F01CFABB790633DBB2FA791146184655
:10C7BC0000F0CCF9072000F03AFABB790733DBB272
:10C7CC00FA791146184600F0C1F90A4800F03CFA13
:10C7DC0000BF0837BD4680BD28000020780000202F
:10C7EC0048000020180000205000002060000020AD
:10C7FC0020000020A81B010880B582B000AF0346C2
:10C80C000A46FB711346BB7100F08AF93A490120C4
:10C81C0000F0E4F9FA79BB791146184600F096F964
:10C82C00012000F004FA3549022000F0D7F9BB7959
:10C83C000133DBB2FA791146184600F087F9022071
:10C84C0000F0F5F92E49032000F0C8F9BB7902334A
:10C85C00DBB2FA791146184600F078F9032000F0A3
:10C86C00E6F92849042000F0B9F9BB790333DBB2AF
:10C87C00FA791146184600F069F9042000F0D7F94E
:10C88C00BB790433DBB2FA791146184600F05EF935
:10C89C00022000F0CCF9BB790533DBB2FA791146F2
:10C8AC00184600F053F9012000F0C1F91649052093
:10C8BC0000F094F9BB790633DBB2FA7911461846CD
:10C8CC0000F044F9052000F0B2F91049062000F000
:10C8DC0085F9BB790733DBB2FA791146184600F0BB
:10C8EC0035F9062000F0A3F9094800F0ADF900BFB6
:10C8FC000837BD4680BD00BF180000202000002076
:10C90C00380000204800002078000020580000204B
:10C91C00A81B010880B582B000AF03460A46FB7124
:10C92C001346BB7100F0FCF83449012000F056F9B5
:10C93C00FA79BB791146184600F008F9012000F08D
:10C94C0076F92F49022000F049F9BB790133DBB2AB
:10C95C00FA791146184600F0F9F8022000F067F950
:10C96C002849032000F03AF9BB790233DBB2FA799B
:10C97C001146184600F0EAF8032000F058F902209E
:10C98C0000F055F9BB790333DBB2FA79114618463E
:10C99C0000F0DCF81C49052000F020F9BB790433C9
:10C9AC00DBB2FA791146184600F0D0F8052000F0F9
:10C9BC003EF91649062000F011F9BB790533DBB2BC
:10C9CC00FA791146184600F0C1F8062000F02FF94C
:10C9DC000F49072000F002F9BB790633DBB2FA7974
:10C9EC001146184600F0B2F8072000F020F909486B
:10C9FC0000F02AF900BF0837BD4680BD300000208A
:10CA0C002000002040000020000000200800002032
:10CA1C0038000020BC1B010880B582B000AF034673
:10CA2C00FB71384AFB791370374B08221A70374B5D
:10CA3C0000221A70334B1B78012B07D9334B1B7810
:10CA4C0043F00803DAB2314B1A7006E02F4B1B7817
:10CA5C0043F00403DAB22D4B1A7000F093F9322034
:10CA6C0001F08AFE284B1B78184600F051F94FF460
:10CA7C007A7001F081FE302000F038F941F2941008
:10CA8C0000F0A8F9302000F031F941F2941000F0D8
:10CA9C00A1F9302000F02AF941F2941000F09AF933
:10CAAC00202000F023F9642000F094F9174B1B7838
:10CABC0043F02003DBB2184600F0DBF8144B0422E1
:10CACC001A7000F075F800F02BF8124B02221A7055
:10CADC00104B1B7843F00403DBB2184600F0C9F886
:10CAEC0041F2941000F076F90B49002000F076F832
:10CAFC000A49012000F072F800F01DF800BF083759
:10CB0C00BD4680BD5B0100205C0100205801002067
:10CB1C00590100205A0100208800002090000020BC
:10CB2C0080B500AF012000F0A4F84FF4FA6000F0DB
:10CB3C0051F900BF80BD80B500AF022000F099F81C
:10CB4C004FF4FA6000F046F900BF80BD90B587B095
:10CB5C0000AF03460A46FB711346BB71124B07F13B
:10CB6C0008040FCB84E80F00104B1B78BA799A425B
:10CB7C0003D30E4B1B78013BBB71BB799B00183365
:10CB8C003B4453F8103CDAB2FB791344DBB25BB292
:10CB9C0063F07F035BB2DBB2184600F06AF800BFAB
:10CBAC001C37BD4690BD00BFC01B01085B010020B7
:10CBBC0080B500AF084B1B7843F00403DAB2064B88
:10CBCC001A70054B1B7843F00803DBB2184600F0D3
:10CBDC0050F800BF80BD00BF5901002080B584B063
:10CBEC0000AF03463960FB71FB7903F00703FB715F
:10CBFC00FB79DB005BB243F040035BB2DBB218465F
:10CC0C0000F037F80023FB6009E0FB683A68134436
:10CC1C001B78184600F03BF8FB680133FB60FB689F
:10CC2C00072BF2DD00BF00BF1037BD4680BD80B5BD
:10CC3C0082B000AF0346FB71FB79184600F027F871
:10CC4C0000BF0837BD4680BD80B582B000AF7860AC
:10CC5C0006E07B685A1C7A601B78184600F017F8BF
:10CC6C007B681B78002BF4D100BF00BF0837BD4692
:10CC7C0080BD80B582B000AF0346FB71FB7900210B
:10CC8C00184600F012F800BF0837BD4680BD80B5CD
:10CC9C0082B000AF0346FB71FB790121184600F00E
:10CCAC0004F800BF0837BD4680BD80B584B000AF26
:10CCBC0003460A46FB711346BB71FB7923F00F0345
:10CCCC00FB73FB791B01BB73FA7BBB791343DBB2A0
:10CCDC00184600F00BF8BA7BBB791343DBB218464D
:10CCEC0000F004F800BF1037BD4680BD80B582B09F
:10CCFC0000AF0346FB71FB79184600F009F8FB798D
:10CD0C00184600F021F800BF0837BD4680BD000072
:10CD1C0080B586B002AF0346FB71094B1A78FB79DC
:10CD2C001343DBB2FB7307F10F020A2300930123B9
:10CD3C004E21044802F0FCF900BF1037BD4680BDFF
:10CD4C005C0100205803002080B582B000AF034680
:10CD5C00FB71FB7943F00403DBB21846FFF7D8FFF5
:10CD6C00142000F037F8FB7923F00403DBB21846EB
:10CD7C00FFF7CEFF142000F02DF800BF0837BD469A
:10CD8C0080BD000080B400AF104BDB680F4A23F06D
:10CD9C008073D3600D4BDB680C4A43F08073D36017
:10CDAC000B4B1B680A4A23F001031360084B1B68EA
:10CDBC00074A43F001031360054B00225A6000BF81
:10CDCC0000BF00BF00BFBD4680BC7047F0ED00E067
:10CDDC00001000E080B487B000AF78600D4B1B688A
:10CDEC000D4AA2FB03239A0C7B6802FB03F37B61C5
:10CDFC000A4B5B683B61094B5A683B69D31AFB6071
:10CE0C00FB687A699A42F6D800BF00BF1C37BD4652
:10CE1C0080BC7047CC00002083DE1B43001000E078
:10CE2C0080B582B000AF7860114B1B687B2B02DDA4
:10CE3C000F4B00221A600E4B1B680E4AD35C212B41
:10CE4C000ED00B4B1B680133094A1360084B1B684F
:10CE5C00084A134401221946074803F0CEFC02E0AD
:10CE6C00064B01221A7000BF0837BD4680BD00BFBB
:10CE7C005403002070020020040400206C010020E8
:10CE8C0080B586B000AF7860396005237B6108E01F
:10CE9C007B697A6813441B783C2B07D07B69013380
:10CEAC007B617A693B689A42F2DB00E000BF7B69E8
:10CEBC0001337A6813441B783B737B6902337A68BD
:10CECC0013441B787B737B6903337A6813441B7898
:10CEDC00BB733B7B452B09D17B7B522B06D1BB7B98
:10CEEC00412B03D14FF0006000F07BFC07F10C03E9
:10CEFC00184604F0DBF838613B6918461837BD4614
:10CF0C0080BD80B588B000AFF860B9607A60052349
:10CF1C00FB6108E0FB69FA6813441B783C2B07D0D3
:10CF2C00FB690133FB61FA69BB689A42F2DB00E0F2
:10CF3C0000BFFB69BB6108E0BB69FA6813441B784E
:10CF4C002C2B07D0BB690133BB61BA69BB689A4211
:10CF5C00F2DB00E000BFBB697B6108E07B69FA682B
:10CF6C0013441B78212B07D07B6901337B617A69D1
:10CF7C00BB689A42F2DB00E000BFBB690133FA6880
:10CF8C00D1187A69BB69D31A013B1A46786804F048
:10CF9C00FEF800BF2037BD4680BD000080B588B0CC
:10CFAC0000AF78607868FFF7CBF80346BB611C498B
:10CFBC00786804F0FFF878617021786904F0DAF889
:10CFCC0038613A697B68D31AFB60BB690433FB6137
:10CFDC000BE0FB69043B7A681A44FB6979680B44E3
:10CFEC0012781A70FB69013BFB61FA69FB689A4283
:10CFFC00EFDC2221786904F0BDF803460133BB60F5
:10D00C00BB6808491A460B4603CB1060516019885F
:10D01C009B781181937200BF2037BD4680BD00BF45
:10D02C00001C01080C1C010880B594B000AF72B64E
:10D03C0000BFC54BC54A9A6062B600BF01F01CFB2D
:10D04C0000F04AFA00F046FB00F08CFA00F0B8FA57
:10D05C0000F0ECFA00F014FB0220FFF7DDFC00F00E
:10D06C00F6FE002387F84F30B94B1B68FB63FA6B55
:10D07C00B849B94804F05EF8B84B1B68B84A134479
:10D08C0001221946B74803F0B8FB01F06BFB0346CD
:10D09C00B54A136002210020FFF7C0F9012001F00E
:10D0AC0081F897F84F30012B17D101F05BFB02464A
:10D0BC00BB6CD31A44F61F6293420ED90421002094
:10D0CC00FFF70AFB40F6B83001F056FB02210020B6
:10D0DC00FFF7A4F9002387F84F3001F043FB024619
:10D0EC00A14B1B68D31AA14A934227D997F84F300A
:10D0FC00002B23D19E4B1A689E4B1B689A4203DB74
:10D10C004FF0006000F06DFB9348FFF719F80346F1
:10D11C00184600F083FB9048FFF712F803469AB2CA
:10D12C0032238D498F4803F0D6FA01F01BFB0346DE
:10D13C008D4A13608F4B1B688D4A13608E4B1B7886
:10D14C00002B00F05381854B1B6819468448FFF770
:10D15C0097FEB863BB6BB3F5967F80F21581BB6B02
:10D16C00B3F5917F0DDCBB6BCA2B25D0BB6BCA2BE7
:10D17C0000F30A81BB6BC82B43D0BB6BC92B46D0C9
:10D18C0002E1BB6BA3F22313082B00F2FD8001A27A
:10D19C0052F823F093D2000895D3000863D200080C
:10D1AC0095D3000895D30008C3D20008F3D2000829
:10D1BC0095D3000823D300080221704801F05AFED1
:10D1CC0001F094F903210020FFF7F8F96C48FFF700
:10D1DC00E5FE6B48FEF7B4FF03461A46694B1A602E
:10D1EC00684B1B68184600F019FB322001F0C4FA9A
:10D1FC00644B1B689AB20A2361495A4803F06BFAD4
:10D20C00DAE05C4B1B6801335A4A1360D4E002210C
:10D21C005A4801F02FFE514B1B683A1D19465048D5
:10D22C00FFF76FFE00210020FFF774FB3B1D184633
:10D23C00FFF70AFD4FF4FA6001F09EFA022100207C
:10D24C00FFF7ECF8002387F84F30FF2200214C4801
:10D25C0003F068FFB0E0FFF763FC00210020FFF74C
:10D26C0075FC00210020FEF773FF01F06FF94FF4FD
:10D27C007A7001F081FA02210020FFF7CFF8002329
:10D28C0087F84F3098E0FFF74BFC00210020FFF7A8
:10D29C005DFC00210020FFF715F801F057F94FF461
:10D2AC007A7001F069FA02210020FFF7B7F8002329
:10D2BC0087F84F3080E0FFF733FC00210020FFF7A8
:10D2CC0045FC3B1D1846FFF7BFFC01F03FF940F64B
:10D2DC00B83001F051FA02210020FFF79FF800232B
:10D2EC0087F84F3068E0FFF71BFC00210020FFF7A8
:10D2FC002DFC3B1D1846FFF7A7FC01F027F940F663
:10D30C00B83001F039FA02210020FFF787F800232A
:10D31C0087F84F3050E0FFF703FC00210020FFF7A7
:10D32C0015FC3B1D1846FFF78FFC01F00FF940F67A
:10D33C00B83001F021FA02210020FFF76FF800232A
:10D34C0087F84F3038E000BF00ED00E000C0000867
:10D35C00F0BF0008181C0108F00200205403002044
:10D36C00700200200404002060010020BFD40100E2
:10D37C0064010020980000206C010020000C01408A
:10D38C007001002068010020802200214C4803F02D
:10D39C00C9FE3B1D32220021184603F0C3FE494B47
:10D3AC0000221A70484B00221A6002210020FFF75D
:10D3BC0035F8002387F84F3080220021404803F0D5
:10D3CC00B1FE3B1D32220021184603F0ABFE3D4B53
:10D3DC0000221A703C4B00221A603B4B1B68384AE7
:10D3EC00134401221946394803F007FA384800F073
:10D3FC006FFD034687F8373097F83730012B7FF4F1
:10D40C0050AE97F84F30002B7FF44BAE002387F8CB
:10D41C004730002387F846302D48FEF791FE03462F
:10D42C001A462C4B1A6000233B6413E0284A3B6CD1
:10D43C0013441B787B2B05D0254A3B6C13441B787B
:10D44C007D2B04D197F84730013387F847303B6C7C
:10D45C0001333B641F4B1B6804333A6C9A42E5DD85
:10D46C0097F84730042B07D0012387F84630FF226A
:10D47C000021174803F056FE97F84630002B7FF436
:10D48C0010AE01F085F803210020FFF7B5F9114B20
:10D49C001B68184600F0C2F9322001F06DF90D4BF3
:10D4AC001B689AB264230A49084803F014F9012353
:10D4BC0087F84F3001F056F90346BB64F1E500BF25
:10D4CC00700200206C010020540300200404002092
:10D4DC00700100206801002080B590B000AF07F10A
:10D4EC00180328220021184603F01CFE3B1D0022C5
:10D4FC001A605A609A60DA601A610123BB614FF4BA
:10D50C008033FB6100233B620123BB6202237B63FC
:10D51C004FF48033BB634FF4E013FB6307F1180344
:10D52C00184602F0A5F90346002B01D000F054F97F
:10D53C000F237B600223BB600023FB604FF48063EE
:10D54C003B6100237B613B1D0221184602F012FC5B
:10D55C000346002B01D000F03FF900BF4037BD4619
:10D56C0080BD000080B500AF124B134A1A60114BFE
:10D57C00124A5A600F4B00229A600E4B0022DA605E
:10D58C000C4B4FF480421A610A4B00225A61094B32
:10D59C0000229A61074B0022DA61064B00221A62C4
:10D5AC00044801F081FC0346002B01D000F014F973
:10D5BC0000BF80BD5803002000540040A08601002D
:10D5CC0080B500AF174B184A1A60164B4FF4827295
:10D5DC005A60144B00229A60124B0022DA60114BF5
:10D5EC0000221A610F4B00225A610E4B4FF400724D
:10D5FC009A610C4B1822DA610A4B00221A62094B11
:10D60C0000225A62074B00229A62064B0A22DA6207
:10D61C00044802F047FD0346002B01D000F0DCF873
:10D62C0000BF80BDAC0300200030014080B500AFCE
:10D63C00114B124A1A60104B4FF4E1325A600E4BE8
:10D64C0000229A600C4B0022DA600B4B00221A610C
:10D65C00094B0C225A61084B00229A61064B00229E
:10D66C00DA61054802F0EAFF0346002B01D000F016
:10D67C00B3F800BF80BD00BF040400200038014097
:10D68C0080B500AF114B124A1A60104B4FF4E132C7
:10D69C005A600E4B00229A600C4B0022DA600B4B46
:10D6AC0000221A61094B0C225A61084B00229A6124
:10D6BC00064B0022DA61054802F0C0FF0346002B3E
:10D6CC0001D000F089F800BF80BD00BF48040020E5
:10D6DC000044004080B588B000AF07F11003002271
:10D6EC001A605A609A60DA60374B9B69364A43F08D
:10D6FC0010039361344B9B6903F01003FB60FB68D0
:10D70C00314B9B69304A43F0200393612E4B9B694C
:10D71C0003F02003BB60BB682B4B9B692A4A43F088
:10D72C0004039361284B9B6903F004037B607B68C3
:10D73C00254B9B69244A43F008039361224B9B6958
:10D74C0003F008033B603B6800224FF400511F4874
:10D75C0001F078FB002210211D4801F073FB002220
:10D76C0003211C4801F06EFB4FF400533B61012375
:10D77C007B610023BB610223FB6107F11003194697
:10D78C00124801F0DBF910233B6101237B6100237C
:10D79C00BB610223FB6107F1100319460C4801F031
:10D7AC00CDF903233B6101237B610023BB61022381
:10D7BC00FB6107F110031946064801F0BFF900BFE1
:10D7CC002037BD4680BD00BF001002400010014054
:10D7DC0000080140000C014080B400AF72B600BFDD
:10D7EC00FEE780B586B000AF78607B6804331B68B9
:10D7FC007B6100F057FF01F0A1FF7B693B6172B6C2
:10D80C0000BF7B681B68FB60FB6883F3088800BF64
:10D81C003B69984700BF1837BD4680BD80B582B0C4
:10D82C0000AF78607A680849084803F083FC6423E9
:10D83C002E220649064802F04EFF1E2000F09CFFE7
:10D84C0000BF0837BD4680BDC81C01089C000020E5
:10D85C000404002080B586B002AF0346FB71FB794F
:10D86C003B7307F1080207F10C010A230093012313
:10D87C00034802F09BFC3B7A18461037BD4680BD2E
:10D88C00AC03002080B582B000AF03460A46FB71A2
:10D89C001346BB7100221021094801F0D3FAFB7921
:10D8AC001846FFF7D7FFBB791846FFF7D3FF0122C5
:10D8BC001021034801F0C6FA00BF0837BD4680BDF1
:10D8CC000008014080B584B000AF0346FB71002214
:10D8DC0010210B4801F0B6FAFB791846FFF7BAFF96
:10D8EC000020FFF7B7FF0346FB7301221021044809
:10D8FC0001F0A8FAFB7B18461037BD4680BD00BF6F
:10D90C000008014080B582B000AF03460A46FB71A7
:10D91C001346BB71FB795B00DBB203F07E03FB713A
:10D92C00BA79FB7911461846FFF7ACFF00BF0837F0
:10D93C00BD4680BD80B584B000AF0346FB71FB795A
:10D94C005B005BB203F07E035BB263F07F035BB200
:10D95C00FB71FB791846FFF7B5FF0346FB73FB7BA6
:10D96C0018461037BD4680BD80B582B000AF034667
:10D97C000A46FB711346BB71FB791846FFF7DAFFB9
:10D98C0003461A46BB791343DAB2FB7911461846A3
:10D99C00FFF7B8FF00BF0837BD4680BD80B582B029
:10D9AC0000AF03460A46FB711346BB71FB79184660
:10D9BC00FFF7C0FF03465AB297F90630DB435BB260
:10D9CC0013405BB2DAB2FB7911461846FFF79AFFA7
:10D9DC0000BF0837BD4680BD80B586B002AF034698
:10D9EC003960FB7107210D20FFF78CFF3B68FA793A
:10D9FC001A7007F10C0300933B68012239680C2064
:10DA0C0000F00FF80346FB73FB7B002B02D1BB89A4
:10DA1C00102B01D00223FB73FB7B18461037BD463D
:10DA2C0080BD90B587B000AFB9607B600346FB73D7
:10DA3C001346BB730223FB750023BB7500237B7558
:10DA4C00FB7B0C2B06D00E2B09D11223BB7510239C
:10DA5C007B7505E07723BB7530237B7500E000BF39
:10DA6C00BB7D63F07F03DBB219460220FFF74AFF50
:10DA7C0080210420FFF792FF80210A20FFF774FF1A
:10DA8C0000210120FFF73EFF00237B820AE07B8A06
:10DA9C00BA6813441B7819460920FFF733FF7B8AB9
:10DAAC0001337B82BB7B9BB27A8A9A42EFD3FB7B9E
:10DABC0019460120FFF726FFFB7B0C2B03D180219D
:10DACC000D20FFF751FF4FF4FA637B820420FFF720
:10DADC0031FF03463B757B8A013B7B827B8A002BA3
:10DAEC000AD03B7D03F00103002B05D13A7D7B7DF1
:10DAFC001340DBB2002BE9D080210D20FFF74EFF45
:10DB0C007B8A002B57D00620FFF714FF034603F047
:10DB1C001B03002B4DD10023FB753A7DBB7D1340BD
:10DB2C00DBB203F00103002B01D00123FB75FB7B5F
:10DB3C000C2B40D10A20FFF7FDFE03463B750C2051
:10DB4C00FFF7F8FE034603F007037B747B7C002B86
:10DB5C000BD03B7D013B9BB2DB009AB27B7C9BB232
:10DB6C0013449AB2BB6A1A8005E03B7D9BB2DB0082
:10DB7C009AB2BB6A1A803B7D002B01D101233B7505
:10DB8C003B7D102B01D910233B7500237B820AE0CF
:10DB9C007B8A7A68D4180920FFF7CCFE03462370E1
:10DBAC007B8A01337B823B7D9BB27A8A9A42EFD38C
:10DBBC0001E00223FB75FB7D18461C37BD4690BD6A
:10DBCC0080B586B002AF786000237B7300210D20F6
:10DBDC00FFF798FE7B6893221A707B680133202232
:10DBEC001A7007F10A0300937B68022279680C20F3
:10DBFC00FFF717FF0346FB73FB7B002B18D10023A9
:10DC0C00BB7309E0BB7B7A6813441A787B7B534067
:10DC1C007B73BB7B0133BB73BB7B032BF2D9BB7B0D
:10DC2C007A6813441B787A7B9A4201D00223FB73E7
:10DC3C00FB7B18461037BD4680BD90B587B000AF52
:10DC4C00F8600B467A60FB7204210520FFF7A6FEF4
:10DC5C0080210A20FFF788FE0023FB750AE0FB7D7C
:10DC6C00FA6813441B7819460920FFF74BFEFB7D1D
:10DC7C000133FB75FA7DFB7A9A42F0D30321012024
:10DC8C00FFF740FEFF23FB750520FFF753FE03460D
:10DC9C00BB75FB7D013BFB75FB7D002B04D0BB7D75
:10DCAC0003F00403002BEFD02220FFF743FE0346C2
:10DCBC001A467B681A707B685C1C2120FFF73AFEC1
:10DCCC000346237000BF1C37BD4690BD80B588B09D
:10DCDC0002AF786093233B7270237B720023FB7539
:10DCEC000CE0FB7D7A681A44FB7D02331278183302
:10DCFC003B4403F8102CFB7D0133FB75FB7D042B9F
:10DD0C00EFD907F10803DA1D07F1080307211846BC
:10DD1C00FFF793FF07F1080207F1080107F112035F
:10DD2C000093134609220C20FFF77BFE03467B75FC
:10DD3C007B7D002B05D17B8A182B02D13B7ABB75DE
:10DD4C0001E00023BB75BB7D18461837BD4680BD6E
:10DD5C0080B58AB002AFBA607B600346FB730B469A
:10DD6C00BB73FB7B3B74BB7B7B740023BB770CE0EE
:10DD7C00BB7FBA681A44BB7F0233127820333B4412
:10DD8C0003F8102CBB7F0133BB77BB7F052BEFD97E
:10DD9C000023BB770CE0BB7F7A681A44BB7F083347
:10DDAC00127820333B4403F8102CBB7F0133BB7734
:10DDBC00BB7F032BEFD907F1100207F1100107F11C
:10DDCC001C03009313460C220E20FFF72AFE034679
:10DDDC00FB77FB7F002B07D10820FFF7ABFD034639
:10DDEC0003F00803002B01D10223FB77FB7F1846BD
:10DDFC002037BD4680BD80B586B002AF0346396082
:10DE0C00FB713B6830221A703B680133FA791A7047
:10DE1C003B6802331A4602213868FFF70EFF07F100
:10DE2C000C0300933B68042239680C20FFF7F9FDC2
:10DE3C000346FB73FB7B002B02D1BB89902B01D0DB
:10DE4C000223FB73FB7B18461037BD4680BD80B5A3
:10DE5C0000AF00F020F88D212A20FFF753FD3E2162
:10DE6C002B20FFF74FFD1E212D20FFF74BFD00212E
:10DE7C002C20FFF747FD70212620FFF743FD4021A2
:10DE8C001520FFF73FFD3D211120FFF73BFD00F072
:10DE9C000AF800BF80BD80B500AF0F210120FFF74D
:10DEAC0031FD00BF80BD80B582B000AF1420FFF7FC
:10DEBC0041FD0346FB71FB7903F00303002B03D1F7
:10DECC0003211420FFF750FD00BF0837BD4680BD6D
:10DEDC00F0B5F1B00EAF07F5C473A3F5B2731860CB
:10DEEC00AD4A07F5BE7392E803001860043319803D
:10DEFC00002387F88531002387F8843197F8853122
:10DF0C00002B3BD1FFF7A3FF07F5B673194626206C
:10DF1C00FFF762FD0346002B30D107F5B6731846A8
:10DF2C00FFF74EFE0346002B28D197F86C311946AB
:10DF3C0097F86D311C4697F86E3197F86F2107F101
:10DF4C006C000192009323460A46944903F0F2F8C0
:10DF5C0007F16C031846FEF7F3F8034687F8863191
:10DF6C0097F8862107F16C0107F5C473A3F5B2731A
:10DF7C00186803F0C9F8012387F88531142000F0E4
:10DF8C00FBFBFFF764FF97F88531012B40F0ED8028
:10DF9C0097F88431002B40F0E880FFF758FF07F525
:10DFAC00B67319462620FFF717FD034687F887310D
:10DFBC0097F88731002B40F0CE8007F5B6731846E2
:10DFCC00FFF7FEFD034687F8873197F88731002B62
:10DFDC0040F0B78007F5B6731846FFF777FE034697
:10DFEC0087F8873197F88731002B00F0A08007F570
:10DFFC00B67307F5BE7202216120FFF7A9FE034636
:10E00C0087F8873197F88731002B40F0868007F12D
:10E01C00EC0319460220FFF7EEFE034687F8873122
:10E02C0097F88731002B6ED197F8EC309C4697F817
:10E03C00ED309E4697F8EE301C4697F8EF301D46B3
:10E04C0097F8F0301E4697F8F1303B6297F8F230B3
:10E05C00FB6197F8F330BB6197F8F4307B6197F86C
:10E06C00F5303B6197F8F630FB6097F8F730BB6002
:10E07C0097F8F8307B6097F8F930194697F8FA3032
:10E08C001A4697F8FB3007F12C000D930C920B916C
:10E09C007A680A92BA680992FA6808923A69079201
:10E0AC007A690692BA690592FA6904923B6A0393FB
:10E0BC0002960195009473466246394903F03AF88A
:10E0CC0097F8863107F5C472A2F5B2721268D418AB
:10E0DC0007F12C031846FEF733F8024607F12C0320
:10E0EC001946204603F010F807F12C031846FEF7EA
:10E0FC0027F80346DAB297F88631134487F886314D
:10E10C00012387F8843197F88731022B05D105203C
:10E11C0000F048F8002387F8853197F88731002BF9
:10E12C0005D0042000F03EF8002387F8853197F8DD
:10E13C008731002B05D0032000F034F8002387F83A
:10E14C00853197F88731002B05D0022000F02AF892
:10E15C00002387F8853197F88731002B05D00120F3
:10E16C0000F020F8002387F8853197F88531012BD2
:10E17C000BD197F88431012B07D1002387F8853117
:10E18C00002387F88431012300E00023184607F5AB
:10E19C00C677BD46F0BD00BF941D0108081D0108DF
:10E1AC00641D010880B584B000AF0346FB710023E9
:10E1BC00FB7314E000224FF400510D4800F042FEB6
:10E1CC00642000F0D9FA01224FF40051084800F005
:10E1DC0039FE642000F0D0FAFB7B0133FB73FA7B31
:10E1EC00FB799A42E6D300BF00BF1037BD4680BD15
:10E1FC000010014080B485B000AF154B9B69144AE8
:10E20C0043F001039361124B9B6903F00103BB6064
:10E21C00BB680F4BDB690E4A43F08053D3610C4B48
:10E22C00DB6903F080537B607B680A4B5B68FB60A7
:10E23C00FB6823F0E063FB60FB6843F00073FB605A
:10E24C00044AFB68536000BF1437BD4680BC70475E
:10E25C00001002400000014080B588B000AF78602B
:10E26C0007F1100300221A605A609A60DA607B682A
:10E27C001B68154A934223D1144B9B69134A43F0F4
:10E28C0008039361114B9B6903F00803FB60FB6867
:10E29C00C0233B6112237B610323FB6107F1100355
:10E2AC0019460B4800F04AFC084BDB69074A43F45B
:10E2BC000013D361054BDB6903F40013BB60BB682F
:10E2CC0000BF2037BD4680BD005400400010024006
:10E2DC00000C014080B588B000AF786007F11003E6
:10E2EC0000221A605A609A60DA607B681B681B4ACD
:10E2FC0093422FD11A4B9B69194A43F48053936173
:10E30C00174B9B6903F48053FB60FB68144B9B69B0
:10E31C00134A43F004039361114B9B6903F004030C
:10E32C00BB60BB68A0233B6102237B610323FB61C1
:10E33C0007F1100319460B4800F000FC40233B6129
:10E34C0000237B610023BB6107F1100319460548CC
:10E35C0000F0F4FB00BF2037BD4680BD003001400B
:10E36C00001002400008014080B58AB000AF786010
:10E37C0007F1180300221A605A609A60DA607B6811
:10E38C001B683B4A93423AD13A4B9B69394A43F456
:10E39C0080439361374B9B6903F480437B617B69BA
:10E3AC00344B9B69334A43F004039361314B9B69B3
:10E3BC0003F004033B613B694FF40073BB61022320
:10E3CC00FB6103237B6207F1180319462A4800F00E
:10E3DC00B5FB4FF48063BB610023FB6100233B6200
:10E3EC0007F118031946244800F0A8FB002200216D
:10E3FC00252000F0BCFA252000F0D5FA34E07B682B
:10E40C001B681E4A93422FD11A4BDB69194A43F4FD
:10E41C000033D361174BDB6903F40033FB60FB68FB
:10E42C00144B9B69134A43F004039361114B9B6992
:10E43C0003F00403BB60BB680423BB610223FB61D4
:10E44C0003237B6207F1180319460B4800F076FB97
:10E45C000823BB610023FB6100233B6207F1180317
:10E46C001946054800F06AFB00BF2837BD4680BD41
:10E47C0000380140001002400008014000440040F8
:10E48C0080B400AFFEE780B500AF4FF00060FFF73F
:10E49C00A8F9FEE780B400AFFEE780B400AFFEE75A
:10E4AC0080B400AFFEE780B400AF00BFBD4680BCB7
:10E4BC00704780B400AF00BFBD4680BC704780B4CD
:10E4CC0000AF00BFBD4680BC704780B500AF00F008
:10E4DC0037F900BF80BD000080B500AF024802F0E4
:10E4EC00BDF900BF80BD00BF0404002080B500AFA3
:10E4FC000121154800F0BEFC502000F03DF901212F
:10E50C00114800F0B7FC502000F036F901210E48FC
:10E51C0000F0B0FC502000F02FF901210A4800F067
:10E52C00A9FC502000F028F90121074800F0A2FCBA
:10E53C00502000F021F90121034800F09BFC5020F1
:10E54C0000F01AF900BF80BD000C014080B500AF8F
:10E55C0001210E4800F08EFC4FF47A7000F00CF99B
:10E56C0001210A4800F086FC4FF4FA7000F004F91F
:10E57C000121064800F07EFC4FF47A7000F0FCF8A4
:10E58C000121024800F076FC00BF80BD000C014068
:10E59C0080B500AF0121064800F06CFC322000F081
:10E5AC00EBF80121024800F065FC00BF80BD00BF04
:10E5BC00000C014080B586B000AF7860144A154B52
:10E5CC00D31A7B617B693B61134B1B68002B02D117
:10E5DC00114B124A1A60104B1A687B6813443A6943
:10E5EC009A4207D202F066FD03460C221A604FF0E5
:10E5FC00FF3309E0084B1B68FB60074B1A687B680C
:10E60C001344054A1360FB6818461837BD4680BD95
:10E61C0000500020000400008C040020A8040020FE
:10E62C0080B400AF00BFBD4680BC70470C480D499C
:10E63C000D4A002302E0D458C4500433C4188C4251
:10E64C00F9D30A4A0A4C002301E013600432A242B7
:10E65C00FBD3FFF7E5FF02F033FDFEF7E5FC704757
:10E66C00000000203C010020B81F01083C010020E4
:10E67C00A4040020FEE7000080B500AF084B1B6827
:10E68C00074A43F010031360032000F065F90F20D4
:10E69C0000F026F8FFF7AEFD0023184680BD00BF42
:10E6AC000020024080B500AF094B4FF0FF32DA601A
:10E6BC00074B00221A61064B4FF0FF32DA60044B15
:10E6CC000022DA6000F006F80023184680BD00BF77
:10E6DC000010024080B400AF00BFBD4680BC704744
:10E6EC0080B582B000AF7860124B1A68124B1B7861
:10E6FC0019464FF47A73B3FBF1F3B2FBF3F31846FC
:10E70C0000F05FF90346002B01D001230EE07B687B
:10E71C000F2B0AD8002279684FF0FF3000F027F950
:10E72C00064A7B681360002300E001231846083773
:10E73C00BD4680BDCC000020D4000020D0000020BD
:10E74C0080B400AF054B1B781A46054B1B6813446D
:10E75C00034A136000BFBD4680BC7047D400002044
:10E76C009004002080B400AF024B1B681846BD46D5
:10E77C0080BC70479004002080B584B000AF7860F6
:10E78C00FFF7F0FFB8607B68FB60FB68B3F1FF3FFD
:10E79C0005D00A4B1B781A46FB681344FB6000BF7C
:10E7AC00FFF7E0FF0246BB68D31AFA689A42F7D823
:10E7BC0000BF00BF1037BD4680BD00BFD400002095
:10E7CC0080B485B000AF78607B6803F00703FB6012
:10E7DC000C4BDB68BB60BA684FF6FF031340BB60A1
:10E7EC00FB681A02BB68134343F0BF6343F4003366
:10E7FC00BB60044ABB68D36000BF1437BD4680BC05
:10E80C00704700BF00ED00E080B400AF044BDB6844
:10E81C001B0A03F007031846BD4680BC704700BFB7
:10E82C0000ED00E080B483B000AF0346FB7197F9B4
:10E83C000730002B0BDBFB7903F01F02064997F91D
:10E84C0007305B09012000FA02F241F8232000BFD7
:10E85C000C37BD4680BC704700E100E080B483B04B
:10E86C0000AF03463960FB7197F90730002B0ADBC8
:10E87C003B68DAB20C4997F907301201D2B20B445B
:10E88C0083F800230AE03B68DAB20849FB7903F00D
:10E89C000F03043B1201D2B20B441A7600BF0C37A3
:10E8AC00BD4680BC704700BF00E100E000ED00E019
:10E8BC0080B489B000AFF860B9607A60FB6803F08F
:10E8CC000703FB61FB69C3F10703042B28BF042377
:10E8DC00BB61FB690433062B02D9FB69033B00E0E7
:10E8EC0000237B614FF0FF32BB6902FA03F3DA437A
:10E8FC00BB681A407B699A404FF0FF317B6901FA83
:10E90C0003F3D9437B680B40134318462437BD46A9
:10E91C0080BC704780B582B000AF78607B68013BEB
:10E92C00B3F1807F01D301230FE00A4A7B68013BDE
:10E93C0053600F214FF0FF30FFF790FF054B002283
:10E94C009A60044B07221A60002318460837BD460C
:10E95C0080BD00BF10E000E080B582B000AF7860F1
:10E96C007868FFF72DFF00BF0837BD4680BD80B526
:10E97C0086B000AF0346B9607A60FB7300237B61FD
:10E98C00FFF742FF78617A68B9687869FFF790FF02
:10E99C00024697F90F3011461846FFF75FFF00BF8C
:10E9AC001837BD4680BD80B582B000AF0346FB7101
:10E9BC0097F907301846FFF735FF00BF0837BD46FB
:10E9CC0080BD80B582B000AF78607868FFF7A2FF99
:10E9DC00034618460837BD4680BD80B485B000AFED
:10E9EC0078600023FB737B6893F82130022B08D0EE
:10E9FC007B6804229A637B68002283F82020012321
:10EA0C0020E07B681B681A687B681B6822F00E028A
:10EA1C001A607B681B681A687B681B6822F001020D
:10EA2C001A607B681A6C7B68DB6B012101FA02F2BD
:10EA3C005A607B68012283F821207B68002283F8CE
:10EA4C002020FB7B18461437BD4680BC7047000065
:10EA5C0080B584B000AF78600023FB737B6893F8BB
:10EA6C002130022B05D07B6804229A630123FB73AF
:10EA7C0051E07B681B681A687B681B6822F00E02E9
:10EA8C001A607B681B681A687B681B6822F001029D
:10EA9C001A607B681B68224A934229D07B681B68EA
:10EAAC00204A934222D07B681B681F4A93421AD09B
:10EABC007B681B681D4A934212D07B681B681C4AFA
:10EACC0093420AD07B681B681A4A934202D14FF4D6
:10EADC0080130EE04FF080730BE04FF4803308E0AE
:10EAEC004FF4805305E04FF4807302E0102300E0F4
:10EAFC000123114A53607B68012283F821207B6833
:10EB0C00002283F820207B685B6B002B03D07B6892
:10EB1C005B6B78689847FB7B18461037BD4680BD09
:10EB2C00080002401C000240300002404400024039
:10EB3C00580002406C0002400000024080B48BB0D0
:10EB4C0000AF7860396000237B6200233B6269E18F
:10EB5C0001227B6A02FA03F3FB613B681B68FA69CA
:10EB6C001340BB61BA69FB699A4240F058813B681B
:10EB7C005B689A4A93425ED0984A934275D8984AF9
:10EB8C00934258D0964A93426FD8964A934252D0A9
:10EB9C00944A934269D8944A93424CD0924A9342F5
:10EBAC0063D8924A934246D0904A93425DD8122B36
:10EBBC002AD8122B59D801A252F823F043EC0008A2
:10EBCC001DEC00082FEC000871EC000877EC000835
:10EBDC0077EC000877EC000877EC000877EC00087D
:10EBEC0077EC000877EC000877EC000877EC00086D
:10EBFC0077EC000877EC000877EC000877EC00085D
:10EC0C0025EC000839EC0008794A934213D02CE02B
:10EC1C003B68DB683B6229E03B68DB6804333B62A2
:10EC2C0024E03B68DB6808333B621FE03B68DB6831
:10EC3C000C333B621AE03B689B68002B02D1042327
:10EC4C003B6213E03B689B68012B05D108233B62B8
:10EC5C007B68FA691A6109E008233B627B68FA69F0
:10EC6C005A6103E000233B6200E000BFBB69FF2B4D
:10EC7C0001D87B6801E07B6804337B61BB69FF2BA7
:10EC8C0002D87B6A9B0002E07B6A083B9B003B61DD
:10EC9C007B691A680F213B6901FA03F3DB431A40C5
:10ECAC00396A3B6901FA03F31A437B691A603B68C2
:10ECBC005B6803F08053002B00F0B1804D4B9B69D7
:10ECCC004C4A43F0010393614A4B9B6903F00103E7
:10ECDC00BB60BB68484A7B6A9B08023352F82330FE
:10ECEC00FB607B6A03F003039B000F2202FA03F321
:10ECFC00DB43FA681340FB607B68404A934213D0B5
:10ED0C007B683F4A93420DD07B683E4A934207D0C2
:10ED1C007B683D4A934201D1032306E0042304E0BF
:10ED2C00022302E0012300E000237A6A02F00302CE
:10ED3C0092009340FA681343FB602F497B6A9B084F
:10ED4C000233FA6841F823203B685B6803F4803394
:10ED5C00002B06D02D4B1A682C49BB6913430B6052
:10ED6C0006E02A4B1A68BB69DB43284913400B6049
:10ED7C003B685B6803F40033002B06D0234B5A68C6
:10ED8C002249BB6913434B6006E0204B5A68BB69B0
:10ED9C00DB431E4913404B603B685B6803F48013F4
:10EDAC00002B06D0194B9A681849BB6913438B602A
:10EDBC0006E0164B9A68BB69DB43144913408B6021
:10EDCC003B685B6803F40013002B21D00F4BDA680F
:10EDDC000E49BB691343CB6021E000BF0000321029
:10EDEC000000311000002210000021100000121051
:10EDFC00000011100010024000000140000801400A
:10EE0C00000C0140001001400014014000040140BE
:10EE1C000B4BDA68BB69DB4309491340CB607B6A57
:10EE2C0001337B623B681A687B6A22FA03F3002B7E
:10EE3C007FF48EAE00BF00BF2C37BD4680BC704740
:10EE4C000004014080B483B000AF78600B467B8037
:10EE5C0013467B707B78002B03D07A887B681A6111
:10EE6C0003E07B881A047B681A6100BF0C37BD462F
:10EE7C0080BC704780B485B000AF78600B467B8057
:10EE8C007B68DB68FB607A88FB6813401A04FB68BC
:10EE9C00D9437B880B401A437B681A6100BF143737
:10EEAC00BD4680BC7047000080B584B000AF786070
:10EEBC007B68002B01D101232BE17B6893F83D305B
:10EECC00DBB2002B06D17B68002283F83C207868EB
:10EEDC00FFF7C2F97B68242283F83D207B681B680E
:10EEEC001A687B681B6822F001021A607B681B6839
:10EEFC001A687B681B6842F400421A607B681B68C6
:10EF0C001A687B681B6822F400421A6001F084F8CE
:10EF1C00F8607B685B68814A934207D8FB68804A3B
:10EF2C00934294BF01230023DBB206E0FB687D4AC9
:10EF3C00934294BF01230023DBB2002B01D00123A9
:10EF4C00E7E0FB68784AA2FB03239B0CBB607B6861
:10EF5C001B685B6823F03F017B681B68BA680A4337
:10EF6C005A607B681B681B6A23F03F017B685B68F7
:10EF7C006A4A934202D8BB68013309E0BB684FF47C
:10EF8C00967202FB03F3694AA2FB03239B0901332C
:10EF9C007A6812680B4313627B681B68DB6923F485
:10EFAC004F4222F0FF027B685B685C498B4219D8A8
:10EFBC00FB68591E7B685B685B00B1FBF3F3591C63
:10EFCC0040F6FC730B40002B0AD0FB68591E7B6883
:10EFDC005B685B00B1FBF3F30133C3F30B0351E04C
:10EFEC0004234FE07B689B68002B11D1FB68581EF3
:10EFFC007B6859680B465B000B44B0FBF3F30133A1
:10F00C00C3F30B03002B0CBF01230023DBB212E074
:10F01C00FB68581E7B6859680B469B000B44990093
:10F02C000B44B0FBF3F30133C3F30B03002B0CBF06
:10F03C0001230023DBB2002B01D0012322E07B68EB
:10F04C009B68002B0ED1FB68581E7B6859680B46D9
:10F05C005B000B44B0FBF3F30133C3F30B0343F43A
:10F06C0000430FE0FB68581E7B6859680B469B00F9
:10F07C000B4499000B44B0FBF3F30133C3F30B03C4
:10F08C0043F44043796809681343CB617B681B6880
:10F09C001B6823F0C0017B68DA697B681B6A1A4322
:10F0AC007B681B680A431A607B681B689B6823F4A7
:10F0BC00034323F0FF037A6811697A68D26811431D
:10F0CC007A6812680B4393607B681B68DB6823F0DB
:10F0DC00FF017B685A697B689B691A437B681B68D4
:10F0EC000A43DA607B681B681A687B681B6842F00D
:10F0FC0001021A607B6800221A647B68202283F864
:10F10C003D207B6800221A637B68002283F83E2036
:10F11C00002318461037BD4680BD00BFA0860100F5
:10F12C007F841E00FF083D0083DE1B43D34D62101D
:10F13C0080B588B002AFF8607A601A460B467B81C6
:10F14C0013463B81FFF70EFB7861FB6893F83D306B
:10F15C00DBB2202B40F0E0807B6900931923012265
:10F16C007049F86800F064F90346002B01D00223C3
:10F17C00D3E0FB6893F83C30012B01D10223CCE0A7
:10F18C00FB68012283F83C20FB681B681B6803F0BA
:10F19C000103012B07D0FB681B681A68FB681B680E
:10F1AC0042F001021A60FB681B681A68FB681B6856
:10F1BC0022F400621A60FB68212283F83D20FB6870
:10F1CC00102283F83E20FB6800221A64FB687A68E0
:10F1DC005A62FB683A895A85FB685B8D9AB2FB6868
:10F1EC001A85FB68504ADA6279897B693A6AF86851
:10F1FC0000F09CF80346002B01D001238DE0002386
:10F20C003B61FB681B685B693B61FB681B689B6926
:10F21C003B613B6966E07A69396AF86800F0DEF9AF
:10F22C000346002B0DD0FB681B6C042B07D1FB682D
:10F23C001B681A68FB681B6842F400721A60012391
:10F24C006BE0FB685B6A1A78FB681B681A61FB68E9
:10F25C005B6A5A1CFB685A62FB685B8D9BB2013B74
:10F26C009AB2FB685A85FB681B8D013B9AB2FB680E
:10F27C001A85FB681B685B6903F00403042B1BD124
:10F28C00FB681B8D002B17D0FB685B6A1A78FB6838
:10F29C001B681A61FB685B6A5A1CFB685A62FB6844
:10F2AC005B8D9BB2013B9AB2FB685A85FB681B8D48
:10F2BC00013B9AB2FB681A857A69396AF86800F0E2
:10F2CC00CEF90346002B0DD0FB681B6C042B07D129
:10F2DC00FB681B681A68FB681B6842F400721A60B2
:10F2EC0001231AE0FB681B8D002B94D1FB681B6873
:10F2FC001A68FB681B6842F400721A60FB682022D3
:10F30C0083F83D20FB68002283F83E20FB68002236
:10F31C0083F83C20002300E0022318461837BD4632
:10F32C0080BD00BF020010000000FFFF80B588B058
:10F33C0002AFF8607A603B600B467B81FB68DB6A4E
:10F34C007B617B69082B06D07B69012B03D07B6921
:10F35C0013F5803F08D1FB681B681A68FB681B68B3
:10F36C0042F480721A600BE0FB681B6B122B07D106
:10F37C00FB681B681A68FB681B6842F480721A6091
:10F38C003B6800937B6800224FF00111F86800F095
:10F39C004FF80346002B0DD0FB681B681B6803F469
:10F3AC008073B3F5807F03D1FB684FF400721A644D
:10F3BC00032335E0FB681B69B3F5804F08D17B89CB
:10F3CC00DBB21A46FB681B6802F0FE021A611BE0F6
:10F3DC007B89DB11DBB203F00603DBB263F00F03B6
:10F3EC00DAB2FB681B681A613B687A680E49F868E8
:10F3FC0000F075F80346002B01D0012310E07B8947
:10F40C00DAB2FB681B681A613B687A680749F868CE
:10F41C0000F065F80346002B01D0012300E0002327
:10F42C0018461837BD4680BD0800010002000100D7
:10F43C0080B584B000AFF860B9603B601346FB71D7
:10F44C0025E03B68B3F1FF3F21D0FFF78BF9024673
:10F45C00BB69D31A3A689A4202D33B68002B16D187
:10F46C00FB6800221A63FB68202283F83D20FB68AE
:10F47C00002283F83E20FB681B6C43F02002FB68E3
:10F48C001A64FB68002283F83C20012323E0BB684C
:10F49C001B0CDBB2012B0DD1FB681B685B69DA43DB
:10F4AC00BB6813409BB2002B0CBF01230023DBB2C3
:10F4BC001A460CE0FB681B689B69DA43BB68134077
:10F4CC009BB2002B0CBF01230023DBB21A46FB7945
:10F4DC009A42B6D0002318461037BD4680BD80B581
:10F4EC0084B000AFF860B9607A603B6051E0FB68B3
:10F4FC001B685B6903F48063B3F5806F23D1FB68F1
:10F50C001B681A68FB681B6842F400721A60FB687F
:10F51C001B686FF480625A61FB6800221A63FB68F7
:10F52C00202283F83D20FB68002283F83E20FB68F4
:10F53C001B6C43F00402FB681A64FB68002283F81E
:10F54C003C20012346E07B68B3F1FF3F21D0FFF75D
:10F55C0009F902463B68D31A7A689A4202D37B684F
:10F56C00002B16D1FB6800221A63FB68202283F85B
:10F57C003D20FB68002283F83E20FB681B6C43F0A7
:10F58C002002FB681A64FB68002283F83C200123EC
:10F59C0020E0BB681B0CDBB2012B0CD1FB681B6899
:10F5AC005B69DA43BB6813409BB2002B14BF012389
:10F5BC000023DBB20BE0FB681B689B69DA43BB687A
:10F5CC0013409BB2002B14BF01230023DBB2002B92
:10F5DC008DD1002318461037BD4680BD80B584B050
:10F5EC0000AFF860B9607A602DE0F86800F078F848
:10F5FC000346002B01D001232DE0BB68B3F1FF3F84
:10F60C0021D0FFF7AFF802467B68D31ABA689A424A
:10F61C0002D3BB68002B16D1FB6800221A63FB686F
:10F62C00202283F83D20FB68002283F83E20FB68F3
:10F63C001B6C43F02002FB681A64FB68002283F801
:10F64C003C20012307E0FB681B685B6903F0800327
:10F65C00802BCAD1002318461037BD4680BD80B51B
:10F66C0084B000AFF860B9607A602DE0F86800F003
:10F67C0037F80346002B01D001232DE0BB68B3F112
:10F68C00FF3F21D0FFF76EF802467B68D31ABA68A9
:10F69C009A4202D3BB68002B16D1FB6800221A6376
:10F6AC00FB68202283F83D20FB68002283F83E2073
:10F6BC00FB681B6C43F02002FB681A64FB68002299
:10F6CC0083F83C20012307E0FB681B685B6903F0AF
:10F6DC000403042BCAD1002318461037BD4680BD45
:10F6EC0080B483B000AF78607B681B685B6903F4FF
:10F6FC008063B3F5806F1BD17B681B686FF48062ED
:10F70C005A617B6800221A637B68202283F83D20B3
:10F71C007B68002283F83E207B681B6C43F004025C
:10F72C007B681A647B68002283F83C20012300E08C
:10F73C00002318460C37BD4680BC704780B582B09C
:10F74C0000AFFFF70FF87860454B1B68444A43F055
:10F75C000103136008E0FFF705F802467B68D31A33
:10F76C00022B01D9032377E03D4B1B6803F0020306
:10F77C00002BF0D03A4B1B6823F0F803384A43F0C7
:10F78C0080031360FEF7EEFF7860354B00225A6061
:10F79C000AE0FEF7E7FF02467B68D31A41F2883293
:10F7AC00934201D9032357E02D4B5B6803F00C0304
:10F7BC00002BEED12B4B2C4A1A602C4B1B68184695
:10F7CC00FEF78EFF0346002B01D0012344E0FEF729
:10F7DC00C9FF7860224B1B68214A23F080731360A9
:10F7EC0008E0FEF7BFFF02467B68D31A022B01D953
:10F7FC00032331E01A4B1B6803F00073002BF0D18C
:10F80C00174B00225A60FEF7ADFF7860144B1B6853
:10F81C00134A23F41023136008E0FEF7A3FF0246FB
:10F82C007B68D31A642B01D9032315E00C4B1B689E
:10F83C0003F40033002BF0D1094B1B68084A23F466
:10F84C0080231360064B5B6A054A43F08073536256
:10F85C00034B00229A60002318460837BD4680BD32
:10F86C0000100240CC00002000127A00D0000020D2
:10F87C0080B586B000AF78607B68002B01D1012386
:10F88C0072E27B681B6803F00103002B00F0878099
:10F89C00924B5B6803F00C03042B0CD08F4B5B6812
:10F8AC0003F00C03082B12D18C4B5B6803F48033F0
:10F8BC00B3F5803F0BD1894B1B6803F40033002B4D
:10F8CC006CD07B685B68002B68D101234CE27B68B1
:10F8DC005B68B3F5803F06D1804B1B687F4A43F4CD
:10F8EC00803313602EE07B685B68002B0CD17B4B64
:10F8FC001B687A4A23F480331360784B1B68774A71
:10F90C0023F4802313601DE07B685B68B3F5A02FA4
:10F91C000CD1724B1B68714A43F4802313606F4BFC
:10F92C001B686E4A43F4803313600BE06B4B1B680F
:10F93C006A4A23F480331360684B1B68674A23F4CC
:10F94C00802313607B685B68002B13D0FEF70AFFE3
:10F95C00386108E0FEF706FF02463B69D31A642BB8
:10F96C0001D9032300E25D4B1B6803F40033002B29
:10F97C00F0D014E0FEF7F6FE386108E0FEF7F2FE78
:10F98C0002463B69D31A642B01D90323ECE1534B98
:10F99C001B6803F40033002BF0D100E000BF7B6840
:10F9AC001B6803F00203002B63D04C4B5B6803F025
:10F9BC000C03002B0BD0494B5B6803F00C03082B9A
:10F9CC001CD1464B5B6803F48033002B16D1434BA0
:10F9DC001B6803F00203002B05D07B681B69012B0D
:10F9EC0001D00123C0E13D4B1B6823F0F8027B687A
:10F9FC005B69DB00394913430B603AE07B681B6998
:10FA0C00002B20D0364B01221A60FEF7ABFE38617A
:10FA1C0008E0FEF7A7FE02463B69D31A022B01D978
:10FA2C000323A1E12D4B1B6803F00203002BF0D044
:10FA3C002A4B1B6823F0F8027B685B69DB002749C3
:10FA4C0013430B6015E0264B00221A60FEF78AFE6A
:10FA5C00386108E0FEF786FE02463B69D31A022B9A
:10FA6C0001D9032380E11D4B1B6803F00203002B1B
:10FA7C00F0D17B681B6803F00803002B3AD07B683D
:10FA8C009B69002B19D0174B01221A60FEF76AFEF6
:10FA9C00386108E0FEF766FE02463B69D31A022B7A
:10FAAC0001D9032360E10D4B5B6A03F00203002BC9
:10FABC00F0D0012000F0D8FA1CE00A4B00221A60AA
:10FACC00FEF750FE38610FE0FEF74CFE02463B6934
:10FADC00D31A022B08D9032346E100BF00100240C1
:10FAEC000000424280044242924B5B6A03F00203E4
:10FAFC00002BE9D17B681B6803F00403002B00F09A
:10FB0C00A6800023FB758B4BDB6903F08053002B25
:10FB1C000DD1884BDB69874A43F08053D361854B09
:10FB2C00DB6903F08053BB60BB680123FB75824B20
:10FB3C001B6803F48073002B18D17F4B1B687E4A23
:10FB4C0043F480731360FEF70DFE386108E0FEF796
:10FB5C0009FE02463B69D31A642B01D9032303E146
:10FB6C00754B1B6803F48073002BF0D07B68DB684B
:10FB7C00012B06D16F4B1B6A6E4A43F001031362D3
:10FB8C002DE07B68DB68002B0CD16A4B1B6A694A41
:10FB9C0023F001031362674B1B6A664A23F00403CC
:10FBAC0013621CE07B68DB68052B0CD1614B1B6A74
:10FBBC00604A43F0040313625E4B1B6A5D4A43F0D8
:10FBCC00010313620BE05B4B1B6A5A4A23F00103DF
:10FBDC001362584B1B6A574A23F0040313627B6869
:10FBEC00DB68002B15D0FEF7BDFD38610AE0FEF78F
:10FBFC00B9FD02463B69D31A41F28832934201D9CE
:10FC0C000323B1E04B4B1B6A03F00203002BEED035
:10FC1C0014E0FEF7A7FD38610AE0FEF7A3FD0246EB
:10FC2C003B69D31A41F28832934201D903239BE0FA
:10FC3C00404B1B6A03F00203002BEED1FB7D012B22
:10FC4C0005D13C4BDB693B4A23F08053D3617B6885
:10FC5C00DB69002B00F08780364B5B6803F00C03EC
:10FC6C00082B61D07B68DB69022B46D1334B002219
:10FC7C001A60FEF777FD386108E0FEF773FD024667
:10FC8C003B69D31A022B01D903236DE0294B1B6866
:10FC9C0003F00073002BF0D17B681B6AB3F5803F37
:10FCAC0008D1244B5B6823F400327B689B682149A4
:10FCBC0013434B601F4B5B6823F474127B68196A07
:10FCCC007B685B6A0B431B4913434B601B4B012244
:10FCDC001A60FEF747FD386108E0FEF743FD024667
:10FCEC003B69D31A022B01D903233DE0114B1B684E
:10FCFC0003F00073002BF0D035E0104B00221A609B
:10FD0C00FEF730FD386108E0FEF72CFD02463B693A
:10FD1C00D31A022B01D9032326E0064B1B6803F0F0
:10FD2C000073002BF0D11EE07B68DB69012B07D13F
:10FD3C00012319E0001002400070004060004242B4
:10FD4C000B4B5B68FB60FB6803F480327B681B6ABF
:10FD5C009A4206D1FB6803F470127B685B6A9A4284
:10FD6C0001D0012300E0002318461837BD4680BDA2
:10FD7C000010024080B584B000AF786039607B68B9
:10FD8C00002B01D10123D0E06A4B1B6803F0070361
:10FD9C003A689A4210D9674B1B6823F007026549F1
:10FDAC003B6813430B60634B1B6803F007033A6813
:10FDBC009A4201D00123B8E07B681B6803F0020370
:10FDCC00002B20D07B681B6803F00403002B05D0AC
:10FDDC00594B5B68584A43F4E06353607B681B687B
:10FDEC0003F00803002B05D0534B5B68524A43F4D5
:10FDFC0060535360504B5B6823F0F0027B689B6848
:10FE0C004D4913434B607B681B6803F00103002BC7
:10FE1C0040D07B685B68012B07D1474B1B6803F410
:10FE2C000033002B15D101237FE07B685B68022B2C
:10FE3C0007D1414B1B6803F00073002B09D1012340
:10FE4C0073E03D4B1B6803F00203002B01D101232F
:10FE5C006BE0394B5B6823F003027B685B683649C7
:10FE6C0013434B60FEF77EFCF8600AE0FEF77AFC69
:10FE7C000246FB68D31A41F28832934201D903231C
:10FE8C0053E02D4B5B6803F00C027B685B689B00B6
:10FE9C009A42EBD1274B1B6803F007033A689A424E
:10FEAC0010D2244B1B6823F0070222493B681343F2
:10FEBC000B60204B1B6803F007033A689A4201D091
:10FECC00012332E07B681B6803F00403002B08D08D
:10FEDC00194B5B6823F4E0627B68DB6816491343BB
:10FEEC004B607B681B6803F00803002B09D0124B96
:10FEFC005B6823F460527B681B69DB000E4913437B
:10FF0C004B6000F021F802460B4B5B681B0903F0B9
:10FF1C000F030A49CB5C22FA03F3094A1360094B1D
:10FF2C001B681846FEF7DCFB002318461037BD464D
:10FF3C0080BD00BF0020024000100240641E01087A
:10FF4C00CC000020D000002090B48AB000AF294B28
:10FF5C003C1D0FCB84E80F0040F201233B800023B3
:10FF6C00FB610023BB6100237B6200237B610023C8
:10FF7C003B62214B5B68FB61FB6903F00C03042BB8
:10FF8C0002D0082B03D02BE01C4B3B622BE0FB690F
:10FF9C009B0C03F00F0328333B4413F8243C7B6188
:10FFAC00FB6903F48033002B12D0134B5B685B0CA2
:10FFBC0003F0010328333B4413F8283CBB617B69F5
:10FFCC000E4A03FB02F2BB69B2FBF3F37B6204E063
:10FFDC007B690B4A02FB03F37B627B6A3B6202E0A8
:10FFEC00064B3B6200BF3B6A18462837BD4690BCA7
:04FFFC00704700BF8B
:020000040801F1
:10000000541E01080010024000127A0000093D0051
:1000100080B400AF024B1B681846BD4680BC7047D9
:10002000CC00002080B500AFFFF7F2FF0246054B81
:100030005B681B0A03F007030349CB5C22FA03F356
:10004000184680BD00100240741E010880B500AF44
:10005000FFF7DEFF0246054B5B68DB0A03F0070390
:100060000349CB5C22FA03F3184680BD001002401E
:10007000741E010880B485B000AF78600A4B1B681D
:100080000A4AA2FB03235B0A7A6802FB03F3FB60C4
:1000900000BFFB685A1EFA60002BF9D100BF00BFF9
:1000A0001437BD4680BC7047CC000020D34D621091
:1000B00080B582B000AF78607B68002B01D101234E
:1000C00076E07B685B6A002B08D17B685B68B3F5E0
:1000D000827F09D07B680022DA6105E07B6800221C
:1000E0001A617B6800225A617B6800229A627B68F1
:1000F00093F85130DBB2002B06D17B68002283F8E5
:1001000050207868FEF7ECF87B68022283F85120D3
:100110007B681B681A687B681B6822F040021A60C3
:100120007B685B6803F482727B689B6803F404431A
:100130001A437B68DB6803F400631A437B681B691E
:1001400003F002031A437B685B6903F001031A435F
:100150007B689B6903F400731A437B68DB6903F0D7
:1001600038031A437B681B6A03F0800342EA0301E9
:100170007B689B6A03F400527B681B680A431A6021
:100180007B689B691A0C7B681B6802F004025A604A
:100190007B681B68DA697B681B6822F40062DA619D
:1001A0007B6800225A657B68012283F85120002376
:1001B00018460837BD4680BD80B58CB000AFF860EA
:1001C000B9607A607B800123FB62002387F82B30C3
:1001D000FB6893F85030012B01D102238AE1FB68C0
:1001E000012283F85020FEF7C3FA7862FB6893F887
:1001F000513087F82330FB685B68FB617B887B8329
:1002000097F82330012B0FD0FB69B3F5827F07D11C
:10021000FB689B68002B03D197F82330042B03D095
:10022000022387F82B305BE1BB68002B05D07B688D
:10023000002B02D07B88002B03D1012387F82B30C1
:100240004EE1FB6893F85130DBB2042B03D0FB681E
:10025000052283F85120FB6800225A65FB687A6802
:100260009A63FB687A88DA87FB687A889A87FB68E2
:10027000BA681A63FB687A88DA86FB687A889A8695
:10028000FB6800221A64FB6800225A64FB681B6842
:100290001B6803F04003402B07D0FB681B681A68FB
:1002A000FB681B6842F040021A60FB68DB68B3F52C
:1002B000006F78D1FB685B68002B02D07B8B012B31
:1002C00066D1FB681B6B1A88FB681B68DA60FB68E9
:1002D0001B6B9A1CFB681A63FB68DB8E9BB2013BAD
:1002E0009AB2FB68DA8653E0FB681B689B6803F0F0
:1002F0000203022B1BD1FB68DB8E9BB2002B16D0B6
:10030000FB6A012B13D1FB681B6B1A88FB681B6807
:10031000DA60FB681B6B9A1CFB681A63FB68DB8E58
:100320009BB2013B9AB2FB68DA860023FB62FB6852
:100330001B689B6803F00103012B19D1FB68DB8F5D
:100340009BB2002B14D0FB681B68DA68FB689B6BC0
:1003500092B21A80FB689B6B9A1CFB689A63FB68DD
:10036000DB8F9BB2013B9AB2FB68DA870123FB6209
:10037000FEF7FEF902467B6AD31ABA6B9A4207D897
:10038000BB6BB3F1FF3F03D0032387F82B30A7E00B
:10039000FB68DB8E9BB2002BA6D1FB68DB8F9BB288
:1003A000002BA1D17CE0FB685B68002B02D07B8B2B
:1003B000012B6BD1FB681A6BFB681B680C3312783E
:1003C0001A70FB681B6B5A1CFB681A63FB68DB8E98
:1003D0009BB2013B9AB2FB68DA8657E0FB681B6868
:1003E0009B6803F00203022B1CD1FB68DB8E9BB2DF
:1003F000002B17D0FB6A012B14D1FB681A6BFB682A
:100400001B680C3312781A70FB681B6B5A1CFB6854
:100410001A63FB68DB8E9BB2013B9AB2FB68DA86FB
:100420000023FB62FB681B689B6803F00103012B40
:1004300019D1FB68DB8F9BB2002B14D0FB681B68C3
:10044000DA68FB689B6BD2B21A70FB689B6B5A1C14
:10045000FB689A63FB68DB8F9BB2013B9AB2FB6837
:10046000DA870123FB62FEF783F902467B6AD31A1F
:10047000BA6B9A4203D8BB6BB3F1FF3F02D1BB6B9F
:10048000002B03D1032387F82B3029E0FB68DB8E98
:100490009BB2002BA2D1FB68DB8F9BB2002B9DD1BE
:1004A0007A6AB96BF86800F0B1F80346002B06D001
:1004B000012387F82B30FB6820225A6510E0FB6887
:1004C0009B68002B0BD100237B61FB681B68DB68FA
:1004D0007B61FB681B689B687B617B6900E000BFF8
:1004E000FB68012283F85120FB68002283F850202A
:1004F00097F82B3018463037BD4680BD80B588B0A0
:1005000000AFF860B9603B601346FB71FEF730F94D
:100510000246BB6A9B1A3A681344FB61FEF728F94E
:10052000B861394B1B685B011B0DFA6902FB03F3D1
:100530007B6154E03B68B3F1FF3F50D0FEF718F900
:100540000246BB69D31AFA699A4202D9FB69002BA9
:100550003DD1FB681B685A68FB681B6822F0E0020B
:100560005A60FB685B68B3F5827F11D1FB689B68BA
:10057000B3F5004F04D0FB689B68B3F5806F07D1DB
:10058000FB681B681A68FB681B6822F040021A604F
:10059000FB689B6AB3F5005F0FD1FB681B681A68A4
:1005A000FB681B6822F400521A60FB681B681A681B
:1005B000FB681B6842F400521A60FB68012283F852
:1005C0005120FB68002283F85020032317E07B6949
:1005D000002B01D10023FB617B69013B7B61FB6840
:1005E0001B689A68BB681340BA689A420CBF012323
:1005F0000023DBB21A46FB799A429BD100231846AE
:100600002037BD4680BD00BFCC00002080B586B03D
:1006100002AFF860B9607A607B680093BB68002223
:100620008021F868FFF76AFF0346002B07D0FB68BC
:100630005B6D43F02002FB685A65032300E0002352
:1006400018461037BD4680BD80B582B000AF7860D7
:100650007B68002B01D101233FE07B6893F83D309C
:10066000DBB2002B06D17B68002283F83C2078683F
:10067000FDF780FE7B68242283F83D207B681B68A1
:10068000DA687B681B6822F40052DA60786800F050
:1006900085FC7B681B681A697B681B6822F49042A2
:1006A0001A617B681B685A697B681B6822F02A0202
:1006B0005A617B681B68DA687B681B6842F40052E9
:1006C000DA607B6800221A647B68202283F83D2070
:1006D0007B68202283F83E20002318460837BD4659
:1006E00080BD80B58AB002AFF860B9603B60134648
:1006F000FB8000237B61FB6893F83D30DBB2202B4D
:100700007CD1BB68002B02D0FB88002B01D10123D8
:1007100075E0FB6893F83C30012B01D102236EE0B9
:10072000FB68012283F83C20FB6800221A64FB6806
:10073000212283F83D20FEF71BF87861FB68FA88D8
:100740009A84FB68FA88DA84FB689B68B3F5805F5B
:1007500008D1FB681B69002B04D10023FB61BB6837
:10076000BB6103E0BB68FB610023BB61FB68002247
:1007700083F83C202AE03B6800937B6900228021BB
:10078000F86800F038FA0346002B01D0032336E066
:10079000FB69002B0BD1BB691B881A46FB681B68E1
:1007A000C2F308025A60BB690233BB6107E0FB6910
:1007B0001A78FB681B685A60FB690133FB61FB68B0
:1007C000DB8C9BB2013B9AB2FB68DA84FB68DB8C62
:1007D0009BB2002BCFD13B6800937B690022402164
:1007E000F86800F008FA0346002B01D0032306E066
:1007F000FB68202283F83D20002300E002231846F6
:100800002037BD4680BD80B584B000AFF860B960C8
:100810001346FB80FB6893F83E30DBB2202B1DD1E2
:10082000BB68002B02D0FB88002B01D1012316E00E
:10083000FB6893F83C30012B01D102230FE0FB68E9
:10084000012283F83C20FB6800221A63FB881A46C9
:10085000B968F86800F019FA034600E00223184668
:100860001037BD4680BD000080B58AB000AF78600B
:100870007B681B681B687B627B681B68DB683B626C
:100880007B681B685B69FB610023BB6100237B61A4
:100890007B6A03F00F03BB61BB69002B0DD17B6A40
:1008A00003F02003002B08D03B6A03F02003002B49
:1008B00003D0786800F0C9FA7BE1BB69002B00F037
:1008C000B180FB6903F00103002B05D13B6A03F4FF
:1008D0009073002B00F0A6807B6A03F00103002BCD
:1008E0000AD03B6A03F48073002B05D07B681B6C35
:1008F00043F001027B681A647B6A03F00403002B57
:100900000AD0FB6903F00103002B05D07B681B6C48
:1009100043F002027B681A647B6A03F00203002B37
:100920000AD0FB6903F00103002B05D07B681B6C28
:1009300043F004027B681A647B6A03F00803002B0F
:100940000FD03B6A03F02003002B04D1FB6903F0B6
:100950000103002B05D07B681B6C43F008027B6809
:100960001A647B681B6C002B00F01E817B6A03F00D
:100970002003002B07D03B6A03F02003002B02D09A
:10098000786800F062FA7B681B685B6903F04003DB
:10099000002B14BF01230023DBB27B617B681B6C3F
:1009A00003F00803002B02D17B69002B31D078685B
:1009B00000F0A4F97B681B685B6903F04003002B1F
:1009C00023D07B681B685A697B681B6822F0400251
:1009D0005A617B689B6B002B13D07B689B6B764ABC
:1009E0005A637B689B6B1846FEF738F80346002B6A
:1009F00016D07B689B6B5B6B7A68926B104698474E
:100A00000EE0786800F0E3F80AE0786800F0DFF8BC
:100A100006E0786800F0DBF87B6800221A64C3E027
:100A200000BFC1E07B681B6B012B40F0A1807B6A9B
:100A300003F01003002B00F09B803B6A03F01003CF
:100A4000002B00F095800023FB607B681B681B680F
:100A5000FB607B681B685B68FB60FB687B681B68EE
:100A60005B6903F04003002B4ED07B689B6B1B68D7
:100A70005B683B823B8A002B00F098807B689B8DF3
:100A80003A8A9A4280F092807B683A8ADA857B685B
:100A90009B6B9B69202B2BD07B681B68DA687B687B
:100AA0001B6822F48072DA607B681B685A697B6875
:100AB0001B6822F001025A617B681B685A697B68D7
:100AC0001B6822F040025A617B68202283F83E2096
:100AD0007B6800221A637B681B68DA687B681B6886
:100AE00022F01002DA607B689B6B1846FDF77BFFF3
:100AF0007B689A8D7B68DB8D9BB2D31A9BB21946BB
:100B0000786800F06DF851E07B689A8D7B68DB8D2A
:100B10009BB2D31A7B827B68DB8D9BB2002B47D0C4
:100B20007B8A002B44D07B681B68DA687B681B6873
:100B300022F49072DA607B681B685A697B681B68D4
:100B400022F001025A617B68202283F83E207B68F4
:100B500000221A637B681B68DA687B681B6822F0D6
:100B60001002DA607B8A1946786800F039F81FE0D5
:100B70007B6A03F08003002B08D03B6A03F08003FC
:100B8000002B03D0786800F0F9F812E07B6A03F0DC
:100B90004003002B0DD03B6A03F04003002B08D02C
:100BA000786800F03AF904E000BF02E000BF00E01E
:100BB00000BF2837BD4680BD550D010880B483B005
:100BC00000AF786000BF0C37BD4680BC704780B472
:100BD00083B000AF786000BF0C37BD4680BC704763
:100BE00080B483B000AF78600B467B8000BF0C37C9
:100BF000BD4680BC704780B584B000AFF860B96076
:100C00003B601346FB712CE0BB69B3F1FF3F28D07A
:100C1000BB69002B07D0FDF7ABFD02463B68D31A3A
:100C2000BA699A421DD2FB681B68DA68FB681B68C8
:100C300022F4D072DA60FB681B685A69FB681B6893
:100C400022F001025A61FB68202283F83D20FB68F4
:100C5000202283F83E20FB68002283F83C200323F7
:100C60000FE0FB681B681A68BB681340BA689A42B9
:100C70000CBF01230023DBB21A46FB799A42C3D092
:100C8000002318461037BD4680BD80B485B000AF44
:100C9000F860B9601346FB80FB68BA689A62FB682B
:100CA000FA889A85FB68FA88DA85FB6800221A645C
:100CB000FB68222283F83E20FB68002283F83C2058
:100CC000FB681B68DA68FB681B6842F48072DA60B4
:100CD000FB681B685A69FB681B6842F001025A6195
:100CE000FB681B68DA68FB681B6842F02002DA6068
:100CF000002318461437BD4680BC704780B483B0CB
:100D000000AF78607B681B68DA687B681B6822F438
:100D10009072DA607B681B685A697B681B6822F0F6
:100D200001025A617B681B6B012B07D17B681B6832
:100D3000DA687B681B6822F01002DA607B68202288
:100D400083F83E207B6800221A6300BF0C37BD4643
:100D500080BC704780B584B000AF78607B685B6A08
:100D6000FB60FB680022DA85FB680022DA84F86801
:100D7000FFF72DFF00BF1037BD4680BD80B485B0A2
:100D800000AF78607B6893F83D30DBB2212B3ED119
:100D90007B689B68B3F5805F14D17B681B69002B6F
:100DA00010D17B681B6AFB60FB681B881A467B6856
:100DB0001B68C2F308025A607B681B6A9A1C7B6836
:100DC0001A6208E07B681B6A591C7A6811621A78FB
:100DD0007B681B685A607B68DB8C9BB2013B9BB2D3
:100DE0007A681946D184002B0FD17B681B68DA68BA
:100DF0007B681B6822F08002DA607B681B68DA6817
:100E00007B681B6842F04002DA60002300E00223A6
:100E100018461437BD4680BC704780B582B000AF1D
:100E200078607B681B68DA687B681B6822F0400288
:100E3000DA607B68202283F83D207868FFF7BEFEE9
:100E4000002318460837BD4680BD80B586B000AF88
:100E500078607B6893F83E30DBB2222B40F09980BB
:100E60007B689B68B3F5805F17D17B681B69002B9B
:100E700013D100237B617B689B6A3B617B681B68A5
:100E80005B689BB2C3F308039AB23B691A807B6824
:100E90009B6A9A1C7B689A6226E07B689B6A7B61EE
:100EA00000233B617B689B68B3F5805F07D07B685C
:100EB0009B68002B0AD17B681B69002B06D17B68DD
:100EC0001B685B68DAB27B691A7008E07B681B6894
:100ED0005B68DBB203F07F03DAB27B691A707B6870
:100EE0009B6A5A1C7B689A627B68DB8D9BB2013BD4
:100EF0009BB27A681946D185002B48D17B681B6864
:100F0000DA687B681B6822F02002DA607B681B6865
:100F1000DA687B681B6822F48072DA607B681B6881
:100F20005A697B681B6822F001025A617B682022A3
:100F300083F83E207B681B6B012B23D17B6800224A
:100F40001A637B681B68DA687B681B6822F01002F2
:100F5000DA607B681B681B6803F01003102B0AD152
:100F60000023FB607B681B681B68FB607B681B6859
:100F70005B68FB60FB687B689B8D19467868FFF7B0
:100F80002FFE02E07868FBF751FF002302E0002308
:100F900000E0022318461837BD4680BD80B584B0F6
:100FA00000AF78607B681B681B6923F440517B6845
:100FB000DA687B681B680A431A617B689A687B68F9
:100FC0001B691A437B685B691343BB607B681B68C2
:100FD000DB6823F4B05323F00C037A681268B96815
:100FE0000B43D3607B681B685B6923F440717B68AB
:100FF0009A697B681B680A435A617B681B682C4AA4
:10100000934203D1FFF722F8F86002E0FFF70AF8F5
:10101000F860FA6813469B0013449A001A447B68F0
:101020005B689B00B2FBF3F3224AA2FB03235B093C
:101030001901FA6813469B0013449A001A447B680E
:101040005B689B00B2FBF3F21A4BA3FB02035B0944
:10105000642000FB03F3D31A1B013233154AA2FBB1
:1010600003235B0903F0F0031944FA6813469B005D
:1010700013449A001A447B685B689B00B2FBF3F24E
:101080000C4BA3FB02035B09642000FB03F3D31AA0
:101090001B013233074AA2FB03235B0903F00F0253
:1010A0007B681B680A449A6000BF1037BD4680BD4C
:1010B000003801401F85EB510A22002100F012B9CF
:1010C000014B1868704700BFD800002070B500269B
:1010D0000C4D0D4C641BA410A64209D100F058FD24
:1010E00000260A4D0A4C641BA410A64205D170BD0F
:1010F00055F8043B98470136EEE755F8043B98470E
:101100000136F2E7B01F0108B01F0108B01F010847
:10111000B41F01080A44914200F1FF3300D1704727
:1011200010B511F8014B914203F8014FF9D110BDF0
:1011300003460244934200D1704703F8011BF9E7CC
:101140000EB46FF0004100B59CB01DAB029006904C
:10115000079104910848094953F8042B0591006848
:1011600002A9019300F024F90022029B1A701CB01E
:101170005DF804EB03B07047D80000200802FFFFC1
:101180000346C9B2184613F8012B12B18A42F9D1AD
:101190007047002918BF00207047034610B5013979
:1011A00032B111F8014F013A03F8014B002CF7D18D
:1011B00000211A44934200D110BD03F8011BF9E746
:1011C0000A7870B56AB970BD9A4209D10C460546D5
:1011D00014F8013F002BF6D015F8016F9E42F7D0AE
:1011E00001300378002BEFD11846ECE7012B2DE9F5
:1011F000F047804601D0242B06D9FFF761FF162364
:1012000003600020BDE8F0870D46354F284615F8ED
:10121000014BE65D16F00806F8D12D2C2FD10126E2
:101220002C78851C002B57D0102B09D1302C07D1DE
:10123000287800F0DF00582849D110236C78023557
:10124000002706F1004E0EF1FF3EBEFBF3F93846D3
:1012500003FB19EAA4F1300CBCF1090F14D8644661
:10126000A34222DD002F1DDB81451BD301D1A24506
:1012700018DB012700FB034015F8014BEAE72B2C94
:1012800004BF2C78851CCDE7A4F1410CBCF1190FEB
:1012900001D8373CE4E7A4F1610CBCF1190F04D884
:1012A000573CDDE74FF0FF37E6E7002F07DA222350
:1012B0007046C8F80030002AA4D0691E05E006B1C7
:1012C0004042002A9ED0002FF7D111609AE73024C7
:1012D000002BB5D10823B3E7302CA9D00A23AFE700
:1012E0007D1E010813460A46014602480068FFF7C2
:1012F0007DBF00BFD80000202DE9F0478E688246F0
:101300009E420C4690461F4638D88A8912F4906F48
:1013100032D0256809690133A5EB010965694B44A1
:1013200005EB450505EBD5756D109D4238BF1D4693
:10133000530531D5294600F061FB064650B90C2310
:101340004FF0FF30CAF80030A38943F04003A38177
:10135000BDE8F0874A462169FFF7DCFEA38923F444
:10136000906343F08003A38126614E4426603E468D
:101370006561A5EB0905A560BE4200D93E4632462F
:101380004146206800F0B8FAA36800209B1BA360C8
:10139000236833442360DBE72A4600F0A3FB0646BC
:1013A0000028E1D15046216900F0C0FAC7E70000EB
:1013B0002DE9F04F98468B8907461B060D461446CB
:1013C0009DB00ED50B6963B9402100F017FB286072
:1013D000286120B90C233B604FF0FF30D1E040235F
:1013E0006B610023099320238DF8293030234FF0BF
:1013F0000109CDF80C80DFF8A4818DF82A3023464E
:101400009A4613F8012B0AB1252AF9D1BAEB040B3D
:101410000BD05B46224629463846FFF76DFF013068
:1014200000F0AA80099A5A4409929AF80030002BD9
:1014300000F0A28000234FF0FF32CDE905230AF12E
:10144000010A049307938DF853301A9354460522EA
:1014500014F8011B514800F041FA049AD8B9D0069B
:1014600044BF20238DF85330110744BF2B238DF840
:1014700053309AF800302A2B15D0544600204FF0F4
:101480000A0C079A214611F8013B303B092B4ED933
:10149000B0B1079214E0A0EB080309FA03F3134379
:1014A000A2460493D2E7039B191D1B680391002BEE
:1014B000BBBF5B4242F0020207930793B8BF04929E
:1014C00023782E2B0CD163782A2B35D1039B023441
:1014D0001A1D1B680392002BB8BF4FF0FF33059312
:1014E000DFF8BCA003225046217800F0F7F940B1A4
:1014F0004023A0EB0A0003FA00F0049B01340343ED
:10150000049314F8011B062226488DF8281000F0D9
:10151000E5F9002838D0244B1BBB039B073323F08D
:10152000070308330393099B3344099367E70C4689
:1015300001200CFB0232A5E700234FF00A0C1946EC
:1015400001340593204610F8012B303A092A03D9BB
:10155000002BC5D00591C3E7044601230CFB0121F4
:10156000F0E703AB00932A463846104B04A9AFF3CB
:101570000080421C0646D6D1AB895B063FF52CAFF6
:1015800009981DB0BDE8F08F03AB00932A4638469A
:10159000064B04A900F07CF8EBE700BF7D1F0108B3
:1015A000831F0108871F010800000000F9120108CD
:1015B0002DE9F047164699468A680B69074693421B
:1015C000B8BF1346336091F843200C46DDF8208005
:1015D0000AB1013333602368990642BF336802338E
:1015E0003360256815F0060506D104F1190AE36891
:1015F00032689B1AAB4228DC94F84320131E226801
:1016000018BF012392062DD44946384604F14302FF
:10161000C047013020D02368E56803F00603042B9F
:1016200018BF002532684FF00006A36808BFAD1A46
:10163000226908BF25EAE5759342C4BF9B1AED18DD
:101640001A34B5421AD1002008E001235246494617
:101650003846C047013003D14FF0FF30BDE8F08776
:101660000135C4E73020E11881F843005A1C94F892
:1016700045102244023382F84310C5E70123224675
:1016800049463846C0470130E6D00136D9E7000068
:101690002DE9FF470F7E9146782F80460C469A46EB
:1016A0000C9D01F1430207D8622F0AD8002F00F0E9
:1016B000D980582F00F0A48004F1420584F84270CC
:1016C0003AE0A7F16303152BF6D801A151F823F0F6
:1016D000291701083D170108B9160108B9160108B4
:1016E000B9160108B91601083D170108B916010815
:1016F000B9160108B9160108B91601084B180108F6
:101700006D1701082D180108B9160108B91601084E
:101710006D180108B91601086D170108B9160108FE
:10172000B9160108351801082B681A1D1B682A60B4
:1017300004F1420584F842300123A4E020682968BE
:10174000060601F104030AD50E682B60002E03DAA9
:101750002D23764284F843300A235E4819E00E6850
:1017600010F0400F2B6018BF36B2EFE72B682068EF
:10177000191D2960010601D51E6802E04606FBD549
:101780001E886F2F0CBF08230A235248002184F8BB
:1017900043106568002DA8BF2168A560A4BF21F093
:1017A000040121600EB9002D4DD01546B6FBF3F1B2
:1017B00003FB1167C75D05F8017D3746BB420E4646
:1017C000F4D9082B0BD12368DE0708D5236961689B
:1017D0009942DEBF302305F8013C05F1FF35521B6D
:1017E00022614B4621464046CDF800A003AAFFF7F0
:1017F000DFFE01304CD14FF0FF3004B0BDE8F08780
:10180000344881F845702968236851F8046B2960D1
:101810001D0614D5DF0744BF43F0200323601EB923
:10182000236823F0200323601023AFE7236843F0ED
:10183000200323607823284884F84530E3E75906DD
:1018400048BFB6B2E6E71546BBE72B682668181D09
:101850006169286035061B6801D5196002E07006D1
:10186000FBD51980002315462361BAE72B680021B8
:101870001A1D2A601D686268284600F02FF808B11A
:10188000401B606063682361002384F84330A8E74D
:101890002A46494640462369D0470130ABD02368E9
:1018A0009B0713D4E068039B9842B8BF1846A4E78F
:1018B0000123324649464046D04701309BD001358E
:1018C000E36803995B1AAB42F2DCEBE7002504F115
:1018D0001906F5E78E1F01089F1F0108034610B582
:1018E000C9B202449342184601D1002003E00478B3
:1018F00001338C42F6D110BD884210B501EB0204D1
:1019000002D98442234607D8431EA14208D011F8C9
:10191000012B03F8012FF8E7014602448A4200D167
:1019200010BD13F8014D02F8014DF7E738B5054633
:10193000002940D051F8043C0C1F002BB8BFE4181C
:1019400000F010F91C4A136833B96360146028462C
:10195000BDE8384000F00CB9A34208D9206821182E
:101960008B4201BF19685B6809182160EDE71A46D0
:101970005B680BB1A342FAD911685018A0420BD191
:1019800020680144501883421160E0D118685B68F8
:10199000014411605360DAE702D90C232B60D6E7CB
:1019A000206821188B4201BF19685B680918216003
:1019B00063605460CBE738BD9404002070B50E4ED0
:1019C0000C463168054611B900F0BCF8306021467C
:1019D000284600F0B7F8431C0AD0C41C24F00304C6
:1019E000A04207D0211A284600F0ACF8013001D1FE
:1019F0004FF0FF34204670BD980400202DE9F041DF
:101A0000CD1C25F0030508350C2D38BF0C25002D05
:101A1000074601DBA94205D90C2300263B6030466E
:101A2000BDE8F0812E4E00F09DF833681C4634BBB3
:101A300029463846FFF7C2FF431C04464DD134689F
:101A40002646002E40D123683146384604EB030871
:101A500000F078F880453AD1216803356D1A25F0F9
:101A6000030508350C2D38BF0C2538462946FFF7ED
:101A7000A5FF01302BD023682B4423600EE02268A1
:101A8000521B1ED40B2A16D96119A342256018BF18
:101A90005960636808BF316062514B60384604F199
:101AA0000B0600F065F826F00706231DF21AB6D0E3
:101AB0009B1BA350B3E76268A3420CBF32605A601D
:101AC000ECE723466468B2E734467668B9E70C234E
