:020000040800F2
:10C000000050002059EC00083DE9000843E9000811
:10C0100051E9000857E900085DE900080000000048
:10C0200000000000000000000000000063E90008BC
:10C030006FE90008000000007BE9000887E90008BC
:10C04000A1EC0008A1EC0008A1EC0008A1EC00089C
:10C05000A1EC0008A1EC0008A1EC0008A1EC00088C
:10C06000A1EC0008A1EC0008A1EC0008A1EC00087C
:10C07000A1EC0008A1EC0008A1EC0008A1EC00086C
:10C08000A1EC0008A1EC0008A1EC0008A1EC00085C
:10C09000A1EC0008A1EC0008A1EC0008A1EC00084C
:10C0A000A1EC000895E90008A1EC0008A1EC00084B
:10C0B000A9E90008A1EC0008A1EC0008A1EC000827
:10C0C000A1EC0008A1EC0008A1EC0008A1EC00081C
:10C0D000A1EC0008BDE90008A1EC0008A1EC0008F3
:10C0E000A1EC0008A1EC0008A1EC00080000000091
:10C0F0000000000000000000000000000000000040
:0CC1000000000000000000005FF808F1E3
:10C10C0010B5054C237833B9044B13B10448AFF385
:10C11C0000800123237010BD4001002000000000AE
:10C12C00482D010808B5034B1BB103490348AFF375
:10C13C00008008BD0000000044010020482D0108CB
:10C14C00034613F8012B002AFBD1181A013870474B
:10C15C0053B94AB9002908BF00281CBF4FF0FF3162
:10C16C004FF0FF3000F076B9ADF1080C6DE904CE5C
:10C17C0000F006F8DDF804E0DDE9022304B07047B6
:10C18C002DE9F047089E0D4604468846002B4DD1FC
:10C19C008A42944668D9B2FA82F252B101FA02F399
:10C1AC00C2F1200120FA01F10CFA02FC41EA030869
:10C1BC0094404FEA1C41B8FBF1F71FFA8CFE01FBCF
:10C1CC00178807FB0EF0230C43EA084398420AD960
:10C1DC001CEB030307F1FF3580F01E81984240F2FF
:10C1EC001B81023F63441B1AB3FBF1F001FB1033BC
:10C1FC0000FB0EFEA4B244EA0344A6450AD91CEB8C
:10C20C00040400F1FF3380F00981A64540F2068159
:10C21C00644402380021A4EB0E0440EA07401EB12E
:10C22C000023D440C6E90043BDE8F0878B4208D90F
:10C23C00002E00F0EE800021C6E900050846BDE89E
:10C24C00F087B3FA83F100294AD1AB4202D3824280
:10C25C0000F2FC80841A65EB030301209846002E43
:10C26C00E2D0C6E90048DFE702B9FFDEB2FA82F29B
:10C27C00002A40F09180A1EB0C0001214FEA1C47F1
:10C28C001FFA8CFEB0FBF7F307FB1300250C45EAF5
:10C29C0000450EFB03F0A84208D91CEB050503F181
:10C2AC00FF3802D2A84200F2CE8043462D1AB5FBCD
:10C2BC00F7F007FB10550EFB00FEA4B244EA054450
:10C2CC00A64508D91CEB040400F1FF3502D2A645A3
:10C2DC0000F2B6802846A4EB0E0440EA03409EE729
:10C2EC00C1F120078B4022FA07FC4CEA030C25FA1B
:10C2FC0007FA4FEA1C49BAFBF9F820FA07F309FBD5
:10C30C0018AA8D401FFA8CFE1D4300FA01F308FB9E
:10C31C000EF02C0C44EA0A44A04202FA01F20BD9AA
:10C32C001CEB040408F1FF3A80F08880A04240F234
:10C33C008580A8F102086444241AB4FBF9F009FBC7
:10C34C00104400FB0EFEADB245EA0444A64508D9E4
:10C35C001CEB040400F1FF356CD2A6456AD90238F7
:10C36C00644440EA0840A0FB0295A4EB0E04AC42E6
:10C37C00C846AE4656D353D0002E69D0B3EB080254
:10C38C0064EB0E0422FA01F304FA07F71F43CC40C6
:10C39C00C6E90074002147E70CFA02FCC2F1200147
:10C3AC0025FA01F34FEA1C4720FA01F195400D43A1
:10C3BC00B3FBF7F107FB11331FFA8CFE280C40EA94
:10C3CC00034001FB0EF3834204FA02F408D91CEB80
:10C3DC00000001F1FF382FD283422DD9023960447D
:10C3EC00C01AB0FBF7F307FB1300ADB245EA0045EA
:10C3FC0003FB0EF0A84208D91CEB050503F1FF382E
:10C40C0016D2A84214D9023B6544281A43EA0141CA
:10C41C0038E73146304607E72F46E4E61846F9E69A
:10C42C004B45A9D2B9EB020865EB0C0E0138A3E71A
:10C43C004346EAE7284694E74146D1E7D0467BE7F6
:10C44C006444023847E7023B65442FE7084606E799
:10C45C003146E9E6704700BF80B582B000AF0346B5
:10C46C000A46FB711346BB7100F0DEFC4E490120FD
:10C47C0000F038FDFA79BB791146184600F0EAFC59
:10C48C00012000F058FD4949022000F02BFDBB793A
:10C49C000133DBB2FA791146184600F0DBFC0220BE
:10C4AC0000F049FD4249032000F01CFDBB7902332A
:10C4BC00DBB2FA791146184600F0CCFC032000F0F0
:10C4CC003AFD3C49042000F00DFDBB790333DBB28F
:10C4DC00FA791146184600F0BDFC042000F02BFD43
:10C4EC003549052000F0FEFCBB790533DBB2FA7947
:10C4FC001146184600F0AEFC052000F01CFDBB797F
:10C50C000633DBB2FA791146184600F0A3FC04207E
:10C51C0000F011FD2949062000F0E4FCBB7907333B
:10C52C00DBB2FA791146184600F094FC062000F0B4
:10C53C0002FDBB790833DBB2FA791146184600F0DC
:10C54C0089FC042000F0F7FC1D49072000F0CAFC10
:10C55C00BB790933DBB2FA791146184600F07AFC44
:10C56C00072000F0E8FC1749082000F0BBFCBB7961
:10C57C000A33DBB2FA791146184600F06BFC08203E
:10C58C0000F0D9FCBB790B33DBB2FA7911461846B3
:10C59C0000F060FC042000F0CEFC0B4800F0D8FC4E
:10C5AC0000BF0837BD4680BD0800002010000020E9
:10C5BC0068000020200000203000002070000020C7
:10C5CC005800002038000020602D010880B582B092
:10C5DC0000AF03460A46FB711346BB7100F024FC06
:10C5EC004849012000F07EFCFA79BB7911461846C7
:10C5FC0000F030FC012000F09EFC4349022000F0CA
:10C60C0071FCBB790133DBB2FA791146184600F0A4
:10C61C0021FC022000F08FFC3C49032000F062FC5E
:10C62C00BB790233DBB2FA791146184600F012FCE2
:10C63C00032000F080FCBB790333DBB2FA7911469E
:10C64C00184600F007FC022000F075FC304904206D
:10C65C0000F048FCBB790433DBB2FA79114618467A
:10C66C0000F0F8FB042000F066FC2A49052000F0DD
:10C67C0039FCBB790533DBB2FA791146184600F068
:10C68C00E9FB052000F057FC2349062000F02AFCAA
:10C69C00BB790633DBB2FA791146184600F0DAFBA7
:10C6AC00062000F048FCBB790833DBB2FA7911465E
:10C6BC00184600F0CFFB022000F03DFC1749072084
:10C6CC0000F010FCBB790933DBB2FA79114618463D
:10C6DC0000F0C0FB072000F02EFCBB790A33DBB264
:10C6EC00FA791146184600F0B5FB022000F023FC45
:10C6FC00022000F020FC0A4800F02AFC00BF08379A
:10C70C00BD4680BD300000202000002040000020ED
:10C71C0000000020080000203800002070000020DD
:10C72C00602D010880B582B000AF03460A46FB714C
:10C73C001346BB7100F078FB5949012000F0D2FB85
:10C74C00FA79BB791146184600F084FB012000F001
:10C75C00F2FB5449022000F0C5FBBB790133DBB27C
:10C76C00FA791146184600F075FB022000F0E3FB45
:10C77C004D49032000F0B6FBBB790233DBB2FA79EA
:10C78C001146184600F066FB032000F0D4FB474925
:10C79C00042000F0A7FBBB790333DBB2FA79114616
:10C7AC00184600F057FB042000F0C5FB404905205B
:10C7BC0000F098FBBB790433DBB2FA7911461846CA
:10C7CC0000F048FB052000F0B6FB3A49062000F0CB
:10C7DC0089FBBB790533DBB2FA791146184600F0B8
:10C7EC0039FB062000F0A7FB3349072000F07AFB49
:10C7FC00BB790733DBB2FA791146184600F02AFBF5
:10C80C00072000F098FBBB790833DBB2FA791146AC
:10C81C00184600F01FFB032000F08DFB2749082071
:10C82C0000F060FBBB790933DBB2FA79114618468C
:10C83C0000F010FB082000F07EFBBB790A33DBB262
:10C84C00FA791146184600F005FB032000F073FB43
:10C85C00BB790B33DBB2FA791146184600F0FAFAC1
:10C86C00062000F068FBBB790C33DBB2FA79114679
:10C87C00184600F0EFFA022000F05DFBBB790233A2
:10C88C00DAB2FB790133DBB21946104600F0E2FA5A
:10C89C000B4800F05DFB00BF0837BD4680BD00BFF4
:10C8AC00600000203800002020000020180000202C
:10C8BC00780000205800002030000020700000207C
:10C8CC00682D010880B582B000AF03460A46FB71A3
:10C8DC001346BB7100F0A8FA3949012000F002FBA5
:10C8EC00FA79BB791146184600F0B4FA012000F031
:10C8FC0022FB3449022000F0F5FABB790133DBB29C
:10C90C00FA791146184600F0A5FA022000F013FB44
:10C91C002D49032000F0E6FABB790233DBB2FA7939
:10C92C001146184600F096FA032000F004FB274944
:10C93C00042000F0D7FABB790333DBB2FA79114645
:10C94C00184600F087FA042000F0F5FA022000F0F7
:10C95C00F2FA1F49052000F0C5FABB790533DBB2AA
:10C96C00FA791146184600F075FA052000F0E3FA42
:10C97C001849062000F0B6FABB790633DBB2FA7917
:10C98C001146184600F066FA062000F0D4FA124957
:10C99C00072000F0A7FABB790733DBB2FA7911460E
:10C9AC00184600F057FA072000F0C5FA022000F0F4
:10C9BC00C2FA0A4800F0CCFA00BF0837BD4680BD69
:10C9CC00800000202000002070000020600000206B
:10C9DC00580000207800002030000020602D010855
:10C9EC0080B582B000AF03460A46FB711346BB719B
:10C9FC0000F01AFA3A49012000F074FAFA79BB797E
:10CA0C001146184600F026FA012000F094FA354938
:10CA1C00022000F067FABB790133DBB2FA791146D8
:10CA2C00184600F017FA022000F085FA2E49032070
:10CA3C0000F058FABB790233DBB2FA79114618468A
:10CA4C0000F008FA032000F076FA2849042000F0E0
:10CA5C0049FABB790333DBB2FA791146184600F078
:10CA6C00F9F9042000F067FA2149052000F03AFAA0
:10CA7C00BB790433DBB2FA791146184600F0EAF9B7
:10CA8C00052000F058FA1B49062000F02BFABB7960
:10CA9C000533DBB2FA791146184600F0DBF90620B3
:10CAAC0000F049FA1449072000F01CFABB79063350
:10CABC00DBB2FA791146184600F0CCF9072000F0E9
:10CACC003AFABB790733DBB2FA791146184600F013
:10CADC00C1F90A4800F03CFA00BF0837BD4680BDDA
:10CAEC0028000020780000204800002018000020BA
:10CAFC00500000206000002020000020602D010864
:10CB0C0080B582B000AF03460A46FB711346BB7179
:10CB1C0000F08AF93A49012000F0E4F9FA79BB797E
:10CB2C001146184600F096F9012000F004FA354938
:10CB3C00022000F0D7F9BB790133DBB2FA79114648
:10CB4C00184600F087F9022000F0F5F92E49032071
:10CB5C0000F0C8F9BB790233DBB2FA7911461846FA
:10CB6C0000F078F9032000F0E6F92849042000F0E1
:10CB7C00B9F9BB790333DBB2FA791146184600F0E8
:10CB8C0069F9042000F0D7F9BB790433DBB2FA79E8
:10CB9C001146184600F05EF9022000F0CCF9BB7982
:10CBAC000533DBB2FA791146184600F053F901202F
:10CBBC0000F0C1F91649052000F094F9BB79063351
:10CBCC00DBB2FA791146184600F044F9052000F062
:10CBDC00B2F91049062000F085F9BB790733DBB2B6
:10CBEC00FA791146184600F035F9062000F0A3F941
:10CBFC00094800F0ADF900BF0837BD4680BD00BF45
:10CC0C0018000020200000203800002048000020E0
:10CC1C007800002058000020602D010880B582B0FB
:10CC2C0000AF03460A46FB711346BB7100F0FCF8DB
:10CC3C003449012000F056F9FA79BB7911461846AF
:10CC4C0000F008F9012000F076F92F49022000F0DD
:10CC5C0049F9BB790133DBB2FA791146184600F079
:10CC6C00F9F8022000F067F92849032000F03AF99E
:10CC7C00BB790233DBB2FA791146184600F0EAF8B8
:10CC8C00032000F058F9022000F055F9BB7903336A
:10CC9C00DBB2FA791146184600F0DCF81C49052085
:10CCAC0000F020F9BB790433DBB2FA79114618464F
:10CCBC0000F0D0F8052000F03EF91649062000F0EF
:10CCCC0011F9BB790533DBB2FA791146184600F03D
:10CCDC00C1F8062000F02FF90F49072000F002F9E7
:10CCEC00BB790633DBB2FA791146184600F0B2F87C
:10CCFC00072000F020F9094800F02AF900BF083796
:10CD0C00BD4680BD300000202000002040000020E7
:10CD1C00000000200800002038000020742D0108BD
:10CD2C0080B582B000AF0346FB71384AFB791370B3
:10CD3C00374B08221A70374B00221A70334B1B7872
:10CD4C00012B07D9334B1B7843F00803DAB2314B74
:10CD5C001A7006E02F4B1B7843F00403DAB22D4B0C
:10CD6C001A7000F093F9322002F016F8284B1B7859
:10CD7C00184600F051F94FF47A7002F00DF830209B
:10CD8C0000F038F941F2941000F0A8F9302000F0CE
:10CD9C0031F941F2941000F0A1F9302000F02AF999
:10CDAC0041F2941000F09AF9202000F023F964204D
:10CDBC0000F094F9174B1B7843F02003DBB21846B4
:10CDCC0000F0DBF8144B04221A7000F075F800F038
:10CDDC002BF8124B02221A70104B1B7843F00403F1
:10CDEC00DBB2184600F0C9F841F2941000F076F965
:10CDFC000B49002000F076F80A49012000F072F887
:10CE0C0000F01DF800BF0837BD4680BD5F01002053
:10CE1C00600100205C0100205D0100205E0100200B
:10CE2C00880000209000002080B500AF012000F0A9
:10CE3C00A4F84FF4FA6000F051F900BF80BD80B542
:10CE4C0000AF022000F099F84FF4FA6000F046F9B8
:10CE5C0000BF80BD90B587B000AF03460A46FB719A
:10CE6C001346BB71124B07F108040FCB84E80F007B
:10CE7C00104B1B78BA799A4203D30E4B1B78013BAB
:10CE8C00BB71BB799B0018333B4453F8103CDAB2AE
:10CE9C00FB791344DBB25BB263F07F035BB2DBB2B2
:10CEAC00184600F06AF800BF1C37BD4690BD00BFA5
:10CEBC00782D01085F01002080B500AF084B1B786E
:10CECC0043F00403DAB2064B1A70054B1B7843F09F
:10CEDC000803DBB2184600F050F800BF80BD00BF5D
:10CEEC005D01002080B584B000AF03463960FB7152
:10CEFC00FB7903F00703FB71FB79DB005BB243F0BA
:10CF0C0040035BB2DBB2184600F037F80023FB603D
:10CF1C0009E0FB683A6813441B78184600F03BF8AC
:10CF2C00FB680133FB60FB68072BF2DD00BF00BF21
:10CF3C001037BD4680BD80B582B000AF0346FB7193
:10CF4C00FB79184600F027F800BF0837BD4680BDB6
:10CF5C0080B582B000AF786006E07B685A1C7A60BE
:10CF6C001B78184600F017F87B681B78002BF4D15F
:10CF7C0000BF00BF0837BD4680BD80B582B000AF92
:10CF8C000346FB71FB790021184600F012F800BF34
:10CF9C000837BD4680BD80B582B000AF0346FB713B
:10CFAC00FB790121184600F004F800BF0837BD4694
:10CFBC0080BD80B584B000AF03460A46FB711346B2
:10CFCC00BB71FB7923F00F03FB73FB791B01BB7364
:10CFDC00FA7BBB791343DBB2184600F00BF8BA7B33
:10CFEC00BB791343DBB2184600F004F800BF1037CE
:10CFFC00BD4680BD80B582B000AF0346FB71FB79A6
:10D00C00184600F009F8FB79184600F021F800BF2B
:10D01C000837BD4680BD000080B586B002AF034620
:10D02C00FB71094B1A78FB791343DBB2FB7307F1E5
:10D03C000F020A23009301234E21044802F08AFBBD
:10D04C0000BF1037BD4680BD600100207403002076
:10D05C0080B582B000AF0346FB71FB7943F004034B
:10D06C00DBB21846FFF7D8FF142000F037F8FB7935
:10D07C0023F00403DBB21846FFF7CEFF142000F0B8
:10D08C002DF800BF0837BD4680BD000080B400AF4E
:10D09C00104BDB680F4A23F08073D3600D4BDB68B9
:10D0AC000C4A43F08073D3600B4B1B680A4A23F085
:10D0BC0001031360084B1B68074A43F0010313601C
:10D0CC00054B00225A6000BF00BF00BF00BFBD4629
:10D0DC0080BC7047F0ED00E0001000E080B487B039
:10D0EC0000AF78600D4B1B680D4AA2FB03239A0C12
:10D0FC007B6802FB03F37B610A4B5B683B61094B6A
:10D10C005A683B69D31AFB60FB687A699A42F6D875
:10D11C0000BF00BF1C37BD4680BC7047CC00002050
:10D12C0083DE1B43001000E080B582B000AF786056
:10D13C00114B1B687B2B02DD0F4B00221A600E4B30
:10D14C001B680E4AD35C212B0ED00B4B1B68013392
:10D15C00094A1360084B1B68084A134401221946FC
:10D16C00074804F0D2FA02E0064B01221A7000BF05
:10D17C000837BD4680BD00BF5C030020780200204C
:10D18C00B00400207501002080B582B000AF78603B
:10D19C007B681B680D4A934214D10D4B1B78052BF1
:10D1AC0006D90B4B00221A700A4803F051FE09E015
:10D1BC000121094802F070F9054B1B780133DAB2F2
:10D1CC00034B1A7000BF0837BD4680BD002C0140D0
:10D1DC007401002020040020000C014080B592B0A6
:10D1EC0000AF72B600BFBA4BBA4A9A6062B600BFC3
:10D1FC0001F052FD00F088FA00F024FC00F0CAFAAD
:10D20C0000F0F6FA00F0CAFB00F0F2FB00F026FB8F
:10D21C0000F076FB0220FFF783FD01F02CF80023D1
:10D22C0087F84730AC4B1B68AC4A1360AC4BD3E966
:10D23C000023AC49C1E90023AA4BD3E900231046D3
:10D24C00194600F0BFFC0346A74A1360A64B1A68A8
:10D25C00A24B1B68A549A64805F034F9A54B1B68E1
:10D26C00A54A134401221946A44804F04EFA01F0D1
:10D27C0089FD0346A24A136002210020FFF752FAEF
:10D28C00012001F0A7F997F84730012B17D101F0D5
:10D29C0079FD02463B6CD31A44F61F6293420ED9B9
:10D2AC0004210020FFF79CFB40F6B83001F074FD20
:10D2BC0002210020FFF736FA002387F8473001F0EF
:10D2CC0061FD02468F4B1B68D31AB3F57A7F04D3EA
:10D2DC00002202218C4802F0C7F801F053FD0246EF
:10D2EC00874B1B68D31A894A934227D997F8473042
:10D2FC00002B23D1864B1A68864B1B689A4203DBA2
:10D30C004FF0006000F025FC7948FEF719FF03464A
:10D31C00184600F03BFC7648FEF712FF03469AB223
:10D32C0032237349754804F06DF901F02BFD034667
:10D33C00734A1360774B1B68754A1360764B1B78E6
:10D34C00002B00F06B816B4B1B6819466A4801F08F
:10D35C00FFFB78637B6BB3F5967F80F22D817B6B43
:10D36C00B3F5917F0DDC7B6BCA2B25D07B6BCA2B65
:10D37C0000F322817B6BC82B4AD07B6BC92B4DD021
:10D38C001AE17B6BA3F22313082B00F2158101A287
:10D39C0052F823F0ABD40008C5D500087BD40008A4
:10D3AC00C5D50008C5D5000835D5000865D50008D9
:10D3BC00C5D5000895D5000801220221524802F07B
:10D3CC0053F801F0DFFC03464E4A1360534803F058
:10D3DC00EDFC03210020FFF775FA514801F072FBB8
:10D3EC004F48FEF7ADFE03461A464E4B1A604D4BA6
:10D3FC001B68184600F0CAFB322001F0CDFC494BEB
:10D40C001B689AB20A2346493C4804F0FBF8EBE04F
:10D41C00404B1B6801333F4A1360E5E0354B1B68FA
:10D42C003A461946344801F001FB00210020FFF771
:10D43C00F5FB3B461846FFF78BFD4FF47A7001F075
:10D44C00ABFC00220221304802F00EF84FF47A7047
:10D45C0001F0A2FC02210020FFF764F9002387F8F9
:10D46C004730FF2200212E4804F038FFBCE0FFF7C4
:10D47C00DBFC00210020FFF7EDFC00210020FEF773
:10D48C00EBFF01F09FFA4FF47A7001F085FC02215A
:10D49C000020FFF747F9002387F84730A4E0FFF797
:10D4AC00C3FC00210020FFF7D5FC00210020FFF772
:10D4BC008DF801F087FA4FF47A7001F06DFC0221BF
:10D4CC000020FFF72FF9002387F847308CE000BFCE
:10D4DC0000ED00E000C00008F0BF00086003002071
:10D4EC0000B000086803002070030020B82D01086C
:10D4FC00F80200205C03002078020020B004002019
:10D50C006401002068010020000C0140BFD4010020
:10D51C006C010020980000207501002020040020E0
:10D52C007801002070010020FFF77EFC0021002014
:10D53C00FFF790FC3B461846FFF70AFD01F042FA54
:10D54C0040F6B83001F028FC02210020FFF7EAF881
:10D55C00002387F8473047E0FFF766FC00210020E6
:10D56C00FFF778FC3B461846FFF7F2FC01F02AFA6D
:10D57C0040F6B83001F010FC02210020FFF7D2F881
:10D58C00002387F847302FE0FFF74EFC00210020E6
:10D59C00FFF760FC3B461846FFF7DAFC01F012FA85
:10D5AC0040F6B83001F0F8FB02210020FFF7BAF882
:10D5BC00002387F8473017E0802200214C4804F004
:10D5CC008DFE3B4632220021184604F087FE494B63
:10D5DC0000221A70484B00221A6002210020FFF72B
:10D5EC00A1F8002387F8473080220021404804F03E
:10D5FC0075FE3B4632220021184604F06FFE3D4B6F
:10D60C0000221A703C4B00221A603B4B1B68384AB4
:10D61C00134401221946394804F077F8384800F0D1
:10D62C006BFE034687F8333097F83330012B7FF4C9
:10D63C002AAE97F84730002B7FF425AE002387F8ED
:10D64C003F30002387F83E302D48FEF779FD034626
:10D65C001A462C4B1A600023BB6313E0284ABB6BA1
:10D66C0013441B787B2B05D0254ABB6B13441B78CA
:10D67C007D2B04D197F83F30013387F83F30BB6BDB
:10D68C000133BB631F4B1B680433BA6B9A42E5DD55
:10D69C0097F83F30042B07D0012387F83E30FF2248
:10D6AC000021174804F01AFE97F83E30002B7FF447
:10D6BC00EAAD01F0A9F903210020FFF721FA114B83
:10D6CC001B68184600F062FA322001F065FB0D4B26
:10D6DC001B689AB264230A49084803F093FF01239C
:10D6EC0087F8473001F04EFB03463B64CBE500BFA7
:10D6FC0078020020750100205C030020B00400209B
:10D70C00780100207001002080B590B000AF07F1C7
:10D71C00180328220021184604F0E0FD3B1D0022CE
:10D72C001A605A609A60DA601A610123BB614FF487
:10D73C008033FB6100233B620123BB6202237B63CA
:10D74C004FF48033BB634FF4E013FB6307F1180312
:10D75C00184602F0F1FB0346002B01D000F0F4F95F
:10D76C000F237B600223BB600023FB604FF48063BC
:10D77C003B6100237B613B1D0221184602F05EFEDB
:10D78C000346002B01D000F0DFF900BF4037BD4647
:10D79C0080BD000080B500AF124B134A1A60114BCC
:10D7AC00124A5A600F4B00229A600E4B0022DA602C
:10D7BC000C4B4FF480421A610A4B00225A61094B00
:10D7CC0000229A61074B0022DA61064B00221A6292
:10D7DC00044801F07BFE0346002B01D000F0B4F9A5
:10D7EC0000BF80BD7403002000540040A0860100DF
:10D7FC0080B500AF174B184A1A60164B4FF4827263
:10D80C005A60144B00229A60124B0022DA60114BC2
:10D81C0000221A610F4B00225A610E4B4FF400721A
:10D82C009A610C4B1822DA610A4B00221A62094BDE
:10D83C0000225A62074B00229A62064B0A22DA62D5
:10D84C00044802F089FF0346002B01D000F07CF95C
:10D85C0000BF80BDC80300200030014080B586B0F9
:10D86C0000AF07F1080300221A605A609A60DA6070
:10D87C003B4600221A605A601F4B204A1A601E4B0E
:10D88C0040F2CF225A601C4B00229A601A4B41F690
:10D89C003F72DA60184B00221A61174B00225A6152
:10D8AC00154B00229A61144803F030FA0346002B02
:10D8BC0001D000F049F94FF48053BB6007F1080325
:10D8CC0019460D4803F0FAFB0346002B01D000F07B
:10D8DC003BF900233B6000237B603B46194606481E
:10D8EC0003F0D0FD0346002B01D000F02DF900BF52
:10D8FC001837BD4680BD00BF20040020002C01401D
:10D90C0080B586B000AF07F1080300221A605A6098
:10D91C009A60DA603B4600221A605A601E4B4FF048
:10D92C0080421A601C4B41F61F425A601A4B00226F
:10D93C009A60194B41F63F72DA60174B00221A615C
:10D94C00154B00229A61144803F0E0F90346002BB2
:10D95C0001D000F0F9F84FF48053BB6007F10803D5
:10D96C0019460D4803F0AAFB0346002B01D000F02A
:10D97C00EBF800233B6000237B603B4619460648CE
:10D98C0003F080FD0346002B01D000F0DDF800BF52
:10D99C001837BD4680BD00BF6804002080B500AFBD
:10D9AC00114B124A1A60104B4FF4E1325A600E4B75
:10D9BC0000229A600C4B0022DA600B4B00221A6199
:10D9CC00094B0C225A61084B00229A61064B00222B
:10D9DC00DA61054803F0C6FD0346002B01D000F0C8
:10D9EC00B3F800BF80BD00BFB00400200038014078
:10D9FC0080B500AF114B124A1A60104B4FF4E13254
:10DA0C005A600E4B00229A600C4B0022DA600B4BD2
:10DA1C0000221A61094B0C225A61084B00229A61B0
:10DA2C00064B0022DA61054803F09CFD0346002BEF
:10DA3C0001D000F089F800BF80BD00BFF8040020C1
:10DA4C000044004080B588B000AF07F110030022FD
:10DA5C001A605A609A60DA60374B9B69364A43F019
:10DA6C0010039361344B9B6903F01003FB60FB685C
:10DA7C00314B9B69304A43F0200393612E4B9B69D9
:10DA8C0003F02003BB60BB682B4B9B692A4A43F015
:10DA9C0004039361284B9B6903F004037B607B6850
:10DAAC00254B9B69244A43F008039361224B9B69E5
:10DABC0003F008033B603B6800224FF400511F4801
:10DACC0001F0D2FC002210211D4801F0CDFC0022F7
:10DADC0003211C4801F0C8FC4FF400533B610123A7
:10DAEC007B610023BB610223FB6107F11003194624
:10DAFC00124801F035FB10233B6101237B610023AD
:10DB0C00BB610223FB6107F1100319460C4801F0BD
:10DB1C0027FB03233B6101237B610023BB610223B1
:10DB2C00FB6107F110031946064801F019FB00BF11
:10DB3C002037BD4680BD00BF0010024000100140E0
:10DB4C0000080140000C014080B400AF72B600BF69
:10DB5C00FEE780B586B000AF78607B6804331B6845
:10DB6C007B6101F0AFF802F04DF97B693B6172B655
:10DB7C0000BF7B681B68FB60FB6883F3088800BFF1
:10DB8C003B69984700BF1837BD4680BD80B582B051
:10DB9C0000AF78607A680849084804F093FC642365
:10DBAC002E220649064803F02DFD1E2001F0F4F844
:10DBBC0000BF0837BD4680BD5C2E01089C000020CC
:10DBCC00B004002080B588B000AFC7E90001D7E9E8
:10DBDC000023C7E9062301237B6102E07B69013343
:10DBEC007B61D7E906014FF00A024FF00003FEF704
:10DBFC00AFFA02460B46C7E90623D7E906231343BF
:10DC0C00ECD17B690133184604F052FB0346FB60F0
:10DC1C00FB68002B01D100232BE07B69013B3B61AE
:10DC2C001DE0D7E900014FF00A024FF00003FEF7A8
:10DC3C008FFAD2B23B69591E39611946FB680B4405
:10DC4C003032D2B21A70D7E900014FF00A024FF00D
:10DC5C000003FEF77DFA02460B46C7E90023D7E91D
:10DC6C0000231343DDD17B69FA68134400221A7038
:10DC7C00FB6818462037BD4680BD000080B586B0D5
:10DC8C0002AF0346FB71FB793B7307F1080207F106
:10DC9C000C010A2300930123034802F0E1FD3B7AB7
:10DCAC0018461037BD4680BDC803002080B582B031
:10DCBC0000AF03460A46FB711346BB7100221021CC
:10DCCC00094801F0D1FBFB791846FFF7D7FFBB7968
:10DCDC001846FFF7D3FF01221021034801F0C4FBC3
:10DCEC0000BF0837BD4680BD0008014080B584B038
:10DCFC0000AF0346FB71002210210B4801F0B4FB6E
:10DD0C00FB791846FFF7BAFF0020FFF7B7FF034671
:10DD1C00FB7301221021044801F0A6FBFB7B184683
:10DD2C001037BD4680BD00BF0008014080B582B0F1
:10DD3C0000AF03460A46FB711346BB71FB795B00CF
:10DD4C00DBB203F07E03FB71BA79FB7911461846FE
:10DD5C00FFF7ACFF00BF0837BD4680BD80B584B06F
:10DD6C0000AF0346FB71FB795B005BB203F07E03F3
:10DD7C005BB263F07F035BB2FB71FB791846FFF774
:10DD8C00B5FF0346FB73FB7B18461037BD4680BDC1
:10DD9C0080B582B000AF03460A46FB711346BB71D7
:10DDAC00FB791846FFF7DAFF03461A46BB79134393
:10DDBC00DAB2FB7911461846FFF7B8FF00BF0837F7
:10DDCC00BD4680BD80B582B000AF03460A46FB71EC
:10DDDC001346BB71FB791846FFF7C0FF03465AB2D6
:10DDEC0097F90630DB435BB213405BB2DAB2FB79D6
:10DDFC0011461846FFF79AFF00BF0837BD4680BD95
:10DE0C0080B586B002AF03463960FB7107210D2047
:10DE1C00FFF78CFF3B68FA791A7007F10C0300933B
:10DE2C003B68012239680C2000F00FF80346FB73A5
:10DE3C00FB7B002B02D1BB89102B01D00223FB737F
:10DE4C00FB7B18461037BD4680BD90B587B000AF40
:10DE5C00B9607B600346FB731346BB730223FB75EF
:10DE6C000023BB7500237B75FB7B0C2B06D00E2B84
:10DE7C0009D11223BB7510237B7505E07723BB7585
:10DE8C0030237B7500E000BFBB7D63F07F03DBB20A
:10DE9C0019460220FFF74AFF80210420FFF792FF6A
:10DEAC0080210A20FFF774FF00210120FFF73EFFBD
:10DEBC0000237B820AE07B8ABA6813441B781946DC
:10DECC000920FFF733FF7B8A01337B82BB7B9BB23C
:10DEDC007A8A9A42EFD3FB7B19460120FFF726FF83
:10DEEC00FB7B0C2B03D180210D20FFF751FF4FF44E
:10DEFC00FA637B820420FFF731FF03463B757B8A74
:10DF0C00013B7B827B8A002B0AD03B7D03F0010313
:10DF1C00002B05D13A7D7B7D1340DBB2002BE9D081
:10DF2C0080210D20FFF74EFF7B8A002B57D0062057
:10DF3C00FFF714FF034603F01B03002B4DD1002306
:10DF4C00FB753A7DBB7D1340DBB203F00103002B64
:10DF5C0001D00123FB75FB7B0C2B40D10A20FFF772
:10DF6C00FDFE03463B750C20FFF7F8FE034603F05D
:10DF7C0007037B747B7C002B0BD03B7D013B9BB25E
:10DF8C00DB009AB27B7C9BB213449AB2BB6A1A80B8
:10DF9C0005E03B7D9BB2DB009AB2BB6A1A803B7DED
:10DFAC00002B01D101233B753B7D102B01D9102394
:10DFBC003B7500237B820AE07B8A7A68D41809209F
:10DFCC00FFF7CCFE034623707B8A01337B823B7DBB
:10DFDC009BB27A8A9A42EFD301E00223FB75FB7D58
:10DFEC0018461C37BD4690BD80B586B002AF786030
:10DFFC0000237B7300210D20FFF798FE7B68932292
:10E00C001A707B68013320221A7007F10A030093FF
:10E01C007B68022279680C20FFF717FF0346FB731D
:10E02C00FB7B002B18D10023BB7309E0BB7B7A6808
:10E03C0013441A787B7B53407B73BB7B0133BB73DC
:10E04C00BB7B032BF2D9BB7B7A6813441B787A7B9E
:10E05C009A4201D00223FB73FB7B18461037BD4656
:10E06C0080BD90B587B000AFF8600B467A60FB724C
:10E07C0004210520FFF7A6FE80210A20FFF788FE69
:10E08C000023FB750AE0FB7DFA6813441B781946E4
:10E09C000920FFF74BFEFB7D0133FB75FA7DFB7A04
:10E0AC009A42F0D303210120FFF740FEFF23FB75BA
:10E0BC000520FFF753FE0346BB75FB7D013BFB754B
:10E0CC00FB7D002B04D0BB7D03F00403002BEFD0B1
:10E0DC002220FFF743FE03461A467B681A707B68C2
:10E0EC005C1C2120FFF73AFE0346237000BF1C374F
:10E0FC00BD4690BD80B588B002AF786093233B726B
:10E10C0070237B720023FB750CE0FB7D7A681A444C
:10E11C00FB7D0233127818333B4403F8102CFB7D43
:10E12C000133FB75FB7D042BEFD907F10803DA1DD6
:10E13C0007F1080307211846FFF793FF07F10802C0
:10E14C0007F1080107F112030093134609220C2072
:10E15C00FFF77BFE03467B757B7D002B05D17B8A0D
:10E16C00182B02D13B7ABB7501E00023BB75BB7D3C
:10E17C0018461837BD4680BD80B58AB002AFBA606C
:10E18C007B600346FB730B46BB73FB7B3B74BB7B17
:10E19C007B740023BB770CE0BB7FBA681A44BB7F4F
:10E1AC000233127820333B4403F8102CBB7F01332D
:10E1BC00BB77BB7F052BEFD90023BB770CE0BB7F74
:10E1CC007A681A44BB7F0833127820333B4403F837
:10E1DC00102CBB7F0133BB77BB7F032BEFD907F12F
:10E1EC00100207F1100107F11C03009313460C22D7
:10E1FC000E20FFF72AFE0346FB77FB7F002B07D18F
:10E20C000820FFF7ABFD034603F00803002B01D1F8
:10E21C000223FB77FB7F18462037BD4680BD80B5B7
:10E22C0086B002AF03463960FB713B6830221A702E
:10E23C003B680133FA791A703B6802331A460221A3
:10E24C003868FFF70EFF07F10C0300933B680422BC
:10E25C0039680C20FFF7F9FD0346FB73FB7B002BA1
:10E26C0002D1BB89902B01D00223FB73FB7B184698
:10E27C001037BD4680BD80B500AF00F020F88D2171
:10E28C002A20FFF753FD3E212B20FFF74FFD1E21C7
:10E29C002D20FFF74BFD00212C20FFF747FD7021AF
:10E2AC002620FFF743FD40211520FFF73FFD3D21C0
:10E2BC001120FFF73BFD00F00AF800BF80BD80B5D0
:10E2CC0000AF0F210120FFF731FD00BF80BD80B5ED
:10E2DC0082B000AF1420FFF741FD0346FB71FB79C0
:10E2EC0003F00303002B03D103211420FFF750FD8F
:10E2FC0000BF0837BD4680BDF0B5F1B00EAF07F5D5
:10E30C00C473A3F5B2731860AE4A07F5BE7392E8F6
:10E31C000300186004331980002387F8853100232B
:10E32C0087F8843197F88531002B3DD1FFF7A3FF97
:10E33C0007F5B67319462620FFF762FD0346002B3E
:10E34C0032D107F5B6731846FFF74EFE0346002B85
:10E35C002AD19D4B1A6897F86C311D4697F86D3190
:10E36C0097F86E1197F86F01044607F16C00029450
:10E37C00019100932B46954904F0A4F807F16C0326
:10E38C001846FDF7DDFE034687F8863197F886219F
:10E39C0007F16C0107F5C473A3F5B273186803F0A9
:10E3AC008FFF012387F88531142000F0F5FCFFF76F
:10E3BC0062FF97F88531012B40F0ED8097F884319E
:10E3CC00002B40F0E880FFF756FF07F5B6731946AF
:10E3DC002620FFF715FD034687F8873197F887311C
:10E3EC00002B40F0CE8007F5B6731846FFF7FCFD06
:10E3FC00034687F8873197F88731002B40F0B780B8
:10E40C0007F5B6731846FFF775FE034687F8873194
:10E41C0097F88731002B00F0A08007F5B67307F54D
:10E42C00BE7202216120FFF7A7FE034687F88731F1
:10E43C0097F88731002B40F0868007F1EC031946E2
:10E44C000220FFF7ECFE034687F8873197F88731F7
:10E45C00002B6ED197F8EC309C4697F8ED309E4629
:10E46C0097F8EE301C4697F8EF301D4697F8F030D1
:10E47C001E4697F8F1303B6297F8F230FB6197F843
:10E48C00F330BB6197F8F4307B6197F8F5303B6162
:10E49C0097F8F630FB6097F8F730BB6097F8F830D8
:10E4AC007B6097F8F930194697F8FA301A4697F8C6
:10E4BC00FB3007F12C000D930C920B917A680A92A9
:10E4CC00BA680992FA6808923A6907927A690692D0
:10E4DC00BA690592FA6904923B6A03930296019514
:10E4EC000094734662463A4903F0ECFF97F8863184
:10E4FC0007F5C472A2F5B2721268D41807F12C0396
:10E50C001846FDF71DFE024607F12C03194620465E
:10E51C0003F0D6FE07F12C031846FDF711FE034657
:10E52C00DAB297F88631134487F88631012387F8DD
:10E53C00843197F88731022B05D1052000F04AF879
:10E54C00002387F8853197F88731002B05D00420FC
:10E55C0000F040F8002387F8853197F88731002BBD
:10E56C0005D0032000F036F8002387F8853197F8A2
:10E57C008731002B05D0022000F02CF8002387F8FF
:10E58C00853197F88731002B05D0012000F022F857
:10E59C00002387F8853197F88531012B0BD197F83B
:10E5AC008431012B07D1002387F88531002387F8AC
:10E5BC008431012300E00023184607F5C677BD46D9
:10E5CC00F0BD00BF1C2F0108700300209C2E010819
:10E5DC00EC2E010880B584B000AF0346FB7100231C
:10E5EC00FB7314E000224FF400510D4800F03CFF87
:10E5FC00642000F0D1FB01224FF40051084800F0D8
:10E60C0033FF642000F0C8FBFB7B0133FB73FA7B08
:10E61C00FB799A42E6D300BF00BF1037BD4680BDE0
:10E62C000010014080B485B000AF154B9B69144AB3
:10E63C0043F001039361124B9B6903F00103BB6030
:10E64C00BB680F4BDB690E4A43F08053D3610C4B14
:10E65C00DB6903F080537B607B680A4B5B68FB6073
:10E66C00FB6823F0E063FB60FB6843F00073FB6026
:10E67C00044AFB68536000BF1437BD4680BC70472A
:10E68C00001002400000014080B588B000AF7860F7
:10E69C0007F1100300221A605A609A60DA607B68F6
:10E6AC001B68154A934223D1144B9B69134A43F0C0
:10E6BC0008039361114B9B6903F00803FB60FB6833
:10E6CC00C0233B6112237B610323FB6107F1100321
:10E6DC0019460B4800F044FD084BDB69074A43F42C
:10E6EC000013D361054BDB6903F40013BB60BB68FB
:10E6FC0000BF2037BD4680BD0054004000100240D2
:10E70C00000C014080B588B000AF786007F11003B1
:10E71C0000221A605A609A60DA607B681B681B4A98
:10E72C0093422FD11A4B9B69194A43F4805393613E
:10E73C00174B9B6903F48053FB60FB68144B9B697C
:10E74C00134A43F004039361114B9B6903F00403D8
:10E75C00BB60BB68A0233B6102237B610323FB618D
:10E76C0007F1100319460B4800F0FAFC40233B61FB
:10E77C0000237B610023BB6107F110031946054898
:10E78C0000F0EEFC00BF2037BD4680BD00300140DC
:10E79C00001002400008014080B584B000AF7860E2
:10E7AC007B681B681A4A934214D11A4B9B69194A0D
:10E7BC0043F400639361174B9B6903F40063FB60A4
:10E7CC00FB6800220021192000F0E1FB192000F069
:10E7DC00FAFB18E07B681B68B3F1804F13D10D4B2B
:10E7EC00DB690C4A43F00103D3610A4BDB6903F08C
:10E7FC000103BB60BB68002200211C2000F0C7FB9A
:10E80C001C2000F0E0FB00BF1037BD4680BD00BFF0
:10E81C00002C01400010024080B58AB000AF786037
:10E82C0007F1180300221A605A609A60DA607B685C
:10E83C001B683B4A93423AD13A4B9B69394A43F4A1
:10E84C0080439361374B9B6903F480437B617B6905
:10E85C00344B9B69334A43F004039361314B9B69FE
:10E86C0003F004033B613B694FF40073BB6102236B
:10E87C00FB6103237B6207F1180319462A4800F059
:10E88C006FFC4FF48063BB610023FB6100233B6290
:10E89C0007F118031946244800F062FC00220021FD
:10E8AC00252000F074FB252000F08DFB34E07B6804
:10E8BC001B681E4A93422FD11A4BDB69194A43F449
:10E8CC000033D361174BDB6903F40033FB60FB6847
:10E8DC00144B9B69134A43F004039361114B9B69DE
:10E8EC0003F00403BB60BB680423BB610223FB6120
:10E8FC0003237B6207F1180319460B4800F030FC28
:10E90C000823BB610023FB6100233B6207F1180362
:10E91C001946054800F024FC00BF2837BD4680BDD1
:10E92C000038014000100240000801400044004043
:10E93C0080B400AFFEE780B500AF4FF00060FFF78A
:10E94C0008F9FEE780B400AFFEE780B400AFFEE745
:10E95C0080B400AFFEE780B400AF00BFBD4680BC02
:10E96C00704780B400AF00BFBD4680BC704780B418
:10E97C0000AF00BFBD4680BC704780B500AF00F053
:10E98C00EFF900BF80BD000080B500AF024802F077
:10E99C008DFA00BF80BD00BF2004002080B500AF01
:10E9AC00024802F083FA00BF80BD00BF680400205B
:10E9BC0080B500AF024802F0CDFE00BF80BD00BFA5
:10E9CC00B004002080B500AF01210E4800F064FDBA
:10E9DC004FF47A7000F0E0F901210A4800F05CFD78
:10E9EC004FF4FA7000F0D8F90121064800F054FDFC
:10E9FC004FF47A7000F0D0F90121024800F04CFD80
:10EA0C0000BF80BD000C014080B500AF012106485D
:10EA1C0000F042FD322000F0BFF90121024800F065
:10EA2C003BFD00BF80BD00BF000C014080B588B02D
:10EA3C0000AFF860B9607A600523FB6108E0FB6900
:10EA4C00FA6813441B783C2B07D0FB690133FB613C
:10EA5C00FA69BB689A42F2DB00E000BFFB69BB615C
:10EA6C0008E0BB69FA6813441B782C2B07D0BB69F0
:10EA7C000133BB61BA69BB689A42F2DB00E000BFAC
:10EA8C00BB697B6108E07B69FA6813441B78212B16
:10EA9C0007D07B6901337B617A69BB689A42F2DBF0
:10EAAC0000E000BFBB690133FA68D1187A69BB6911
:10EABC00D31A013B1A46786803F031FD00BF2037AA
:10EACC00BD4680BD80B588B000AF78607868FDF732
:10EADC0037FB0346BB611C49786803F033FD786152
:10EAEC007021786903F00EFD38613A697B68D31A9E
:10EAFC00FB60BB690433FB610BE0FB69043B7A6888
:10EB0C001A44FB6979680B4412781A70FB69013B53
:10EB1C00FB61FA69FB689A42EFDC2221786903F009
:10EB2C00F1FC03460133BB60BB6808491A460B462F
:10EB3C0003CB1060516019889B781181937200BFD0
:10EB4C002037BD4680BD00BFDC2F0108E82F01082F
:10EB5C0080B586B000AF7860396005237B6108E032
:10EB6C007B697A6813441B783C2B07D07B69013393
:10EB7C007B617A693B689A42F2DB00E000BF7B69FB
:10EB8C0001337A6813441B783B737B6902337A68D0
:10EB9C0013441B787B737B6903337A6813441B78AB
:10EBAC00BB733B7B452B09D17B7B522B06D1BB7BAB
:10EBBC00412B03D14FF00060FEF7CBFF07F10C03A4
:10EBCC00184603F047FB38613B6918461837BD46B9
:10EBDC0080BD000080B586B000AF7860144A154B3C
:10EBEC00D31A7B617B693B61134B1B68002B02D1F1
:10EBFC00114B124A1A60104B1A687B6813443A691D
:10EC0C009A4207D203F02AFB03460C221A604FF0FB
:10EC1C00FF3309E0084B1B68FB60074B1A687B68E5
:10EC2C001344054A1360FB6818461837BD4680BD6F
:10EC3C000050002000040000400500205805002072
:10EC4C0080B400AF00BFBD4680BC70470C480D4976
:10EC5C000D4A002302E0D458C4500433C4188C422B
:10EC6C00F9D30A4A0A4C002301E013600432A24291
:10EC7C00FBD3FFF7E5FF03F0F7FAFEF7AFFA7047A7
:10EC8C00000000203C0100206431010840010020FC
:10EC9C0058050020FEE7000080B500AF084B1B684C
:10ECAC00074A43F010031360032000F065F90F20AE
:10ECBC0000F026F8FFF7B6FC0023184680BD00BF15
:10ECCC000020024080B500AF094B4FF0FF321A61B3
:10ECDC00074B00221A61064B4FF0FF32DA60044BEF
:10ECEC000022DA6000F006F80023184680BD00BF51
:10ECFC000010024080B400AF00BFBD4680BC70471E
:10ED0C0080B582B000AF7860124B1A68124B1B783A
:10ED1C0019464FF47A73B3FBF1F3B2FBF3F31846D5
:10ED2C0000F05FF90346002B01D001230EE07B6855
:10ED3C000F2B0AD8002279684FF0FF3000F027F92A
:10ED4C00064A7B681360002300E00123184608374D
:10ED5C00BD4680BDCC000020D4000020D000002097
:10ED6C0080B400AF054B1B781A46054B1B68134447
:10ED7C00034A136000BFBD4680BC7047D40000201E
:10ED8C004405002080B400AF024B1B681846BD46FA
:10ED9C0080BC70474405002080B584B000AF78601B
:10EDAC00FFF7F0FFB8607B68FB60FB68B3F1FF3FD7
:10EDBC0005D00A4B1B781A46FB681344FB6000BF56
:10EDCC00FFF7E0FF0246BB68D31AFA689A42F7D8FD
:10EDDC0000BF00BF1037BD4680BD00BFD40000206F
:10EDEC0080B485B000AF78607B6803F00703FB60EC
:10EDFC000C4BDB68BB60BA684FF6FF031340BB607B
:10EE0C00FB681A02BB68134343F0BF6343F400333F
:10EE1C00BB60044ABB68D36000BF1437BD4680BCDE
:10EE2C00704700BF00ED00E080B400AF044BDB681E
:10EE3C001B0A03F007031846BD4680BC704700BF91
:10EE4C0000ED00E080B483B000AF0346FB7197F98E
:10EE5C000730002B0BDBFB7903F01F02064997F9F7
:10EE6C0007305B09012000FA02F241F8232000BFB1
:10EE7C000C37BD4680BC704700E100E080B483B025
:10EE8C0000AF03463960FB7197F90730002B0ADBA2
:10EE9C003B68DAB20C4997F907301201D2B20B4435
:10EEAC0083F800230AE03B68DAB20849FB7903F0E7
:10EEBC000F03043B1201D2B20B441A7600BF0C377D
:10EECC00BD4680BC704700BF00E100E000ED00E0F3
:10EEDC0080B489B000AFF860B9607A60FB6803F069
:10EEEC000703FB61FB69C3F10703042B28BF042351
:10EEFC00BB61FB690433062B02D9FB69033B00E0C1
:10EF0C0000237B614FF0FF32BB6902FA03F3DA4353
:10EF1C00BB681A407B699A404FF0FF317B6901FA5C
:10EF2C0003F3D9437B680B40134318462437BD4683
:10EF3C0080BC704780B582B000AF78607B68013BC5
:10EF4C00B3F1807F01D301230FE00A4A7B68013BB8
:10EF5C0053600F214FF0FF30FFF790FF054B00225D
:10EF6C009A60044B07221A60002318460837BD46E6
:10EF7C0080BD00BF10E000E080B582B000AF7860CB
:10EF8C007868FFF72DFF00BF0837BD4680BD80B500
:10EF9C0086B000AF0346B9607A60FB7300237B61D7
:10EFAC00FFF742FF78617A68B9687869FFF790FFDC
:10EFBC00024697F90F3011461846FFF75FFF00BF66
:10EFCC001837BD4680BD80B582B000AF0346FB71DB
:10EFDC0097F907301846FFF735FF00BF0837BD46D5
:10EFEC0080BD80B582B000AF78607868FFF7A2FF73
:10EFFC00034618460837BD4680BD80B485B000AFC7
:10F00C0078600023FB737B6893F82130DBB2022B12
:10F01C0008D07B6804229A637B68002283F8202046
:10F02C00012320E07B681B681A687B681B6822F050
:10F03C000E021A607B681B681A687B681B6822F0DA
:10F04C0001021A607B681A6C7B68DB6B012101FA88
:10F05C0002F25A607B68012283F821207B6800222F
:10F06C0083F82020FB7B18461437BD4680BC7047C4
:10F07C0080B584B000AF78600023FB737B6893F895
:10F08C002130DBB2022B05D07B6804229A6301236A
:10F09C00FB7351E07B681B681A687B681B6822F065
:10F0AC000E021A607B681B681A687B681B6822F06A
:10F0BC0001021A607B681B68224A934229D07B6844
:10F0CC001B68214A934222D07B681B681F4A9342DB
:10F0DC001AD07B681B681E4A934212D07B681B684F
:10F0EC001C4A93420AD07B681B681B4A934202D18C
:10F0FC004FF480130EE04FF080730BE04FF480332D
:10F10C0008E04FF4805305E04FF4807302E01023C5
:10F11C0000E00123114A53607B68012283F821200F
:10F12C007B68002283F820207B685B6B002B03D06C
:10F13C007B685B6B78689847FB7B18461037BD463D
:10F14C0080BD00BF080002401C000240300002409D
:10F15C0044000240580002406C0002400000024093
:10F16C0080B48BB000AF7860396000237B620023E1
:10F17C003B6269E101227B6A02FA03F3FB613B68A3
:10F18C001B68FA691340BB61BA69FB699A4240F08B
:10F19C0058813B685B689A4A93425ED0984A934286
:10F1AC0075D8984A934258D0964A93426FD8964A4B
:10F1BC00934252D0944A934269D8944A93424CD089
:10F1CC00924A934263D8924A934246D0904A9342D1
:10F1DC005DD8122B2AD8122B59D801A252F823F041
:10F1EC0067F2000841F2000853F2000895F200089B
:10F1FC009BF200089BF200089BF200089BF20008AF
:10F20C009BF200089BF200089BF200089BF200089E
:10F21C009BF200089BF200089BF200089BF200088E
:10F22C009BF2000849F200085DF20008794A93420B
:10F23C0013D02CE03B68DB683B6229E03B68DB6861
:10F24C0004333B6224E03B68DB6808333B621FE01D
:10F25C003B68DB680C333B621AE03B689B68002B15
:10F26C0002D104233B6213E03B689B68012B05D160
:10F27C0008233B627B68FA691A6109E008233B6248
:10F28C007B68FA695A6103E000233B6200E000BF2F
:10F29C00BB69FF2B01D87B6801E07B6804337B6181
:10F2AC00BB69FF2B02D87B6A9B0002E07B6A083BA0
:10F2BC009B003B617B691A680F213B6901FA03F3E0
:10F2CC00DB431A40396A3B6901FA03F31A437B6941
:10F2DC001A603B685B6803F08053002B00F0B18030
:10F2EC004D4B9B694C4A43F0010393614A4B9B691C
:10F2FC0003F00103BB60BB68484A7B6A9B0802337E
:10F30C0052F82330FB607B6A03F003039B000F224F
:10F31C0002FA03F3DB43FA681340FB607B68404A54
:10F32C00934213D07B683F4A93420DD07B683E4A90
:10F33C00934207D07B683D4A934201D1032306E0F8
:10F34C00042304E0022302E0012300E000237A6A94
:10F35C0002F0030292009340FA681343FB602F49BA
:10F36C007B6A9B080233FA6841F823203B685B6890
:10F37C0003F48013002B06D02D4B9A682C49BB69E3
:10F38C0013438B6006E02A4B9A68BB69DB43284920
:10F39C0013408B603B685B6803F40013002B06D0B2
:10F3AC00234BDA682249BB691343CB6006E0204B40
:10F3BC00DA68BB69DB431E491340CB603B685B6872
:10F3CC0003F40033002B06D0194B5A681849BB695B
:10F3DC0013434B6006E0164B5A68BB69DB43144978
:10F3EC0013404B603B685B6803F48033002B21D0E7
:10F3FC000F4B1A680E49BB6913430B6021E000BF29
:10F40C00000032100000311000002210000021100A
:10F41C00000012100000111000100240000001400A
:10F42C0000080140000C0140001001400014014094
:10F43C00000401400B4B1A68BB69DB4309491340BC
:10F44C000B607B6A01337B623B681A687B6A22FA29
:10F45C0003F3002B7FF48EAE00BF00BF2C37BD46EC
:10F46C0080BC70470004014080B483B000AF78606A
:10F47C000B467B8013467B707B78002B03D07A88FD
:10F48C007B681A6103E07B881A047B681A6100BFF1
:10F49C000C37BD4680BC704780B485B000AF786037
:10F4AC000B467B807B68DB68FB607A88FB681340CB
:10F4BC001A04FB68D9437B880B401A437B681A619A
:10F4CC0000BF1437BD4680BC7047000080B584B0C7
:10F4DC0000AF78607B68002B01D101232BE17B68A6
:10F4EC0093F83D30DBB2002B06D17B68002283F809
:10F4FC003C207868FFF7C8F87B68242283F83D200D
:10F50C007B681B681A687B681B6822F001021A6012
:10F51C007B681B681A687B681B6842F400421A609F
:10F52C007B681B681A687B681B6822F400421A60AF
:10F53C0001F0CCF8F8607B685B68814A934207D88D
:10F54C00FB68804A934294BF01230023DBB206E0A0
:10F55C00FB687D4A934294BF01230023DBB2002B4E
:10F56C0001D00123E7E0FB68784AA2FB03239B0C44
:10F57C00BB607B681B685B6823F03F017B681B6882
:10F58C00BA680A435A607B681B681B6A23F03F0108
:10F59C007B685B686A4A934202D8BB68013309E016
:10F5AC00BB684FF4967202FB03F3694AA2FB032378
:10F5BC009B0901337A6812680B4313627B681B68E2
:10F5CC00DB6923F44F4222F0FF027B685B685C49E5
:10F5DC008B4219D8FB68591E7B685B685B00B1FBDA
:10F5EC00F3F3591C40F6FC730B40002B0AD0FB685C
:10F5FC00591E7B685B685B00B1FBF3F30133C3F30B
:10F60C000B0351E004234FE07B689B68002B11D166
:10F61C00FB68581E7B6859680B465B000B44B0FBBB
:10F62C00F3F30133C3F30B03002B0CBF01230023B3
:10F63C00DBB212E0FB68581E7B6859680B469B00D6
:10F64C000B4499000B44B0FBF3F30133C3F30B03EE
:10F65C00002B0CBF01230023DBB2002B01D00123B4
:10F66C0022E07B689B68002B0ED1FB68581E7B68E0
:10F67C0059680B465B000B44B0FBF3F30133C3F347
:10F68C000B0343F400430FE0FB68581E7B6859687A
:10F69C000B469B000B4499000B44B0FBF3F3013376
:10F6AC00C3F30B0343F44043796809681343CB61FC
:10F6BC007B681B681B6823F0C0017B68DA697B6878
:10F6CC001B6A1A437B681B680A431A607B681B68B9
:10F6DC009B6823F4034323F0FF037A6811697A686B
:10F6EC00D26811437A6812680B4393607B681B687D
:10F6FC00DB6823F0FF017B685A697B689B691A43BE
:10F70C007B681B680A43DA607B681B681A687B6835
:10F71C001B6842F001021A607B6800221A647B6845
:10F72C00202283F83D207B6800221A637B6800222C
:10F73C0083F83E20002318461037BD4680BD00BF1D
:10F74C00A08601007F841E00FF083D0083DE1B4362
:10F75C00D34D621080B588B002AFF8607A601A465B
:10F76C000B467B8113463B81FFF70CFB7861FB68F2
:10F77C0093F83D30DBB2202B40F0E0807B690093A6
:10F78C00192301227049F86800F064F90346002B34
:10F79C0001D00223D3E0FB6893F83C30012B01D15C
:10F7AC000223CCE0FB68012283F83C20FB681B6839
:10F7BC001B6803F00103012B07D0FB681B681A6858
:10F7CC00FB681B6842F001021A60FB681B681A6830
:10F7DC00FB681B6822F400621A60FB68212283F824
:10F7EC003D20FB68102283F83E20FB6800221A643F
:10F7FC00FB687A685A62FB683A895A85FB685B8DAC
:10F80C009AB2FB681A85FB68504ADA6279897B697F
:10F81C003A6AF86800F09CF80346002B01D00123EB
:10F82C008DE000233B61FB681B685B693B61FB68F7
:10F83C001B689B693B613B6966E07A69396AF868C9
:10F84C0000F022FA0346002B0DD0FB681B6C042B36
:10F85C0007D1FB681B681A68FB681B6842F40072CE
:10F86C001A6001236BE0FB685B6A1A78FB681B6803
:10F87C001A61FB685B6A5A1CFB685A62FB685B8DF9
:10F88C009BB2013B9AB2FB685A85FB681B8D013B0E
:10F89C009AB2FB681A85FB681B685B6903F004036A
:10F8AC00042B1BD1FB681B8D002B17D0FB685B6AEC
:10F8BC001A78FB681B681A61FB685B6A5A1CFB6848
:10F8CC005A62FB685B8D9BB2013B9AB2FB685A850E
:10F8DC00FB681B8D013B9AB2FB681A857A69396A01
:10F8EC00F86800F019FA0346002B0DD0FB681B6C6E
:10F8FC00042B07D1FB681B681A68FB681B6842F471
:10F90C0000721A6001231AE0FB681B8D002B94D146
:10F91C00FB681B681A68FB681B6842F400721A606B
:10F92C00FB68202283F83D20FB68002283F83E20F0
:10F93C00FB68002283F83C20002300E002231846D9
:10F94C001837BD4680BD00BF020010000000FFFF4D
:10F95C0080B588B002AFF8607A603B600B467B8163
:10F96C00FB68DB6A7B617B69082B06D07B69012B0A
:10F97C0003D07B6913F5803F08D1FB681B681A68BC
:10F98C00FB681B6842F480721A600BE0FB681B6B0F
:10F99C00122B07D1FB681B681A68FB681B6842F4C2
:10F9AC0080721A603B6800937B6800224FF0011153
:10F9BC00F86800F04FF80346002B0DD0FB681B686D
:10F9CC001B6803F48073B3F5807F03D1FB684FF49D
:10F9DC0000721A64032335E0FB681B69B3F5804F92
:10F9EC0008D17B89DBB21A46FB681B6802F0FE0269
:10F9FC001A611BE07B89DB11DBB203F00603DBB27F
:10FA0C0063F00F03DAB2FB681B681A613B687A6813
:10FA1C000E49F86800F098F80346002B01D001233A
:10FA2C0010E07B89DAB2FB681B681A613B687A6864
:10FA3C000749F86800F088F80346002B01D0012331
:10FA4C0000E0002318461837BD4680BD08000100B1
:10FA5C000200010080B584B000AFF860B9603B6073
:10FA6C001346FB7148E03B68B3F1FF3F44D0FFF70E
:10FA7C0089F90246BB69D31A3A689A4202D33B68A9
:10FA8C00002B39D1BB681B0CDBB2012B0DD1FB68F1
:10FA9C001B685B69DA43BB6813409BB2002B0CBF3D
:10FAAC0001230023DBB21A460CE0FB681B689B6940
:10FABC00DA43BB6813409BB2002B0CBF012300231D
:10FACC00DBB21A46FB799A4216D1FB6800221A6304
:10FADC00FB68202283F83D20FB68002283F83E203F
:10FAEC00FB681B6C43F02002FB681A64FB68002265
:10FAFC0083F83C20012323E0BB681B0CDBB2012BF9
:10FB0C000DD1FB681B685B69DA43BB6813409BB281
:10FB1C00002B0CBF01230023DBB21A460CE0FB6860
:10FB2C001B689B69DA43BB6813409BB2002B0CBF6C
:10FB3C0001230023DBB21A46FB799A4293D00023AF
:10FB4C0018461037BD4680BD80B584B000AFF86054
:10FB5C00B9607A603B6071E0FB681B685B6903F419
:10FB6C008063B3F5806F23D1FB681B681A68FB6850
:10FB7C001B6842F400721A60FB681B686FF48062A9
:10FB8C005A61FB6800221A63FB68202283F83D202F
:10FB9C00FB68002283F83E20FB681B6C43F00402D8
:10FBAC00FB681A64FB68002283F83C20012367E0A1
:10FBBC007B68B3F1FF3F41D0FFF7E4F802463B68A6
:10FBCC00D31A7A689A4202D37B68002B36D1BB6871
:10FBDC001B0CDBB2012B0CD1FB681B685B69DA4395
:10FBEC00BB6813409BB2002B14BF01230023DBB274
:10FBFC000BE0FB681B689B69DA43BB6813409BB244
:10FC0C00002B14BF01230023DBB2002B16D0FB68A2
:10FC1C0000221A63FB68202283F83D20FB68002237
:10FC2C0083F83E20FB681B6C43F02002FB681A64CF
:10FC3C00FB68002283F83C20012321E0BB681B0CED
:10FC4C00DBB2012B0CD1FB681B685B69DA43BB6828
:10FC5C0013409BB2002B14BF01230023DBB20BE03B
:10FC6C00FB681B689B69DA43BB6813409BB2002B93
:10FC7C0014BF01230023DBB2002B7FF46DAF0023F4
:10FC8C0018461037BD4680BD80B584B000AFF86013
:10FC9C00B9607A6034E0F86800F086F80346002B0F
:10FCAC0001D0012334E0BB68B3F1FF3F28D0FFF74C
:10FCBC0069F802467B68D31ABA689A4202D3BB68C9
:10FCCC00002B1DD1FB681B685B6903F08003802B44
:10FCDC0016D0FB6800221A63FB68202283F83D20B3
:10FCEC00FB68002283F83E20FB681B6C43F020026B
:10FCFC00FB681A64FB68002283F83C20012307E0B0
:10FD0C00FB681B685B6903F08003802BC3D1002365
:10FD1C0018461037BD4680BD80B584B000AFF86082
:10FD2C00B9607A6034E0F86800F03EF80346002BC6
:10FD3C0001D0012334E0BB68B3F1FF3F28D0FFF7BB
:10FD4C0021F802467B68D31ABA689A4202D3BB6880
:10FD5C00002B1DD1FB681B685B6903F00403042BAB
:10FD6C0016D0FB6800221A63FB68202283F83D2022
:10FD7C00FB68002283F83E20FB681B6C43F02002DA
:10FD8C00FB681A64FB68002283F83C20012307E01F
:10FD9C00FB681B685B6903F00403042BC3D10023CD
:10FDAC0018461037BD4680BD80B483B000AF786074
:10FDBC007B681B685B6903F48063B3F5806F1BD1B0
:10FDCC007B681B686FF480625A617B6800221A633F
:10FDDC007B68202283F83D207B68002283F83E203C
:10FDEC007B681B6C43F004027B681A647B680022FE
:10FDFC0083F83C20012300E0002318460C37BD4655
:10FE0C0080BC704780B582B000AFFEF7BBFF786056
:10FE1C00454B1B68444A43F00103136008E0FEF7AE
:10FE2C00B1FF02467B68D31A022B01D9032377E07A
:10FE3C003D4B1B6803F00203002BF0D03A4B1B68C0
:10FE4C0023F0F803384A43F080031360FEF79AFF5F
:10FE5C007860354B00225A600AE0FEF793FF0246A9
:10FE6C007B68D31A41F28832934201D9032357E0BD
:10FE7C002D4B5B6803F00C03002BEED12B4B2C4A63
:10FE8C001A602C4B1B681846FEF73AFF0346002BF2
:10FE9C0001D0012344E0FEF775FF7860224B1B680C
:10FEAC00214A23F08073136008E0FEF76BFF0246D3
:10FEBC007B68D31A022B01D9032331E01A4B1B6840
:10FECC0003F00073002BF0D1174B00225A60FEF7A1
:10FEDC0059FF7860144B1B68134A23F410231360EA
:10FEEC0008E0FEF74FFF02467B68D31A642B01D95A
:10FEFC00032315E00C4B1B6803F40033002BF0D1EB
:10FF0C00094B1B68084A23F480231360064B5B6A79
:10FF1C00054A43F080735362034B00229A6000231E
:10FF2C0018460837BD4680BD00100240CC000020AA
:10FF3C0000127A00D000002080B586B000AF786047
:10FF4C007B68002B01D1012372E27B681B6803F0F4
:10FF5C000103002B00F08780924B5B6803F00C03CD
:10FF6C00042B0CD08F4B5B6803F00C03082B12D1C5
:10FF7C008C4B5B6803F48033B3F5803F0BD1894B1A
:10FF8C001B6803F40033002B6CD07B685B68002B80
:10FF9C0068D101234CE27B685B68B3F5803F06D1E6
:10FFAC00804B1B687F4A43F4803313602EE07B68E0
:10FFBC005B68002B0CD17B4B1B687A4A23F4803393
:10FFCC001360784B1B68774A23F4802313601DE081
:10FFDC007B685B68B3F5A02F0CD1724B1B68714A20
:10FFEC0043F4802313606F4B1B686E4A43F48033D9
:04FFFC0013600BE0A3
:020000040801F1
:100000006B4B1B686A4A23F480331360684B1B6890
:10001000674A23F4802313607B685B68002B13D04E
:10002000FEF7B6FE386108E0FEF7B2FE02463B6915
:10003000D31A642B01D9032300E25D4B1B6803F440
:100040000033002BF0D014E0FEF7A2FE386108E088
:10005000FEF79EFE02463B69D31A642B01D90323A7
:10006000ECE1534B1B6803F40033002BF0D100E0AC
:1000700000BF7B681B6803F00203002B63D04C4B6E
:100080005B6803F00C03002B0BD0494B5B6803F05B
:100090000C03082B1CD1464B5B6803F48033002B08
:1000A00016D1434B1B6803F00203002B05D07B687D
:1000B0001B69012B01D00123C0E13D4B1B6823F0DC
:1000C000F8027B685B69DB00394913430B603AE057
:1000D0007B681B69002B20D0364B01221A60FEF78B
:1000E00057FE386108E0FEF753FE02463B69D31A1B
:1000F000022B01D90323A1E12D4B1B6803F002035E
:10010000002BF0D02A4B1B6823F0F8027B685B6958
:10011000DB00274913430B6015E0264B00221A60D1
:10012000FEF736FE386108E0FEF732FE02463B6914
:10013000D31A022B01D9032380E11D4B1B6803F066
:100140000203002BF0D17B681B6803F00803002B2F
:100150003AD07B689B69002B19D0174B01221A609B
:10016000FEF716FE386108E0FEF712FE02463B6914
:10017000D31A022B01D9032360E10D4B5B6A03F014
:100180000203002BF0D0012000F0CEFA1CE00A4B55
:1001900000221A60FEF7FCFD38610FE0FEF7F8FD63
:1001A00002463B69D31A022B08D9032346E100BF5C
:1001B000001002400000424280044242924B5B6ABF
:1001C00003F00203002BE9D17B681B6803F00403F2
:1001D000002B00F0A6800023FB758B4BDB6903F03E
:1001E0008053002B0DD1884BDB69874A43F0805345
:1001F000D361854BDB6903F08053BB60BB6801238F
:10020000FB75824B1B6803F48073002B18D17F4B66
:100210001B687E4A43F480731360FEF7B9FD3861B2
:1002200008E0FEF7B5FD02463B69D31A642B01D9FD
:10023000032303E1754B1B6803F48073002BF0D09C
:100240007B68DB68012B06D16F4B1B6A6E4A43F05B
:10025000010313622DE07B68DB68002B0CD16A4B35
:100260001B6A694A23F001031362674B1B6A664AE3
:1002700023F0040313621CE07B68DB68052B0CD1C0
:10028000614B1B6A604A43F0040313625E4B1B6AB6
:100290005D4A43F0010313620BE05B4B1B6A5A4A51
:1002A00023F001031362584B1B6A574A23F00403DF
:1002B00013627B68DB68002B15D0FEF769FD38619F
:1002C0000AE0FEF765FD02463B69D31A41F2883227
:1002D000934201D90323B1E04B4B1B6A03F00203A5
:1002E000002BEED014E0FEF753FD38610AE0FEF774
:1002F0004FFD02463B69D31A41F28832934201D93D
:1003000003239BE0404B1B6A03F00203002BEED15A
:10031000FB7D012B05D13C4BDB693B4A23F080532D
:10032000D3617B68DB69002B00F08780364B5B680C
:1003300003F00C03082B61D07B68DB69022B46D1EC
:10034000334B00221A60FEF723FD386108E0FEF708
:100350001FFD02463B69D31A022B01D903236DE02E
:10036000294B1B6803F00073002BF0D17B681B6ADC
:10037000B3F5803F08D1244B5B6823F400327B68DF
:100380009B68214913434B601F4B5B6823F4741235
:100390007B68196A7B685B6A0B431B4913434B609C
:1003A0001B4B01221A60FEF7F3FC386108E0FEF7F0
:1003B000EFFC02463B69D31A022B01D903233DE02F
:1003C000114B1B6803F00073002BF0D035E0104B8D
:1003D00000221A60FEF7DCFC386108E0FEF7D8FC6A
:1003E00002463B69D31A022B01D9032326E0064BB0
:1003F0001B6803F00073002BF0D11EE07B68DB6903
:10040000012B07D1012319E00010024000700040C9
:10041000600042420B4B5B68FB60FB6803F4803278
:100420007B681B6A9A4206D1FB6803F470127B68F2
:100430005B6A9A4201D0012300E000231846183776
:10044000BD4680BD0010024080B584B000AF78602A
:1004500039607B68002B01D10123D0E06A4B1B6817
:1004600003F007033A689A4210D9674B1B6823F0E0
:10047000070265493B6813430B60634B1B6803F03D
:1004800007033A689A4201D00123B8E07B681B68F1
:1004900003F00203002B20D07B681B6803F00403E9
:1004A000002B05D0594B5B68584A43F4E063536016
:1004B0007B681B6803F00803002B05D0534B5B6877
:1004C000524A43F460535360504B5B6823F0F00290
:1004D0007B689B684D4913434B607B681B6803F046
:1004E0000103002B40D07B685B68012B07D1474B91
:1004F0001B6803F40033002B15D101237FE07B68D8
:100500005B68022B07D1414B1B6803F00073002B83
:1005100009D1012373E03D4B1B6803F00203002B5C
:1005200001D101236BE0394B5B6823F003027B6848
:100530005B68364913434B60FEF72AFCF8600AE01B
:10054000FEF726FC0246FB68D31A41F2883293423A
:1005500001D9032353E02D4B5B6803F00C027B6849
:100560005B689B009A42EBD1274B1B6803F00703A3
:100570003A689A4210D2244B1B6823F007022249A2
:100580003B6813430B60204B1B6803F007033A687A
:100590009A4201D0012332E07B681B6803F0040318
:1005A000002B08D0194B5B6823F4E0627B68DB68A2
:1005B000164913434B607B681B6803F00803002B4C
:1005C00009D0124B5B6823F460527B681B69DB0027
:1005D0000E4913434B6000F021F802460B4B5B6859
:1005E0001B0903F00F030A49CB5C22FA03F3094A03
:1005F0001360094B1B681846FEF788FB002318465A
:100600001037BD4680BD00BF0020024000100240F0
:10061000F42F0108CC000020D000002080B487B067
:1006200000AF0023FB600023BB6000237B6100233D
:100630007B6000233B611E4B5B68FB60FB6803F043
:100640000C03042B02D0082B03D027E0194B3B618D
:1006500027E0FB689B0C03F00F03174AD35C7B6019
:10066000FB6803F48033002B10D0114B5B685B0CEC
:1006700003F00103114AD35CBB607B680D4A03FBA6
:1006800002F2BB68B2FBF3F37B6104E07B680C4AC7
:1006900002FB03F37B617B693B6102E0054B3B613D
:1006A00000BF3B6918461C37BD4680BC704700BF81
:1006B0000010024000127A000C3001081C300108C2
:1006C00000093D0080B400AF024B1B681846BD46D0
:1006D00080BC7047CC00002080B500AFFFF7F2FF70
:1006E0000246054B5B681B0A03F007030349CB5C1A
:1006F00022FA03F3184680BD0010024004300108BE
:1007000080B500AFFFF7DEFF0246054B5B68DB0AF2
:1007100003F007030349CB5C22FA03F3184680BDBC
:10072000001002400430010880B485B000AF78604A
:100730000A4B1B680A4AA2FB03235B0A7A6802FB86
:1007400003F3FB6000BFFB685A1EFA60002BF9D16F
:1007500000BF00BF1437BD4680BC7047CC000020EE
:10076000D34D621080B582B000AF78607B68002BFB
:1007700001D1012376E07B685B6A002B08D17B689E
:100780005B68B3F5827F09D07B680022DA6105E0FF
:100790007B6800221A617B6800225A617B68002214
:1007A0009A627B6893F85130DBB2002B06D17B68EC
:1007B000002283F850207868FDF7AAFF7B680222A8
:1007C00083F851207B681B681A687B681B6822F0DD
:1007D00040021A607B685B6803F482727B689B68E6
:1007E00003F404431A437B68DB6803F400631A4391
:1007F0007B681B6903F002031A437B685B6903F0A3
:1008000001031A437B689B6903F400731A437B68F6
:10081000DB6903F038031A437B681B6A03F080032B
:1008200042EA03017B689B6A03F400527B681B6801
:100830000A431A607B689B691A0C7B681B6802F08C
:1008400004025A607B681B68DA697B681B6822F4C3
:100850000062DA617B6800225A657B68012283F8B6
:100860005120002318460837BD4680BD80B58CB0A6
:1008700000AFF860B9607A607B800123FB620023DF
:1008800087F82B30FB6893F85030012B01D10223FD
:1008900098E1FB68012283F85020FEF779FA78622C
:1008A000FB6893F8513087F82330FB685B68FB6185
:1008B0007B887B8397F82330012B0FD0FB69B3F53E
:1008C000827F07D1FB689B68002B03D197F8233008
:1008D000042B03D0022387F82B306DE1BB68002B7B
:1008E00005D07B68002B02D07B88002B03D101232D
:1008F00087F82B3060E1FB6893F85130DBB2042BB2
:1009000003D0FB68052283F85120FB6800225A655A
:10091000FB687A689A63FB687A88DA87FB687A886A
:100920009A87FB68BA681A63FB687A88DA86FB687C
:100930007A889A86FB6800221A64FB6800225A644F
:10094000FB681B681B6803F04003402B07D0FB6863
:100950001B681A68FB681B6842F040021A60FB685B
:10096000DB68B3F5006F7CD1FB685B68002B02D0BD
:100970007B8B012B6AD1FB681B6B1A88FB681B6899
:10098000DA60FB681B6B9A1CFB681A63FB68DB8EE2
:100990009BB2013B9AB2FB68DA8657E0FB681B68A2
:1009A0009B6803F00203022B1BD1FB68DB8E9BB21A
:1009B000002B16D0FB6A012B13D1FB681B6B1A8826
:1009C000FB681B68DA60FB681B6B9A1CFB681A6388
:1009D000FB68DB8E9BB2013B9AB2FB68DA86002390
:1009E000FB62FB681B689B6803F00103012B19D1B4
:1009F000FB68DB8F9BB2002B14D0FB681B68DA68A6
:100A0000FB689B6B92B21A80FB689B6B9A1CFB681D
:100A10009A63FB68DB8F9BB2013B9AB2FB68DA8773
:100A20000123FB62FEF7B4F902467B6AD31ABA6B64
:100A30009A420BD8BB6BB3F1FF3F07D0032387F873
:100A40002B30FB68012283F85120B5E0FB68DB8E78
:100A50009BB2002BA2D1FB68DB8F9BB2002B9DD1F8
:100A600080E0FB685B68002B02D07B8B012B6FD191
:100A7000FB681A6BFB681B680C3312781A70FB68F2
:100A80001B6B5A1CFB681A63FB68DB8E9BB2013B35
:100A90009AB2FB68DA865BE0FB681B689B6803F030
:100AA0000203022B1CD1FB68DB8E9BB2002B17D0FC
:100AB000FB6A012B14D1FB681A6BFB681B680C33B3
:100AC00012781A70FB681B6B5A1CFB681A63FB6870
:100AD000DB8E9BB2013B9AB2FB68DA860023FB6295
:100AE000FB681B689B6803F00103012B19D1FB68AD
:100AF000DB8F9BB2002B14D0FB681B68DA68FB68A5
:100B00009B6BD2B21A70FB689B6B5A1CFB689A6392
:100B1000FB68DB8F9BB2013B9AB2FB68DA8701234B
:100B2000FB62FEF735F902467B6AD31ABA6B9A422A
:100B300003D8BB6BB3F1FF3F02D1BB6B002B07D1D6
:100B4000032387F82B30FB68012283F8512033E020
:100B5000FB68DB8E9BB2002B9ED1FB68DB8F9BB2C8
:100B6000002B99D17A6AB96BF86800F0B7F80346A0
:100B7000002B06D0012387F82B30FB6820225A6512
:100B80001AE0FB689B68002B0AD100237B61FB689D
:100B90001B68DB687B61FB681B689B687B617B690A
:100BA000FB685B6D002B03D0012387F82B3003E03B
:100BB000FB68012283F85120FB68002283F8502053
:100BC00097F82B3018463037BD4680BD80B588B0C9
:100BD00000AFF860B9603B601346FB71FEF7D8F8D0
:100BE0000246BB6A9B1A3A681344FB61FEF7D0F8D1
:100BF000B861394B1B685B011B0DFA6902FB03F3FB
:100C00007B6154E03B68B3F1FF3F50D0FEF7C0F882
:100C10000246BB69D31AFA699A4202D9FB69002BD2
:100C20003DD1FB681B685A68FB681B6822F0E00234
:100C30005A60FB685B68B3F5827F11D1FB689B68E3
:100C4000B3F5004F04D0FB689B68B3F5806F07D104
:100C5000FB681B681A68FB681B6822F040021A6078
:100C6000FB689B6AB3F5005F0FD1FB681B681A68CD
:100C7000FB681B6822F400521A60FB681B681A6844
:100C8000FB681B6842F400521A60FB68012283F87B
:100C90005120FB68002283F85020032317E07B6972
:100CA000002B01D10023FB617B69013B7B61FB6869
:100CB0001B689A68BB681340BA689A420CBF01234C
:100CC0000023DBB21A46FB799A429BD100231846D7
:100CD0002037BD4680BD00BFCC00002080B586B067
:100CE00002AFF860B9607A607B680093BB6800224D
:100CF0008021F868FFF76AFF0346002B07D0FB68E6
:100D00005B6D43F02002FB685A65032300E000237B
:100D100018461037BD4680BD80B582B000AF786000
:100D20007B68002B01D1012341E07B6893F83D30C3
:100D3000DBB2002B06D17B68002283F83C20786868
:100D4000FDF730FD7B68022283F83D207B681A683E
:100D50007B6804331946104600F0A2FA7B68012232
:100D600083F846207B68012283F83E207B680122BD
:100D700083F83F207B68012283F840207B680122B2
:100D800083F841207B68012283F842207B6801229E
:100D900083F843207B68012283F844207B6801228A
:100DA00083F845207B68012283F83D200023184604
:100DB0000837BD4680BD000080B485B000AF7860C4
:100DC0007B6893F83D30DBB2012B01D001233AE080
:100DD0007B68022283F83D207B681B68DA687B68A9
:100DE0001B6842F00102DA607B681B68184A934274
:100DF0000ED07B681B68B3F1804F09D07B681B68FD
:100E0000144A934204D07B681B68134A934211D161
:100E10007B681B689B6803F00703FB60FB68062B7D
:100E200010D07B681B681A687B681B6842F001025F
:100E30001A6007E07B681B681A687B681B6842F0D1
:100E400001021A60002318461437BD4680BC704763
:100E5000002C0140000400400008004080B483B032
:100E600000AF78607B681B68DA687B681B6822F0DB
:100E70000102DA607B681B681A6A41F211131340A1
:100E8000002B0FD17B681B681A6A40F24443134061
:100E9000002B07D17B681B681A687B681B6822F0EF
:100EA00001021A607B68012283F83D200023184666
:100EB0000C37BD4680BC704780B582B000AF78600B
:100EC0007B681B681B6903F00203022B22D17B683D
:100ED0001B68DB6803F00203022B1BD17B681B68D5
:100EE0006FF002021A617B6801221A777B681B6827
:100EF0009B6903F00303002B03D0786800F0B4F97A
:100F000005E0786800F0A7F9786800F0B6F97B682A
:100F100000221A777B681B681B6903F00403042B0B
:100F200022D17B681B68DB6803F00403042B1BD110
:100F30007B681B686FF004021A617B6802221A77D3
:100F40007B681B689B6903F44073002B03D07868AF
:100F500000F08AF905E0786800F07DF9786800F023
:100F60008CF97B6800221A777B681B681B6903F089
:100F70000803082B22D17B681B68DB6803F0080399
:100F8000082B1BD17B681B686FF008021A617B6815
:100F900004221A777B681B68DB6903F00303002BCC
:100FA00003D0786800F060F905E0786800F053F944
:100FB000786800F062F97B6800221A777B681B680A
:100FC0001B6903F01003102B22D17B681B68DB68C0
:100FD00003F01003102B1BD17B681B686FF010020D
:100FE0001A617B6808221A777B681B68DB6903F447
:100FF0004073002B03D0786800F036F905E078687C
:1010000000F029F9786800F038F97B6800221A7737
:101010007B681B681B6903F00103012B0ED17B6801
:101020001B68DB6803F00103012B07D17B681B6899
:101030006FF001021A617868FCF7ACF87B681B68F6
:101040001B6903F08003802B0ED17B681B68DB6873
:1010500003F08003802B07D17B681B686FF0800250
:101060001A61786800F07BFA7B681B681B6903F0E3
:101070004003402B0ED17B681B68DB6803F0400304
:10108000402B07D17B681B686FF040021A617868BB
:1010900000F0FCF87B681B681B6903F02003202B21
:1010A0000ED17B681B68DB6803F02003202B07D17F
:1010B0007B681B686FF020021A61786800F046FABE
:1010C00000BF0837BD4680BD80B584B000AF7860F2
:1010D00039600023FB737B6893F83C30012B01D10E
:1010E0000223B4E07B68012283F83C207B68022263
:1010F00083F83D207B681B689B68BB60BB6823F05E
:101100007703BB60BB6823F47F43BB607B681B68CD
:10111000BA689A603B681B68B3F5005F3ED0B3F5D0
:10112000005F00F28780B3F5805F00F08680B3F542
:10113000805F7FD8702B1AD0702B7BD8602B50D05B
:10114000602B77D8502B3CD0502B73D8402B58D0E5
:10115000402B6FD8302B64D0302B6BD8202B60D035
:10116000202B67D8002B5CD0102B5AD062E07B6814
:1011700018683B6899683B685A683B68DB6800F010
:1011800068F97B681B689B68BB60BB6843F07703AA
:10119000BB607B681B68BA689A604FE07B68186820
:1011A0003B6899683B685A683B68DB6800F051F916
:1011B0007B681B689A687B681B6842F480429A606F
:1011C0003CE07B6818683B6859683B68DB681A46F6
:1011D00000F0C8F87B681B685021184600F01FF922
:1011E0002CE07B6818683B6859683B68DB681A46E6
:1011F00000F0E6F87B681B686021184600F00FF9E4
:101200001CE07B6818683B6859683B68DB681A46D5
:1012100000F0A8F87B681B684021184600F0FFF832
:101220000CE07B681A683B681B681946104600F0A2
:10123000F6F803E00123FB7300E000BF7B680122A6
:1012400083F83D207B68002283F83C20FB7B184616
:101250001037BD4680BD80B483B000AF786000BF5A
:101260000C37BD4680BC704780B483B000AF786057
:1012700000BF0C37BD4680BC704780B483B000AF60
:10128000786000BF0C37BD4680BC704780B483B027
:1012900000AF786000BF0C37BD4680BC70470000CF
:1012A00080B485B000AF786039607B681B68FB60F4
:1012B0007B68294A93420BD07B68B3F1804F07D0FB
:1012C0007B68264A934203D07B68254A934208D123
:1012D000FB6823F07003FB603B685B68FA681343AC
:1012E000FB607B681C4A93420BD07B68B3F1804F54
:1012F00007D07B68194A934203D07B68184A93420F
:1013000008D1FB6823F44073FB603B68DB68FA6834
:101310001343FB60FB6823F080023B685B69134367
:10132000FB607B68FA681A603B689A687B68DA62DF
:101330003B681A687B689A627B68074A934203D1CC
:101340003B681A697B681A637B6801225A6100BF97
:101350001437BD4680BC7047002C0140000400409B
:101360000008004080B487B000AFF860B9607A60D0
:10137000FB681B6A7B61FB681B6A23F00102FB6848
:101380001A62FB689B693B613B6923F0F0033B6198
:101390007B681B013A6913433B617B6923F00A03B5
:1013A0007B617A69BB6813437B61FB683A699A6128
:1013B000FB687A691A6200BF1C37BD4680BC704763
:1013C00080B487B000AFF860B9607A60FB681B6AD0
:1013D0007B61FB681B6A23F01002FB681A62FB68E2
:1013E0009B693B613B6923F470433B617B681B0352
:1013F0003A6913433B617B6923F0A0037B61BB68BF
:101400001B017A6913437B61FB683A699A61FB6847
:101410007A691A6200BF1C37BD4680BC704780B431
:1014200085B000AF786039607B689B68FB60FB68C3
:1014300023F07003FB603A68FB68134343F0070333
:10144000FB607B68FA689A6000BF1437BD4680BCB9
:10145000704780B487B000AFF860B9607A603B60D5
:10146000FB689B687B617B6923F47F437B613B68FE
:101470001A027B681A43BB6813437A6913437B6182
:10148000FB687A699A6000BF1C37BD4680BC704714
:1014900080B485B000AF786039607B6893F83C30E9
:1014A000012B01D1022346E07B68012283F83C2016
:1014B0007B68022283F83D207B681B685B68FB60C9
:1014C0007B681B689B68BB60FB6823F07003FB6054
:1014D0003B681B68FA681343FB607B681B68FA680B
:1014E0005A607B681B68164A93420ED07B681B6863
:1014F000B3F1804F09D07B681B68124A934204D035
:101500007B681B68104A93420CD1BB6823F08003B0
:10151000BB603B685B68BA681343BB607B681B6851
:10152000BA689A607B68012283F83D207B680022BC
:1015300083F83C20002318461437BD4680BC704712
:10154000002C0140000400400008004080B483B03B
:1015500000AF786000BF0C37BD4680BC704780B4D8
:1015600083B000AF786000BF0C37BD4680BC7047C9
:1015700080B582B000AF78607B68002B01D1012379
:1015800042E07B6893F84130DBB2002B06D17B68E8
:10159000002283F840207868FDF744F97B68242214
:1015A00083F841207B681B68DA687B681B6822F43B
:1015B0000052DA60786800F0C5FD7B681B681A6924
:1015C0007B681B6822F490421A617B681B685A6929
:1015D0007B681B6822F02A025A617B681B68DA6804
:1015E0007B681B6842F40052DA607B6800225A6410
:1015F0007B68202283F841207B68202283F84220E8
:101600007B6800225A63002318460837BD4680BD18
:1016100080B58AB002AFF860B9603B601346FB80CA
:1016200000237B61FB6893F84130DBB2202B6DD146
:10163000BB68002B02D0FB88002B01D1012366E0A0
:10164000FB6800225A64FB68212283F84120FDF7E1
:101650009FFB7861FB68FA889A84FB68FA88DA84D1
:10166000FB689B68B3F5805F08D1FB681B69002BA2
:1016700004D10023FB61BB68BB6103E0BB68FB6175
:101680000023BB612AE03B6800937B690022802134
:10169000F86800F014FB0346002B01D0032336E06A
:1016A000FB69002B0BD1BB691B881A46FB681B68C2
:1016B000C2F308025A60BB690233BB6107E0FB69F1
:1016C0001A78FB681B685A60FB690133FB61FB6891
:1016D000DB8C9BB2013B9AB2FB68DA84FB68DB8C43
:1016E0009BB2002BCFD13B6800937B690022402145
:1016F000F86800F0E4FA0346002B01D0032306E06B
:10170000FB68202283F84120002300E002231846D2
:101710002037BD4680BD80B584B000AFF860B960A9
:101720001346FB80FB6893F84230DBB2202B12D1CA
:10173000BB68002B02D0FB88002B01D101230BE0FA
:10174000FB6800221A63FB881A46B968F86800F043
:1017500024FB034600E0022318461037BD4680BD37
:1017600080B5BAB000AF78607B681B681B68C7F8AB
:10177000E4307B681B68DB68C7F8E0307B681B6877
:101780005B69C7F8DC300023C7F8D8300023C7F8FE
:10179000D430D7F8E43003F00F03C7F8D830D7F8C7
:1017A000D830002B0FD1D7F8E43003F02003002B02
:1017B00009D0D7F8E03003F02003002B03D078687D
:1017C00000F001FC5BE2D7F8D830002B00F0DE809F
:1017D000D7F8DC3003F00103002B06D1D7F8E03056
:1017E00003F49073002B00F0D180D7F8E43003F0BD
:1017F0000103002B0BD0D7F8E03003F48073002BEB
:1018000005D07B685B6C43F001027B685A64D7F8B3
:10181000E43003F00403002B0BD0D7F8DC3003F0E6
:101820000103002B05D07B685B6C43F002027B68F0
:101830005A64D7F8E43003F00203002B0BD0D7F83A
:10184000DC3003F00103002B05D07B685B6C43F0B8
:1018500004027B685A64D7F8E43003F00803002BD5
:1018600011D0D7F8E03003F02003002B05D1D7F8D2
:10187000DC3003F00103002B05D07B685B6C43F088
:1018800008027B685A647B685B6C002B00F0F28175
:10189000D7F8E43003F02003002B08D0D7F8E0306D
:1018A00003F02003002B02D0786800F08CFB7B68EB
:1018B0001B685B6903F04003002B14BF0123002366
:1018C000DBB2C7F8D4307B685B6C03F00803002BF5
:1018D00003D1D7F8D430002B4FD0786800F096FAB7
:1018E0007B681B685B6903F04003002B41D07B6879
:1018F0001B681433C7F89C30D7F89C3053E8003F7E
:10190000C7F89830D7F8983023F04003C7F8D030A4
:101910007B681B681433D7F8D020C7F8A820C7F815
:10192000A430D7F8A410D7F8A82041E80023C7F8BE
:10193000A030D7F8A030002BD9D17B68DB6B002B0F
:1019400013D07B68DB6B7E4A5A637B68DB6B18467F
:10195000FDF794FB0346002B16D07B68DB6B5B6BBB
:101960007A68D26B104698470EE0786800F093F9D9
:101970000AE0786800F08FF906E0786800F08BF9EB
:101980007B6800225A6475E100BF73E17B681B6BC2
:10199000012B40F04F81D7F8E43003F01003002B07
:1019A00000F04881D7F8E03003F01003002B00F07E
:1019B00041810023BB607B681B681B68BB607B6840
:1019C0001B685B68BB60BB687B681B685B6903F076
:1019D0004003002B00F0B6807B68DB6B1B685B6804
:1019E000A7F8BE30B7F8BE30002B00F045817B6809
:1019F0009B8DB7F8BE209A4280F03E817B68B7F895
:101A0000BE20DA857B68DB6B9B69202B00F0888029
:101A10007B681B680C33C7F88830D7F8883053E8E8
:101A2000003FC7F88430D7F8843023F48073C7F8B8
:101A3000B8307B681B680C33D7F8B820C7F89420FF
:101A4000C7F89030D7F89010D7F8942041E80023D9
:101A5000C7F88C30D7F88C30002BD9D17B681B6845
:101A600014337B677B6F53E8003F3B673B6F23F08A
:101A70000103C7F8B4307B681B681433D7F8B4206F
:101A8000C7F88020FB67F96FD7F8802041E8002372
:101A9000BB67BB6F002BE1D17B681B6814333B66CF
:101AA0003B6E53E8003FFB65FB6D23F04003C7F836
:101AB000B0307B681B681433D7F8B020FA66BB6679
:101AC000B96EFA6E41E800237B667B6E002BE3D192
